:020000040000FA
:10000000CAEF25F0C96E1200F4EF1EF00EEC04F0FA
:1000100049EC1EF0FDD712007FEF23F0D9CFE5FFAA
:10002000E1CFD9FF00C0E5FF01C0E5FF02C0E5FF59
:1000300003C0E5FF04C0E5FF05C0E5FF06C0E5FF1E
:1000400007C0E5FF08C0E5FF09C0E5FF0AC0E5FFFE
:100050000BC0E5FF0CC0E5FF0DC0E5FF0EC0E5FFDE
:100060000FC0E5FF10C0E5FF11C0E5FF12C0E5FFBE
:1000700013C0E5FF14C0E5FF15C0E5FF16C0E5FF9E
:1000800017C0E5FF18C0E5FF19C0E5FF1AC0E5FF7E
:100090001BC0E5FF1CC0E5FF1DC0E5FF1EC0E5FF5E
:1000A000020EDBCF00F0030EDBCF01F0040EDBCF3E
:1000B00002F0050EDBCF03F0060EDBCF04F0070ED7
:1000C000DBCF05F0080EDBCF06F0090EDBCF07F023
:1000D0000A0EDBCF08F0096A0A6A02C00DF00D5063
:1000E000800A0DE102500301696F0150686F0050F2
:1000F000676F030E016E670E006E800E026E03C006
:10010000E9FF04C0F3FF055014EC26F00B6E0B5012
:10011000D8B4C4EF03F00B50250A02E0ABEF03F0B4
:100120000C6A0D6A0E6A0F6A106A0A0E116E126A64
:10013000136A146A200E156E1668176A2B0E186E55
:10014000032A02E3044A052A03C0E9FF04C0F3FFBF
:10015000055014EC26F0196E250A13E11950E56ECE
:100160000250E56E0150E56E0050E56E3AEC18F075
:10017000040EE126094A0A2A032A02E3044A052A50
:10018000BED71950300A06E1300E156E032A02E37D
:10019000044A052A03C0E9FF04C0F3FF055014EC2C
:1001A00026F02D0A06E1010E146E032A02E3044A2A
:1001B000052A03C0E9FF04C0F3FF055014EC26F044
:1001C000200A08E1010E176E200E186E032A02E3C2
:1001D000044A052A03C0E9FF04C0F3FF055014ECEC
:1001E00026F02B0A06E1010E176E032A02E3044AE9
:1001F000052A03C0E9FF04C0F3FF055014EC26F004
:10020000196E310E195C2BE33A0E195C28E203C01B
:1002100019F004C01AF005C01BF019C0E9FF1AC09C
:10022000F3FF1B5014EC26F01C6E300E1C5C11E327
:100230003A0E1C5C0EE213500A0DF3CF1DF01C5059
:100240001D26D00E1D24136E192A02E31A4A1B2AFA
:10025000E4D719C003F01AC004F01BC005F003C0B6
:10026000E9FF04C0F3FF055014EC26F02E0A2DE13F
:10027000032A02E3044A052A166A03C019F004C0DF
:100280001AF005C01BF019C0E9FF1AC0F3FF1B509C
:1002900014EC26F01C6E300E1C5C11E33A0E1C5C54
:1002A0000EE216500A0DF3CF1DF01C501D26D00E85
:1002B0001D24166E192A02E31A4A1B2AE4D719C014
:1002C00003F01AC004F01BC005F003C0E9FF04C02E
:1002D000F3FF055014EC26F0196E6C0A07E1010ECD
:1002E0000C6E032A02E3044A052A09D01950680A51
:1002F00006E1010E0E6E032A02E3044A052A03C03A
:10030000E9FF04C0F3FF055014EC26F0750A06E17E
:10031000010E106E032A02E3044A052A03C0E9FF16
:1003200004C0F3FF055014EC26F0196E730A05E1C2
:10033000010E0D6E200E156E3FD01950780A03E1A4
:10034000100E116E39D01950580A05E1100E116EB9
:10035000010E126E31D01950630A02E1116A2CD0DD
:1003600019506F0A03E1080E116E26D01950660A63
:1003700003E1010E0F6E20D01950640A1DE01950E0
:10038000690A1AE0105005E0FF0E03260422052238
:1003900013D01950E56E0250E56E0150E56E005025
:1003A000E56E3AEC18F0040EE126094A0A2A032AFF
:1003B00002E3044A052AA3D60D5021E00650030F9C
:1003C0000D6E000E0720196E000E08201A6E0DC06B
:1003D00006F019C007F01AC008F0FD0E0D26FF0E3A
:1003E00019221A220DC0E9FF19C0F3FF1A50DFECE1
:1003F00024F00D6EF3CF19F0F4CF1AF0FDD00F50AA
:100400000DE0000E1A6E080E196E100E0D6E040E21
:100410000626000E072208221668EED016680C5039
:1004200023E00650040F0C6E000E07200F6E000E26
:1004300008201B6E0CC006F00FC007F01BC008F0B0
:10044000FC0E0C26FF0E0F221B220CC0E9FF0FC072
:10045000F3FF1B5065EC24F00C6EF3CF0FF0F4CFDC
:100460001BF0E9CF1CF067D00E502FE00650020FB2
:100470000E6E000E07201D6E000E08201E6E0EC0B0
:1004800006F01DC007F01EC008F0FE0E0E26FF0E7F
:100490001D221E220EC0E9FF1DC0F3FF1E509EEC60
:1004A00025F00E6E0EC00CF00F6A1B6A1C6A11500C
:1004B0000A0A03E11050D8B43ED00C500E6E0EC0A4
:1004C0000CF00F6A1B6A1C6A36D00650020F0E6EC3
:1004D000000E07201D6E000E08201E6E0EC006F0D6
:1004E0001DC007F01EC008F0FE0E0E26FF0E1D22D6
:1004F0001E220EC0E9FF1DC0F3FF1E509EEC25F02A
:100500000E6EF3CF1DF00EC00CF01DC00FF0E86AA8
:100510001DBEFF0E1B6E1C6E11500A0A02E1105028
:100520000AE00C500E6E0F501D6E0EC00CF01DC078
:100530000FF01B6A1C6A040E196EF40E0D6E800E0D
:100540001A6E1150D8B440D0105013E01150E56E1F
:10055000040EE56EF40EE56E1C50E56E1B50E56E64
:100560000F50E56E0C50E56EE2EC13F0070EE1263D
:1005700012D01150E56E040EE56EF40EE56E1C50BF
:10058000E56E1B50E56E0F50E56E0C50E56E89EC84
:100590001DF0070EE12617502FE00DC0E9FF19C02E
:1005A000F3FF1A5014EC26F02D0A26E0FF0E0D265C
:1005B00019221A2218C0E5FF0DC0E9FF19C0F3FF88
:1005C0001A509CEC26F018D00CC0E5FF0DC0E9FFD6
:1005D00019C0F3FF1A509CEC26F00D50010F0C6E61
:1005E000000E19200E6E000E1A20E56A0CC0E9FFFD
:1005F0000EC0F3FF9CEC26F00DC00CF019C00EF0FD
:100600001AC00FF013C010F0105010E00CC0E9FF3A
:100610000EC0F3FF0F5014EC26F0176E175006E0D3
:100620000C2A02E30E4A0F2A1006EED710C013F070
:1006300014501EE109C00CF00AC00EF010C00FF0FB
:100640000F5010E01550E56E0250E56E0150E56E5A
:100650000050E56E3AEC18F0040EE1260C4A0E2A22
:100660000F06EED70CC009F00EC00AF00FC013F051
:1006700016C00CF00DC00DF019C00EF01AC00FF02E
:1006800009C010F00AC015F00DC0E9FF0EC0F3FF5D
:100690000F5014EC26F0166E1650D8B43ED00CC095
:1006A00016F0176A161E171E1650171005E00CC01C
:1006B00016F00C06165031E00DC0E9FF0EC0F3FF36
:1006C0000F5014EC26F0116E125010E01150E56E30
:1006D0005BEC25F0166EE652165004E0DF0E1114A6
:1006E000166E02D011C016F016C011F01150E56E52
:1006F0000250E56E0150E56E0050E56E3AEC18F0E0
:10070000040EE1260D2A02E30E4A0F2A104A152A8A
:100710001350D8B4B9D71306B7D710C009F015C015
:100720000AF014502BE010C00CF015C00DF013C0EF
:100730000EF00E501FE0200EE56E0250E56E0150E7
:10074000E56E0050E56E3AEC18F0040EE1260C4A16
:100750000D2A0E06EED70B50E56E0250E56E0150E5
:10076000E56E0050E56E3AEC18F0040EE126094AF9
:100770000A2A04D00CC009F00DC00AF0032A02E3D3
:10078000044A052A7FEF00F00AC0F3FF0950E4CFC6
:100790001EF0E4CF1DF0E4CF1CF0E4CF1BF0E4CF5B
:1007A0001AF0E4CF19F0E4CF18F0E4CF17F0E4CF5B
:1007B00016F0E4CF15F0E4CF14F0E4CF13F0E4CF5B
:1007C00012F0E4CF11F0E4CF10F0E4CF0FF0E4CF5B
:1007D0000EF0E4CF0DF0E4CF0CF0E4CF0BF0E4CF5B
:1007E0000AF0E4CF09F0E4CF08F0E4CF07F0E4CF5B
:1007F00006F0E4CF05F0E4CF04F0E4CF03F0E4CF5B
:1008000002F0E4CF01F0E4CF00F0E4CFD9FF120012
:100810003C4E4F20464C4F41543E000000C0E5FF87
:1008200001C0E5FF02C0E5FF03C0E5FF05C0E5FF2D
:10083000D0EC26F00001E051E56E50EC19F0E652E4
:1008400001EC23F0F3CF01F0F4CF02F0E9CF03F095
:10085000880F0401336F130E0120346F000E022045
:10086000356F000E0320366F62EC1AF09280800E16
:10087000006E0F0E016E0F0E036E380E0026035031
:100880000122800E026E0F0E036E800E005E03507A
:10089000015A0F0E056E380E0226055003220F0E68
:1008A000056E800E025E0550035A02C0E9FF03C0C8
:1008B000EAFFEFCF02F0028000C0E9FF01C0EAFFCB
:1008C00002C0EFFF000EE56AE56AB7EC1CF0E652E5
:1008D000E6529282800E006E0F0E016E0F0E036EB6
:1008E000380E002603500122800E026E0F0E036E9A
:1008F000800E005E0350015A0F0E056E380E022660
:10090000055003220F0E056E800E025E0550035A3D
:1009100002C0E9FF03C0EAFFEFCF02F0028200C08D
:10092000E9FF01C0EAFF02C0EFFF010EE56EE56ED0
:10093000B7EC1CF0E652E6529284800E006E0F0E69
:10094000016E0F0E036E380E002603500122800E3A
:10095000026E0F0E036E800E005E0350015A0F0EE2
:10096000056E380E0226055003220F0E056E800E0E
:10097000025E0550035A02C0E9FF03C0EAFFEFCF51
:1009800002F0028400C0E9FF01C0EAFF02C0EFFFED
:10099000020EE56EE56EB7EC1CF0E652E65292866A
:1009A000800E006E0F0E016E0F0E036E380E0026C5
:1009B00003500122800E026E0F0E036E800E005E49
:1009C0000350015A0F0E056E380E02260550032201
:1009D0000F0E056E800E025E0550035A02C0E9FF3D
:1009E00003C0EAFFEFCF02F0028600C0E9FF01C0BA
:1009F000EAFF02C0EFFF030EE56EE56EB7EC1CF0F8
:100A0000E652E6529484820E006E0F0E016E0F0EB7
:100A1000036E380E0026035001220F0E036E800E67
:100A2000005E0350015A820E026E0F0E036E0F0E0F
:100A3000056E380E0226055003220F0E056E800E3D
:100A4000025E0550035A02C0E9FF03C0EAFFEFCF80
:100A500002F0028400C0E9FF01C0EAFF02C0EFFF1C
:100A60000E0EE56E040EE56EB7EC1CF0E652E65293
:100A7000948A820E006E0F0E016E0F0E036E380EFA
:100A80000026035001220F0E036E800E005E0350FD
:100A9000015A820E026E0F0E036E0F0E056E380E97
:100AA0000226055003220F0E056E800E025E0550D1
:100AB000035A02C0E9FF03C0EAFFEFCF02F0028A47
:100AC00000C0E9FF01C0EAFF02C0EFFF110EE56EB2
:100AD000050EE56EB7EC1CF0E652E6529380810EEF
:100AE000006E0F0E016E0F0E036E380E00260350BF
:100AF00001220F0E036E800E005E0350015A810E1C
:100B0000026E0F0E036E0F0E056E380E0226055094
:100B100003220F0E056E800E025E0550035A02C0BE
:100B2000E9FF03C0EAFFEFCF02F0028000C0E9FF57
:100B300001C0EAFF02C0EFFF0C0EE56E060EE56E87
:100B4000B7EC1CF0E652E6529382810E006E0F0E57
:100B5000016E0F0E036E380E0026035001220F0E99
:100B6000036E800E005E0350015A810E026E0F0E5E
:100B7000036E0F0E056E380E0226055003220F0E6F
:100B8000056E800E025E0550035A02C0E9FF03C0E5
:100B9000EAFFEFCF02F0028200C0E9FF01C0EAFFE6
:100BA00002C0EFFF0A0EE56E070EE56EB7EC1CF013
:100BB000E652E6529384810E006E0F0E016E0F0E08
:100BC000036E380E0026035001220F0E036E800EB6
:100BD000005E0350015A810E026E0F0E036E0F0E5F
:100BE000056E380E0226055003220F0E056E800E8C
:100BF000025E0550035A02C0E9FF03C0EAFFEFCFCF
:100C000002F0028400C0E9FF01C0EAFF02C0EFFF6A
:100C1000080EE56EE56EB7EC1CF0E652E6529386E0
:100C2000810E006E0F0E016E0F0E036E380E002641
:100C3000035001220F0E036E800E005E0350015A16
:100C4000810E026E0F0E036E0F0E056E380E022619
:100C5000055003220F0E056E800E025E0550035AEA
:100C600002C0E9FF03C0EAFFEFCF02F0028600C036
:100C7000E9FF01C0EAFF02C0EFFF090EE56EE56E75
:100C8000B7EC1CF0E652E6529388810E006E0F0E10
:100C9000016E0F0E036E380E0026035001220F0E58
:100CA000036E800E005E0350015A810E026E0F0E1D
:100CB000036E0F0E056E380E0226055003220F0E2E
:100CC000056E800E025E0550035A02C0E9FF03C0A4
:100CD000EAFFEFCF02F0028800C0E9FF01C0EAFF9F
:100CE00002C0EFFF0B0EE56E0A0EE56EB7EC1CF0CE
:100CF000E652E652938A810E006E0F0E016E0F0EC1
:100D0000036E380E0026035001220F0E036E800E74
:100D1000005E0350015A810E026E0F0E036E0F0E1D
:100D2000056E380E0226055003220F0E056E800E4A
:100D3000025E0550035A02C0E9FF03C0EAFFEFCF8D
:100D400002F0028A00C0E9FF01C0EAFF02C0EFFF23
:100D50000D0EE56E0B0EE56EB7EC1CF0E652E6529A
:100D6000928A800E006E0F0E016E0F0E036E380E0B
:100D7000002603500122800E026E0F0E036E800EBD
:100D8000005E0350015A0F0E056E380E0226055004
:100D900003220F0E056E800E025E0550035A02C03C
:100DA000E9FF03C0EAFFEFCF02F0028A00C0E9FFCB
:100DB00001C0EAFF02C0EFFF040EE56E0C0EE56E07
:100DC000B7EC1CF0E652E6527D0E03012B6FE4CF28
:100DD00005F0E4CF03F0E4CF02F0E4CF01F0E4CF7C
:100DE00000F0120043522025642025640A00D9CF68
:100DF000E5FFE1CFD9FF00C0E5FF01C0E5FF02C07C
:100E0000E5FF03C0E5FF04C0E5FF05C0E5FF06C040
:100E1000E5FF020EDBCF00F000502EE189809290BA
:100E20009280800E016E0F0E026E0F0E046E380E51
:100E3000012604500222800E036E0F0E046E800EF7
:100E4000015E0450025A0F0E066E380E032606503D
:100E500004220F0E066E800E035E0650045A03C075
:100E6000E9FF04C0EAFFEFCF03F0038001C0E9FF10
:100E700002C0EAFF03C0EFFF0050010A2EE18982A1
:100E800092929282800E016E0F0E026E0F0E046E11
:100E9000380E012604500222800E036E0F0E046EDF
:100EA000800E015E0450025A0F0E066E380E0326A5
:100EB000065004220F0E066E800E035E0650045A82
:100EC00003C0E9FF04C0EAFFEFCF03F0038201C0D3
:100ED000E9FF02C0EAFF03C0EFFF0050020A2EE163
:100EE000898492949284800E016E0F0E026E0F0E12
:100EF000046E380E012604500222800E036E0F0E7F
:100F0000046E800E015E0450025A0F0E066E380EFB
:100F10000326065004220F0E066E800E035E065056
:100F2000045A03C0E9FF04C0EAFFEFCF03F00384D3
:100F300001C0E9FF02C0EAFF03C0EFFF0050030A4F
:100F40002EE1898692969286800E016E0F0E026EB9
:100F50000F0E046E380E012604500222800E036E1E
:100F60000F0E046E800E015E0450025A0F0E066EC4
:100F7000380E0326065004220F0E066E800E035E06
:100F80000650045A03C0E9FF04C0EAFFEFCF03F0A4
:100F9000038601C0E9FF02C0EAFF03C0EFFF005073
:100FA000040A30E18B8494949484820E016E0F0EB7
:100FB000026E0F0E046E380E0126045002220F0E30
:100FC000046E800E015E0450025A820E036E0F0EF4
:100FD000046E0F0E066E380E0326065004220F0E06
:100FE000066E800E035E0650045A03C0E9FF04C07B
:100FF000EAFFEFCF03F0038401C0E9FF02C0EAFF7C
:1010000003C0EFFF0050050A30E18B8A949A948A5E
:10101000820E016E0F0E026E0F0E046E380E012648
:10102000045002220F0E046E800E015E0450025A1C
:10103000820E036E0F0E046E0F0E066E380E032620
:10104000065004220F0E066E800E035E0650045AF0
:1010500003C0E9FF04C0EAFFEFCF03F0038A01C039
:10106000E9FF02C0EAFF03C0EFFF0050060A30E1CB
:101070008A8093909380810E016E0F0E026E0F0E88
:10108000046E380E0126045002220F0E046E800EEC
:10109000015E0450025A810E036E0F0E046E0F0E95
:1010A000066E380E0326065004220F0E066E800EC2
:1010B000035E0650045A03C0E9FF04C0EAFFEFCF05
:1010C00003F0038001C0E9FF02C0EAFF03C0EFFFA5
:1010D0000050070A30E18A8293929382810E016E5A
:1010E0000F0E026E0F0E046E380E012604500222FF
:1010F0000F0E046E800E015E0450025A810E036EC4
:101100000F0E046E0F0E066E380E032606500422D4
:101110000F0E066E800E035E0650045A03C0E9FFF0
:1011200004C0EAFFEFCF03F0038201C0E9FF02C071
:10113000EAFF03C0EFFF0050080A30E18A8493946D
:101140009384810E016E0F0E026E0F0E046E380E28
:101150000126045002220F0E046E800E015E045020
:10116000025A810E036E0F0E046E0F0E066E380EBD
:101170000326065004220F0E066E800E035E0650F4
:10118000045A03C0E9FF04C0EAFFEFCF03F0038471
:1011900001C0E9FF02C0EAFF03C0EFFF0050090AE7
:1011A00030E18A8693969386810E016E0F0E026E51
:1011B0000F0E046E380E0126045002220F0E046E2C
:1011C000800E015E0450025A810E036E0F0E046EF3
:1011D0000F0E066E380E0326065004220F0E066E02
:1011E000800E035E0650045A03C0E9FF04C0EAFF04
:1011F000EFCF03F0038601C0E9FF02C0EAFF03C09E
:10120000EFFF00500A0A30E18A8893989388810E94
:10121000016E0F0E026E0F0E046E380E0126045082
:1012200002220F0E046E800E015E0450025A810EDF
:10123000036E0F0E046E0F0E066E380E0326065058
:1012400004220F0E066E800E035E0650045A03C081
:10125000E9FF04C0EAFFEFCF03F0038801C0E9FF14
:1012600002C0EAFF03C0EFFF00500B0A30E18A8A98
:10127000939A938A810E016E0F0E026E0F0E046E0A
:10128000380E0126045002220F0E046E800E015EFD
:101290000450025A810E036E0F0E046E0F0E066E7E
:1012A000380E0326065004220F0E066E800E035ED3
:1012B0000650045A03C0E9FF04C0EAFFEFCF03F071
:1012C000038A01C0E9FF02C0EAFF03C0EFFF00503C
:1012D0000C0A2EE1898A929A928A800E006E0F0E75
:1012E000016E0F0E036E380E002603500122800E91
:1012F000026E0F0E036E800E005E0350015A0F0E39
:10130000056E380E0226055003220F0E056E800E64
:10131000025E0550035A02C0E9FF03C0EAFFEFCFA7
:1013200002F0028A00C0E9FF01C0EAFF02C0EFFF3D
:10133000E4CF06F0E4CF05F0E4CF04F0E4CF03F00F
:10134000E4CF02F0E4CF01F0E4CF00F0E4CFD9FF26
:10135000120000C0E5FF01C0E5FF02C0E5FF03C0C9
:10136000E5FF04C0E5FF05C0E5FF06C0E5FF07C0D7
:10137000E5FF08C0E5FFC2A204D00001EF51EBEF8A
:101380000BF00001F051D8B42FD10001EF51020D44
:10139000F450016EF3CF00F0390E0026040E012246
:1013A00000C0E9FF01C0EAFFEECF00F0EFCF01F08F
:1013B000230EEF25026E036A040E032202C0E9FF2A
:1013C00003C0EAFFEFCF02F00250FF0A01E16DD047
:1013D00009C0E5FFF2CF09F0F29E02380F0B046E50
:1013E000920E0424056E066A0F0E0622076A920EFC
:1013F00004260F0E072204C0E9FF07C0EAFFEFCF63
:1014000004F00250076E070E0716010E086E075013
:101410000DE006E6E86CD8900836010FFDE306D033
:10142000D89008BED8800832010FFBE3081C076E75
:101430000450071605C0E9FF06C0EAFF07C0EFFF2A
:1014400002380F0B046E890E0424056E066A0F0E17
:101450000622076A890E04260F0E072204C0E9FF40
:1014600007C0EAFFEFCF04F0070E0216010E076E69
:1014700002500DE006E6E86CD8900736010FFDE358
:1014800006D0D89007BED8800732010FFBE3071CB7
:10149000026E0450021605C0E9FF06C0EAFF02C052
:1014A000EFFF09BEF28EE4CF09F00001EF51020D0B
:1014B000F450036EF3CF02F0390E0226040E03221D
:1014C00001340130056E0030046E005C046E05507E
:1014D0000158056EC3CF00F0016A00500426015088
:1014E0000522C4CF00F0016A0050076E066A06505C
:1014F00004260750052202C0E9FF03C0EAFF04C02A
:10150000EEFF05C0EFFF0001EB51010A01E06AD0D8
:101510000001EF51020DF450016EF3CF00F0390ECF
:101520000024026E040E0120036E02C0E9FF03C016
:10153000EAFFEECF02F0EFCF03F0B30E0026040E69
:10154000012200C0E9FF01C0EAFFEECF04F0EFCFB7
:1015500005F09C0E0426D8A005060350800FF36EFC
:101560000550800FF35C02E10450025C0EE2025071
:10157000640F046E000E0320056E00C0E9FF01C079
:10158000EAFF04C0EEFF05C0EFFF0001EF51020DBE
:10159000F450016EF3CF00F0D30E0026040E0122AA
:1015A00000C0E9FF01C0EAFFEECF04F0EFCF05F085
:1015B000640E0426D8B0052A0550800FF36E035040
:1015C000800FF35C02E10250045C0CE29C0E0226E8
:1015D000D8A0030600C0E9FF01C0EAFF02C0EEFF89
:1015E00003C0EFFF0001F06B0001EF2B100EEF5D69
:1015F000D8B0EF6BEF39E8441F0B006E016A6C0E38
:101600000026030E012200C0E9FF01C0EAFFEFCF70
:1016100000F0EFC001F0070E0116010E026E000E81
:10162000036E015006E0E86CD89002360336010FD5
:10163000FCE3046A00500216045003160250031023
:10164000D880E866D890026A02360250D8A4C1D089
:10165000230E0001EF25006E016A0F0E012200C06B
:10166000E9FF01C0EAFFEFCF00F00044E844FC0BC3
:10167000016E0128C26EEF51E56EF7EC06F0E652FE
:10168000230EEF25006E016A040E012200C0E9FF5F
:1016900001C0EAFFEFCF00F00050FF0A01E195D052
:1016A00009C0E5FFF2CF09F0F29E00380F0B026E81
:1016B000920E0224036E046A0F0E0422056A920E33
:1016C00002260F0E052202C0E9FF05C0EAFFEFCF98
:1016D00002F00050056E070E0516010E066E05504D
:1016E0000DE006E6E86CD8900636010FFDE306D063
:1016F000D89006BED8800632010FFBE302500612D6
:1017000003C0E9FF04C0EAFF06C0EFFF09BEF28E86
:10171000E4CF09F0380E016E0F0E026E00380F0B89
:10172000036E046A0350012604500222380E056E2F
:101730000F0E066E055003260650042203C0E9FF73
:1017400004C0EAFFEFCF03F0070E0016010E046E8F
:1017500000500DE006E6E86CD8900436010FFDE37A
:1017600006D0D89004BED8800432010FFBE30350AA
:10177000041201C0E9FF02C0EAFF04C0EFFF0F013D
:1017800045830000000045930F01449309C0E5FF25
:10179000F2CF09F0F29E448100000000000000003A
:1017A0000000000000000000000000000000000039
:1017B0000000000000000000000000000000000029
:1017C000449109BEF28EE4CF09F0C282010E0001FD
:1017D000F06F0001EF51E4CF08F0E4CF07F0E4CF61
:1017E00006F0E4CF05F0E4CF04F0E4CF03F0E4CF5B
:1017F00002F0E4CF01F0E4CF00F0120000C0E5FFFA
:1018000001C0E5FF02C0E5FF03C0E5FF04C0E5FF3E
:1018100005C0E5FF06C0E5FF07C0E5FF08C0E5FF1E
:1018200009C0E5FF0AC0E5FF0BC0E5FF0CC0E5FFFE
:10183000006A016A026A040E025CD8B0EBD1100E95
:10184000015CD8B0E7D1012A0001F12B100EF15D47
:10185000D8B0F16BF139E8441F0B036E046A6C0ECB
:101860000326030E042203C0E9FF04C0EAFFEFCF02
:1018700003F0F1C004F0070E0416010E056E000E11
:10188000066E045006E0E86CD89005360636010F67
:10189000FCE3076A035005160750061605500610AC
:1018A000D880E866D890056A05360550D8A4C3D715
:1018B0000001F151020DF450046EF3CF03F0390E24
:1018C0000324056E040E0420066E05C0E9FF06C061
:1018D000EAFFEECF05F0EFCF06F0EEC007F007A06D
:1018E0009DD0B30E0324076E040E0420086E07C0BB
:1018F000E9FF08C0EAFFEECF07F0EFCF08F006508F
:10190000800FF36E0850800FF35C02E10750055C16
:1019100003E2056A066A60D0D30E0326040E042291
:1019200003C0E9FF04C0EAFFEECF03F0EFCF04F0FD
:101930000450800FF36E0650800FF35C02E10550F7
:10194000035C04E205683F0E066E46D00750055C56
:10195000096E085006580A6EE86A0ABEFF0E0B6E42
:10196000E56E0B50E56E0A50E56E0950E56EE56ACE
:10197000E56A400EE56E000EE56AD8EC12F0096EDD
:10198000F3CF0AF0F4CF0BF0E9CF0CF0080EE1260C
:101990000750035C076E08500458086EE86A08BEDA
:1019A000FF0E036EE56E0350E56E0850E56E0750BE
:1019B000E56E0C50E56E0B50E56E0A50E56E095071
:1019C000E56E90EC16F0036EF3CF04F0080EE126FE
:1019D0000350056E0450066E0001ED51800FF36E4A
:1019E0000650800FF35C02E10550EC5D03E3056AED
:1019F000066A14D00001EC51FF08036E3F0EED554E
:101A0000046E0650800FF36E0450800FF35C02E109
:101A10000350055C03E305683F0E066E0001F151BB
:101A2000020DF450046EF3CF03F0930E0326040E60
:101A3000042203C0E9FF04C0EAFFEECF03F0EFCFBA
:101A400004F00350055C036E04500658046ED88001
:101A500004AED89004E3041E036CD8B4042A022A0E
:101A60000001ED51800FF36E0450800FF35C02E132
:101A70000350EC5DD8B0DFD60001F151020DF450F7
:101A8000046EF3CF03F0930E0326040E042203C06A
:101A9000E9FF04C0EAFF05C0EEFF06C0EFFFEEC09D
:101AA00003F003A459D0F151020DF450046EF3CFAA
:101AB00003F0000E0324076E030E0420086E07C017
:101AC000E9FF08C0EAFFEECF09F0EFCF0AF00950B6
:101AD0000A10D8B441D0590E0326040E042203C0C4
:101AE000E9FF04C0EAFFEECF03F0EFCF04F00350AC
:101AF000055C036E04500658046E03101CE004508D
:101B0000800F800F02E1010E035C0B6A0B360A5056
:101B1000800F800F02E1010E095C096A09360B5043
:101B2000091809E107C0E9FF08C0EAFF03C0EEFF9A
:101B300004C0EFFF80D60001F151020DF450046E95
:101B4000F3CF03F0000E0326030E042203C0E9FFC7
:101B500004C0EAFFEE6AEF6AEEC003F003A246D0CB
:101B600000500EE100C003F0002A046AF20E0326C2
:101B7000000E042203C0E9FF04C0EAFF420EEF6E2C
:101B800000C003F00028046E076AF20E0326000E60
:101B900007220001F151086E640E082603C0E9FF18
:101BA00007C0EAFF08C0EFFF04C003F0042A076A79
:101BB000F20E0326000E07220650086E03C0E9FF4E
:101BC00007C0EAFF08C0EFFF04C003F00428006E5E
:101BD000046AF20E0326000E04220550076E03C0AD
:101BE000E9FF04C0EAFF07C0EFFF25D6F1C003F00C
:101BF0000650E56E0550E56EE56A0350E56E000E91
:101C0000E56E350EE56EBE0EE56EFFEC20F0070EBC
:101C1000E12611D602C001F000501EE0EEC002F035
:101C200002A21AD000C002F0002A036AF20E0226B5
:101C3000000E032202C0E9FF03C0EAFF0A0EEF6EA6
:101C40000050E56E800EE56E000EE56EF20EE56E5C
:101C5000E5EC1AF0040EE1260150E4CF0CF0E4CFDD
:101C60000BF0E4CF0AF0E4CF09F0E4CF08F0E4CFC2
:101C700007F0E4CF06F0E4CF05F0E4CF04F0E4CFC2
:101C800003F0E4CF02F0E4CF01F0E4CF00F0120063
:101C900000C0E5FF01C0E5FF02C0E5FF03C0E5FFAE
:101CA00004C0E5FF05C0E5FF000EE56AF4EC23F093
:101CB000006EF3CF01F0E6522BC302F0036A02502C
:101CC000046E04260334056ED89004360536D89089
:101CD000043605360550800FF36E0150800FF35C1B
:101CE00002E10050045C05E2FE0E03012015206FA6
:101CF00004D0010E03012011206F010EE56EF4ECFB
:101D000023F0006EF3CF01F0E6522BC302F0036A1A
:101D10000250046E04260334056ED890043605364E
:101D2000D890043605360550800FF36E0150800FB1
:101D3000F35C02E10050045C05E2FD0E0301201596
:101D4000206F04D0020E03012011206F020EE56EF9
:101D5000F4EC23F0006EF3CF01F0E6522BC302F057
:101D6000036A0250046E04260334056ED8900436CC
:101D70000536D890043605360550800FF36E0150B5
:101D8000800FF35C02E10050045C05E2FB0E0301EE
:101D90002015206F04D0040E03012011206F030EC4
:101DA000E56EF4EC23F0006EF3CF01F0E6522BC3A6
:101DB00002F0036A0250046E04260334056ED890C4
:101DC00004360536D890043605360550800FF36E7C
:101DD0000150800FF35C02E10050045C05E2F70E55
:101DE00003012015206F04D0080E03012011206F7D
:101DF000040EE56EF4EC23F0006EF3CF01F0E65232
:101E00002BC302F0036A0250046E04260334056EED
:101E1000D89004360536D890043605360550800F24
:101E2000F36E0150800FF35C02E10050045C05E2A8
:101E3000EF0E03012015206F04D0100E03012011B6
:101E4000206F050EE56EF4EC23F0006EF3CF01F089
:101E5000E6522BC302F0036A0250046E04260334D8
:101E6000056ED89004360536D890043605360550F0
:101E7000800FF36E0150800FF35C02E10050045CB0
:101E800005E2DF0E03012015206F04D0200E0301B0
:101E90002011206F060EE56EF4EC23F0006EF3CFF8
:101EA00001F0E6522BC302F0036A0250046E0426CE
:101EB0000334056ED89004360536D89004360536BE
:101EC0000550800FF36E0150800FF35C02E100506B
:101ED000045C05E2BF0E03012015206F04D0400E04
:101EE00003012011206F070EE56EF4EC23F0006E65
:101EF000F3CF01F0E6522BC302F0036A0250046EE6
:101F000004260334056ED89004360536D89004367E
:101F100005360550800FF36E0150800FF35C02E12F
:101F20000050045C05E27F0E03012015206F04D0F1
:101F3000800E03012011206F080EE56EF4EC23F0F3
:101F4000006EF3CF01F0E6522BC302F0036A025099
:101F5000046E04260334056ED89004360536D890F6
:101F6000043605360550800FF36E0150800FF35C88
:101F700002E10050045C05E2FE0E03012115216F11
:101F800004D0010E03012111216F090EE56EF4EC5E
:101F900023F0006EF3CF01F0E6522BC302F0036A88
:101FA0000250046E04260334056ED89004360536BC
:101FB000D890043605360550800FF36E0150800F1F
:101FC000F35C02E10050045C05E2FD0E0301211503
:101FD000216F04D0020E03012111216F0A0EE56E5C
:101FE000F4EC23F0006EF3CF01F0E6522BC302F0C5
:101FF000036A0250046E04260334056ED89004363A
:102000000536D890043605360550800FF36E015022
:10201000800FF35C02E10050045C05E2FB0E03015B
:102020002115216F04D0040E03012111216F0B0E25
:10203000E56EF4EC23F0006EF3CF01F0E6522BC313
:1020400002F0036A0250046E04260334056ED89031
:1020500004360536D890043605360550800FF36EE9
:102060000150800FF35C02E10050045C05E2F70EC2
:1020700003012115216F04D0080E03012111216FE6
:102080000C0EE56EF4EC23F0006EF3CF01F0E65297
:102090002BC302F0036A0250046E04260334056E5B
:1020A000D89004360536D890043605360550800F92
:1020B000F36E0150800FF35C02E10050045C05E216
:1020C000EF0E03012115216F04D0100E0301211121
:1020D000216FE4CF05F0E4CF04F0E4CF03F0E4CFC8
:1020E00002F0E4CF01F0E4CF00F01200800EE56EC4
:1020F000040EE56ED30EE56E44EC1FF0030EE126F0
:10210000800EE56E040EE56EB30EE56E44EC1FF036
:10211000030EE126800EE56E040EE56ED50EE56E2B
:1021200044EC1FF0030EE126800EE56E040EE56E12
:10213000B50EE56E44EC1FF0030EE126800EE56E51
:10214000040EE56ED70EE56E44EC1FF0030EE1269B
:10215000800EE56E040EE56EB70EE56E44EC1FF0E2
:10216000030EE126800EE56E040EE56ED90EE56ED7
:1021700044EC1FF0030EE126800EE56E040EE56EC2
:10218000B90EE56E44EC1FF0030EE126800EE56EFD
:10219000040EE56EDB0EE56E44EC1FF0030EE12647
:1021A000800EE56E040EE56EBB0EE56E44EC1FF08E
:1021B000030EE126800EE56E040EE56EDD0EE56E83
:1021C00044EC1FF0030EE126800EE56E040EE56E72
:1021D000BD0EE56E44EC1FF0030EE126800EE56EA9
:1021E000040EE56EDF0EE56E44EC1FF0030EE126F3
:1021F000800EE56E040EE56EBF0EE56E44EC1FF03A
:10220000030EE126800EE56E040EE56EE10EE56E2E
:1022100044EC1FF0030EE126800EE56E040EE56E21
:10222000C10EE56E44EC1FF0030EE126800EE56E54
:10223000040EE56EE30EE56E44EC1FF0030EE1269E
:10224000800EE56E040EE56EC30EE56E44EC1FF0E5
:10225000030EE126800EE56E040EE56EE50EE56EDA
:1022600044EC1FF0030EE126800EE56E040EE56ED1
:10227000C50EE56E44EC1FF0030EE126800EE56E00
:10228000040EE56EE70EE56E44EC1FF0030EE1264A
:10229000800EE56E040EE56EC70EE56E44EC1FF091
:1022A000030EE126800EE56E040EE56EE90EE56E86
:1022B00044EC1FF0030EE126800EE56E040EE56E81
:1022C000C90EE56E44EC1FF0030EE126800EE56EAC
:1022D000040EE56EEB0EE56E44EC1FF0030EE126F6
:1022E000800EE56E040EE56ECB0EE56E44EC1FF03D
:1022F000030EE126800EE56E040EE56EED0EE56E32
:1023000044EC1FF0030EE126800EE56E040EE56E30
:10231000CD0EE56E44EC1FF0030EE126800EE56E57
:10232000040EE56EEF0EE56E44EC1FF0030EE126A1
:10233000800EE56E040EE56ECF0EE56E44EC1FF0E8
:10234000030EE126800EE56E040EE56EF10EE56EDD
:1023500044EC1FF0030EE126800EE56E040EE56EE0
:10236000D10EE56E44EC1FF0030EE126120000C012
:10237000E5FF01C0E5FF02C0E5FF03C0E5FF000186
:10238000E851D8B40CD19DA81DD09EA81BD0030144
:1023900077510301751905E152EC26F00301756BC5
:1023A000FED0000E03017725006E016A040E0122A3
:1023B00000C0E9FF01C0EAFFEFCF71F3772B71C3D3
:1023C000ADFFEDD09DAAEBD09EAAE9D0ABA205D07F
:1023D0000301768152EC26F0E2D0ABA405D00301D4
:1023E000768352EC26F0DBD0ABA048D0AECF71F3B1
:1023F000E9C000F0016A008E71C302F0036A025066
:10240000001803E10350011801E004D003017689AC
:10241000AB96C5D00301715104E071510001E91977
:1024200029E103017699AB960301715103E00301A1
:10243000769702D00301768771C37AF373C37BF377
:1024400003017351006E000403017C6F600E0301F1
:102450007B25006E016A000E012200C0E9FF01C069
:10246000EAFF71C3EFFF7B2B7B51800A02E103017E
:102470007B6B95D003017699AB8691D0AECF71F38B
:10248000030176A921D0E9C000F0016A008E71C372
:1024900002F0036A0250001803E10350011801E042
:1024A00011D09D9AAB9894900301755104E1AD6AE7
:1024B00052EC26F007D000C4ADFF010E0301776F88
:1024C0009D886DD0AB866BD00301715103017A27D3
:1024D00003017B5103017C191BE103017A510CE1DB
:1024E0007BC373F3030176B712D09D9AAB98949097
:1024F000AD6A52EC26F00BD00301768576B707D093
:102500009D9AAB989490010EAD6E52EC26F047D098
:1025100003017B510301741908E1030174510301A4
:10252000731903E052EC26F03AD073C300F0016A4D
:10253000004A012AE56A800EE56E0150E56E005002
:10254000E56EDDEC1BF0006E040EE1260050030189
:10255000726F03017B190FE171C300F01F0E0014AD
:1025600003017C6F006E020E00247C6F0301735127
:1025700003017C277C9F7BC300F003017B2B016A56
:10258000600E0026000E012200C0E9FF01C0EAFF34
:1025900071C3EFFF7B51800A02E103017B6BE4CF43
:1025A00003F0E4CF02F0E4CF01F0E4CF00F012003A
:1025B000D9CFE5FFE1CFD9FF00C0E5FF01C0E5FFBE
:1025C00002C0E5FF03C0E5FF04C0E5FF05C0E5FF6D
:1025D00006C0E5FF07C0E5FF020EDBCF00F0030EEB
:1025E000DBCF01F0040EDBCF02F0050EDBCF03F0F2
:1025F000060EDBCF04F0070EDBCF05F0080EDBCFB5
:1026000006F0090EDBCF07F000500401816F015086
:10261000826F0250836F0350846F04500401856FF2
:102620000550866F0650876F0750886F04018151EF
:1026300004018703F4CF01F0F3CF00F00050040150
:102640008C6F01508D6F0401815104018503F4CF1B
:1026500001F0F3CF00F0005004018A6F01508B6F3E
:102660000401845104018503F3CF00F004018D516E
:10267000002600508D6F0401835104018603F3CFBF
:1026800001F001500026005004018D6F04018351B8
:1026900004018503F4CF01F0F3CF00F004018C5165
:1026A00000268D51012200508C6F01508D6F040166
:1026B000825104018603F4CF03F0F3CF02F00250FD
:1026C000002603500122005004018C6F01508D6FD1
:1026D0000401825104018703F3CF00F0005004018C
:1026E000916F0401825104018503F4CF01F0F3CF0F
:1026F00000F0005004018F6F0150906F0401815170
:1027000004018803F3CF00F000500301636F04015C
:10271000815104018603F4CF01F0F3CF00F00050A3
:102720000301616F0150626F04018E6B0301606BE6
:1027300004018E5104018A25006E04018F510401A9
:102740008B21016E0401905104018C21026E040161
:10275000915104018D21036E00508A6F01508B6FDF
:1027600002508C6F03508D6F0301605104018A2564
:10277000006E0301615104018B21016E030162515E
:1027800004018C21026E0301635104018D21036E4B
:1027900003C0E9FF02C0F4FF01C0F3FF0050E4CF23
:1027A00007F0E4CF06F0E4CF05F0E4CF04F0E4CF87
:1027B00003F0E4CF02F0E4CF01F0E4CF00F0E4CF87
:1027C000D9FF1200D9CFE5FFE1CFD9FF00C0E5FF67
:1027D00001C0E5FF02C0E5FF03C0E5FF04C0E5FF5F
:1027E00005C0E5FF06C0E5FF07C0E5FF08C0E5FF3F
:1027F00009C0E5FF0AC0E5FF0BC0E5FF0CC0E5FF1F
:102800000DC0E5FF0EC0E5FF0FC0E5FF020EDBCFF8
:1028100000F0030EDBCF01F0040EDBCF02F0050E5B
:10282000DBCF03F0060EDBCF04F0070EDBCF05F0A5
:10283000080EDBCF06F0200E076E086A06C009F00E
:102840000A6A0B6A0C6AE56AE56AE56A0950E56E90
:102850000350E56E0250E56E0150E56E0050E56EE6
:1028600060EC15F00D6E080EE126300E0D263A0EC6
:102870000D5C05E30D500E6E270E0E240D6EFF0E3F
:1028800007260822400E07240E6E030E08200F6E46
:102890000EC0E9FF0FC0EAFF0DC0EFFF0C50E56E60
:1028A0000B50E56E0A50E56E0950E56E0350E56E7B
:1028B0000250E56E0150E56E0050E56E90EC16F0AA
:1028C000006EF3CF01F0F4CF02F0E9CF03F0080E71
:1028D000E1260050011002100310D8A4AFD707C0A2
:1028E00000F008C001F004C002F005C003F000C011
:1028F00004F001C005F0004A012A400E0426030E30
:10290000052204C0E9FF05C0EAFFEFCF04F002C0D2
:10291000E9FF03C0EAFF04C0EFFF024A032A000EEA
:10292000015C02E1200E005CE2E302C0E9FF03C0AB
:10293000EAFF000EEF6AE4CF0FF0E4CF0EF0E4CF31
:102940000DF0E4CF0CF0E4CF0BF0E4CF0AF0E4CFCD
:1029500009F0E4CF08F0E4CF07F0E4CF06F0E4CFCD
:1029600005F0E4CF04F0E4CF03F0E4CF02F0E4CFCD
:1029700001F0E4CF00F0E4CFD9FF120000C0E5FF82
:1029800001C0E5FF02C0E5FF03C0E5FF9EA68FD0B2
:10299000C7CF00F02D0E00140301826F090A06E173
:1029A000010E0301816FC9CF83F380D003018251EF
:1029B000290A1CE1C9CF83F30301815104E0816B33
:1029C00083C380F373D0200E0301805DD8B06ED036
:1029D000200E8025006E016A030E012200C0E9FF6F
:1029E00001C0EAFF83C3EFFF802B60D082C300F0F9
:1029F0002C0E0014036A0C0A02E1035001E023D0FC
:102A0000C9CF83F3200E0301805D0EE2200E8025E6
:102A1000026E036A030E032202C0E9FF03C0EAFF4D
:102A2000EFCF83F3802B02D003018369026AC7B022
:102A3000022A0250010AFAE0C69E83C3C9FFC6BE3D
:102A4000FCD7C68833D0030182512C0A23E1C6B8D3
:102A500021D0200E0301805D0EE2200E8025026E43
:102A6000036A030E032202C0E9FF03C0EAFFEFCFAF
:102A700083F3802B02D003018369026AC7B0022A64
:102A80000250010AFAE0C69E83C3C9FFC6BEFCD746
:102A9000C6880CD0280E0016016A0050280A02E1F0
:102AA000015004E0C69EC69CC69AC68A9E96E4CF94
:102AB00003F0E4CF02F0E4CF01F0E4CF00F0120025
:102AC000D9CFE5FFE1CFD9FF00C0E5FF01C0E5FFA9
:102AD00002C0E5FF03C0E5FF04C0E5FF05C0E5FF58
:102AE00006C0E5FF07C0E5FF08C0E5FF09C0E5FF38
:102AF0000AC0E5FF020EDBCF00F0030EDBCF01F0D2
:102B0000040EDBCF02F0050EDBCF03F0060EDBCFA9
:102B100004F0070EDBCF05F0080EDBCF06F0090E40
:102B2000DBCF07F0086A045005100610071005E116
:102B3000E968F468F368E86847D0096A0750800BD1
:102B4000E8440A6E0A501BE1045004260536063696
:102B500007360750035C08E10650025C05E10550AA
:102B6000015C02E10450005C06E2D89007320632B4
:102B70000532043204D0092A09C008F0DFD7075013
:102B8000035C08E10650025C05E10550015C02E1CE
:102B90000450005C08E30450005E0550015A0650E2
:102BA000025A0750035AD8900732063205320432CF
:102BB00008C009F008060950E2E103C0E9FF02C0BD
:102BC000F4FF01C0F3FF0050E4CF0AF0E4CF09F0B6
:102BD000E4CF08F0E4CF07F0E4CF06F0E4CF05F04F
:102BE000E4CF04F0E4CF03F0E4CF02F0E4CF01F04F
:102BF000E4CF00F0E4CFD9FF1200D9CFE5FFE1CF59
:102C0000D9FF00C0E5FF01C0E5FF02C0E5FF03C03A
:102C1000E5FF04C0E5FF05C0E5FF06C0E5FF07C00E
:102C2000E5FF08C0E5FF09C0E5FF0AC0E5FF020EA9
:102C3000DBCF00F0030EDBCF01F0040EDBCF02F0A0
:102C4000050EDBCF03F0060EDBCF04F0070EDBCF63
:102C500005F00038E8441F0B066E076A6C0E062666
:102C6000030E072206C0E9FF07C0EAFFEFCF08F016
:102C70000050096E070E0916010E0A6E09500DE08C
:102C800006E6E86CD8900A36010FFDE306D0D8902E
:102C90000ABED8800A32010FFBE308500A1206C0B0
:102CA000E9FF07C0EAFF0AC0EFFF230E0024066E0B
:102CB000076A0F0E072206C0E9FF07C0EAFF01C03E
:102CC000EFFF016A230E0026040E0122800E025E31
:102CD000070E02160238F00B036E070E051605509C
:102CE000032600C0E9FF01C0EAFF03C0EFFFE4CF05
:102CF0000AF0E4CF09F0E4CF08F0E4CF07F0E4CF26
:102D000006F0E4CF05F0E4CF04F0E4CF03F0E4CF25
:102D100002F0E4CF01F0E4CF00F0E4CFD9FF1200DD
:102D2000D9CFE5FFE1CFD9FF00C0E5FF01C0E5FF46
:102D300002C0E5FF03C0E5FF04C0E5FF05C0E5FFF5
:102D400006C0E5FF07C0E5FF08C0E5FF09C0E5FFD5
:102D50000AC0E5FF0BC0E5FF0CC0E5FF0DC0E5FFB5
:102D6000020EDBCF00F0030EDBCF01F0040EDBCF51
:102D700002F0050EDBCF03F0060EDBCF04F0070EEA
:102D8000DBCF05F0080EDBCF06F0090EDBCF07F036
:102D9000086A096A0A6A0B6A200E0C6E0350800BDF
:102DA000E8440D6E00500026013602360336085006
:102DB000082609360A360B360D50D8A4088007506D
:102DC0000B5C08E106500A5C05E10550095C02E174
:102DD0000450085C09E30450085E0550095A065087
:102DE0000A5A07500B5A00800C040D6E0DC00CF0EF
:102DF0000D50D4E103C0E9FF02C0F4FF01C0F3FFAE
:102E00000050E4CF0DF0E4CF0CF0E4CF0BF0E4CFB2
:102E10000AF0E4CF09F0E4CF08F0E4CF07F0E4CF04
:102E200006F0E4CF05F0E4CF04F0E4CF03F0E4CF04
:102E300002F0E4CF01F0E4CF00F0E4CFD9FF1200BC
:102E400000C0E5FF01C0E5FF03C0E5FF04C0E5FFEA
:102E500005C0E5FF06C0E5FF07C0E5FF08C0E5FFC8
:102E600009C0E5FF0AC0E5FF0BC0E5FF6AC300F03B
:102E70006BC301F003016A3F01D06B2B0050E56E7C
:102E800044EC26F0E652076E046A056A066A6AC3D5
:102E900000F06BC301F003016A3F01D06B2B0050BF
:102EA000E56E44EC26F0E6520B6A0A6E086A08509A
:102EB000041205120A5006120B5007126AC300F0E2
:102EC0006BC301F003016A3F01D06B2B0050E56E2C
:102ED00044EC26F0E652036E006A03C001F0E86A93
:102EE00003BEFF0E086E096E005004120150051259
:102EF00008500612095007126AC300F06BC301F0B4
:102F000003016A3F01D06B2B0050E56E44EC26F0C4
:102F1000E652016A0412015005120612071207C098
:102F2000E9FF06C0F4FF05C0F3FF0450E4CF0BF047
:102F3000E4CF0AF0E4CF09F0E4CF08F0E4CF07F0E3
:102F4000E4CF06F0E4CF05F0E4CF04F0E4CF03F0E3
:102F5000E4CF01F0E4CF00F0120000C0E5FF01C0B3
:102F6000E5FF02C0E5FF03C0E5FF03017451030163
:102F7000731901E163D074C300F0002A009E016A56
:102F8000600E0026000E012200C0E9FF01C0EAFF2A
:102F9000EFCF7EF31F0E03017E1774C37DF37E51C6
:102FA00003017D277D51006E020E00247D6F7D9F01
:102FB00055EC23F0006E005003E1006A002A01D0B6
:102FC000006A55EC23F003017E6F7EC301F0800E92
:102FD00001167EC302F01F0E021602C003F002C0EB
:102FE0007EF3035003E173C374F33BD000501EE043
:102FF000015022E055EC23F0006E03017E51026E79
:1030000002047E6F0050420A17E000504E0A03E1AE
:10301000BDEC20F011D00050460A03E186EC26F00A
:103020000BD00050490A08E1FF0006D074C37FF3BB
:103030000150D8B4E0EC1FF07DC374F30001E551FA
:103040000001E61906E00301755103E1C6EC18F032
:1030500008D094B006D00301755103E1ACB252EC34
:1030600026F0E4CF03F0E4CF02F0E4CF01F0E4CFA8
:1030700000F01200D9CFE5FFE1CFD9FF00C0E5FF96
:1030800001C0E5FF02C0E5FF03C0E5FF04C0E5FFA6
:1030900005C0E5FF06C0E5FF07C0E5FF020EDBCF78
:1030A00000F0030EDBCF01F0040EDBCF02F0050EC3
:1030B000DBCF03F002C006F00650046E800A33E155
:1030C00000C0E9FF01C0F3FF0250DFEC24F0056E01
:1030D000F3CF06F0F4CF07F003C0E5FF05C0E9FF2A
:1030E00006C0F3FF07509CEC26F000C0E9FF01C0CA
:1030F000F3FF0250DFEC24F0056EF3CF06F0F4CFBF
:1031000007F0052A02E3064A072A05C0E5FF06C0C4
:10311000F4FF07C0F6FF00C0E9FF01C0F3FF025053
:1031200035EC26F020D004C000F000AA1CD0007AB4
:103130000050046E04E10350D5EC26F014D0045086
:10314000010A04E1035002EC00F00DD004500F0A14
:1031500004E10350D1EC22F006D004500E0A03E142
:103160000350E8EC26F0E4CF07F0E4CF06F0E4CF1C
:1031700005F0E4CF04F0E4CF03F0E4CF02F0E4CFB5
:1031800001F0E4CF00F0E4CFD9FF120000C0E5FF6A
:1031900001C0E5FF02C0E5FF03C0E5FFACA277D0A8
:1031A00085EC24F0006E005005E10001E66B0001A3
:1031B000E56B6DD0E6C001F00050012685EC24F0EF
:1031C000026E00060250230A1FE1010E005CD8A027
:1031D0005CD085EC24F0036E690A03E1A0EC22F0D8
:1031E00054D00350720A03E152EC26F04ED0035043
:1031F000730A01E04AD09480AB869D8A9D98AE50B8
:10320000AE50AB98AB8841D00250430A05E0025063
:10321000420A01E03AD001D0008E0301776B00C072
:1032200078F300500401006F0301772B0001E65191
:10323000011814E085EC24F0006E03017827000EDD
:1032400003017725026E036A040E032202C0E9FF20
:1032500003C0EAFF00C0EFFF772BE8D7000E0301A1
:103260007725006E026A040E02220301781D036EA8
:10327000032A00C0E9FF02C0EAFF03C0EFFF030119
:10328000772B77C375F303016F6B01C0E6F0E4CFD2
:1032900003F0E4CF02F0E4CF01F0E4CF00F012003D
:1032A000D9CFE5FFE1CFD9FF00C0E5FF01C0E5FFC1
:1032B00002C0E5FF03C0E5FF04C0E5FF05C0E5FF70
:1032C000020EDBCF00F09488820E016E0F0E026EAC
:1032D0000F0E046E380E0126045002220F0E046EEB
:1032E000800E015E0450025A820E036E0F0E046EB1
:1032F0000F0E056E380E0326055004220F0E056EC4
:10330000800E035E0550045A03C0E9FF04C0EAFFC3
:10331000EFCF03F0039801C0E9FF02C0EAFF03C04A
:10332000EFFF9486820E016E0F0E026E0F0E046E7A
:10333000380E0126045002220F0E046E800E015E2C
:103340000450025A820E036E0F0E046E0F0E056EAD
:10335000380E0326055004220F0E056E800E035E04
:103360000550045A03C0E9FF04C0EAFFEFCF03F0A1
:10337000039601C0E9FF02C0EAFF03C0EFFF360E6B
:10338000C66E0044FE0BC86E9F969E969D860301F6
:10339000806B0301816BE4CF05F0E4CF04F0E4CF50
:1033A00003F0E4CF02F0E4CF01F0E4CF00F0E4CF8B
:1033B000D9FF1200D9CFE5FFE1CFD9FF00C0E5FF6B
:1033C00001C0E5FF02C0E5FF03C0E5FF04C0E5FF63
:1033D00005C0E5FF06C0E5FF020EDBCF00F0030EDF
:1033E000DBCF01F0040EDBCF02F0050EDBCF03F0E4
:1033F00003C004F0056A0350D8B453D000C0E9FFFD
:1034000001C0F3FF025014EC26F0066E430A03E1FC
:10341000010E056E038E0406002A02E3014A022A09
:103420009D9AAB9894909D989EA8FED7AC80AD6A6B
:1034300000009EA8FED7AC9003C0ADFF00009EA880
:10344000FED7055005E0420EAD6E0324056E05D093
:10345000620EAD6E620E0324056E04C003F00350CD
:1034600015E000009EA8FED700C0E9FF01C0F3FFF1
:10347000025014EC26F0046E04C0ADFF0450052683
:103480000306002A02E3014A022AE9D700009EA8A7
:10349000FED7051CAD6EAD2A00009EA8FED752ECEB
:1034A00026F0E4CF06F0E4CF05F0E4CF04F0E4CF5B
:1034B00003F0E4CF02F0E4CF01F0E4CF00F0E4CF7A
:1034C000D9FF120000C0E5FF01C0E5FF02C0E5FF23
:1034D00003C0E5FF04C0E5FF006A6C0E0024016E26
:1034E000026A030E022201C0E9FF02C0EAFFEF6A8E
:1034F000002A020E005CF1E3006A0050020DF45055
:10350000026EF3CF01F0390E0124036E040E022087
:10351000046E03C0E9FF04C0EAFFEE6AEF6A590EC9
:103520000124036E040E0220046E03C0E9FF04C0F0
:10353000EAFFEE6AEF6A930E0124036E040E022086
:10354000046E03C0E9FF04C0EAFFEE6AEF6AB30E3F
:103550000124036E040E0220046E03C0E9FF04C0C0
:10356000EAFFEE6AEF6AD30E0126040E022201C0C2
:10357000E9FF02C0EAFFEE687F0EEF6E230E002423
:10358000016E026A040E022201C0E9FF02C0EAFFD6
:10359000EF68002A100E005CD8A0AFD7AF0EC06E47
:1035A000C16A010EC26EC282E4CF04F0E4CF03F020
:1035B000E4CF02F0E4CF01F0E4CF00F012004320AA
:1035C000412025642025640A0000D9CFE5FFE1CF22
:1035D000D9FF00C0E5FF01C0E5FF02C0E5FF03C061
:1035E000E5FF04C0E5FF05C0E5FF06C0E5FF07C035
:1035F000E5FF020EDBCF00F0030EDBCF01F0040E7F
:10360000DBCF02F0050EDBCF03F0E6C0E7F00001F0
:10361000E5510001E75FE751046E0404E76F03C062
:1036200004F0056A030E0426D8B0052AE7C006F0A8
:10363000076A0750800FF36E0550800FF35C02E1BC
:103640000450065C02E2E8682ED0020E035C02E23F
:10365000E86A29D003060350E56EBBEC21F0E65280
:10366000046A0350045C14E204500024056EE86A06
:103670000120066EE86A022005C0E9FF06C0F3FFDC
:1036800014EC26F0042AE56EBBEC21F0E652E9D7F3
:10369000E6C0E7F00001E5510001E75FE751006E89
:1036A0000004E76FE86AE4CF07F0E4CF06F0E4CF68
:1036B00005F0E4CF04F0E4CF03F0E4CF02F0E4CF70
:1036C00001F0E4CF00F0E4CFD9FF1200D9CFE5FF3D
:1036D000E1CFD9FF00C0E5FF01C0E5FF02C0E5FF73
:1036E00003C0E5FF04C0E5FF05C0E5FF020EDBCF28
:1036F00000F0030EDBCF01F0040EDBCF02F0005030
:10370000020DF450036EF3CF00F0590E0024046E46
:10371000040E0320056E04C0E9FF05C0EAFF01C0E6
:10372000EEFF02C0EFFF930E0024046E040E032090
:10373000056E04C0E9FF05C0EAFFEECF04F0EFCF4D
:1037400005F00150045C016E02500558026E000E37
:103750000026030E032200C0E9FF03C0EAFF01C0F8
:10376000EEFF02C0EFFFD88002AED89004E3021E45
:10377000016CD8B4022A0250800F800F02E1030EC0
:10378000015C02E2016A026A0150021007E100C016
:10379000E9FF03C0EAFF000EEE6AEF6AE4CF05F02E
:1037A000E4CF04F0E4CF03F0E4CF02F0E4CF01F083
:1037B000E4CF00F0E4CFD9FF1200D9CFE5FFE1CF8D
:1037C000D9FF00C0E5FF01C0E5FF02C0E5FF03C06F
:1037D000E5FF04C0E5FF05C0E5FF06C0E5FF020EFA
:1037E000DBCF00F0030EDBCF01F0040EDBCF02F0E5
:1037F000050EDBCF03F0D88001AED890046A043602
:10380000045007E0011C066E001C056E054A062ADE
:1038100004D000C005F001C006F0D88003AED890F7
:1038200007E3031C016E021C006E004A012A04D04B
:1038300002C000F003C001F00150E56E0050E56EDB
:103840000650E56E0550E56EECEC1DF0006EF3CF12
:1038500001F0040EE12604500AE0011C036E001C76
:10386000026E024A032A03C0F3FF025003D001C0D4
:10387000F3FF0050E4CF06F0E4CF05F0E4CF04F00E
:10388000E4CF03F0E4CF02F0E4CF01F0E4CF00F0A6
:10389000E4CFD9FF1200D9CFE5FFE1CFD9FF00C0B7
:1038A000E5FF01C0E5FF02C0E5FF03C0E5FF04C07E
:1038B000E5FF05C0E5FF020EDBCF00F0030EDBCF16
:1038C00001F0040EDBCF02F0050EDBCF03F06AC37C
:1038D00004F06BC305F003016A3F01D06B2B03506A
:1038E000E56E0450E56E2BEC23F0E652E6526AC317
:1038F00004F06BC305F003016A3F01D06B2B02504B
:10390000056EE56E0450E56E2BEC23F0E652E652B0
:103910006AC304F06BC305F003016A3F01D06B2B4F
:103920000150E56E0450E56E2BEC23F0E652E652B2
:103930006AC304F06BC305F003016A3F01D06B2B2F
:103940000050E56E0450E56E2BEC23F0E652E65293
:10395000E4CF05F0E4CF04F0E4CF03F0E4CF02F0CD
:10396000E4CF01F0E4CF00F0E4CFD9FF1200D9CFCB
:10397000E5FFE1CFD9FF00C0E5FF01C0E5FF02C0D0
:10398000E5FF03C0E5FF04C0E5FF05C0E5FF06C095
:10399000E5FF020EDBCF00F0030EDBCF01F00038B5
:1039A000E8441F0B026E036A6C0E0226030E03220C
:1039B00002C0E9FF03C0EAFFEFCF04F00050056E3C
:1039C000070E0516010E066E05500DE006E6E86CC2
:1039D000D8900636010FFDE306D0D89006BED880F9
:1039E0000632010FFBE30450061202C0E9FF03C0D8
:1039F000EAFF06C0EFFF230E0024026E036A0F0EDB
:103A0000032202C0E9FF03C0EAFF01C0EFFF016A21
:103A1000230E0026040E012200C0E9FF01C0EAFFC8
:103A2000FF0EEF68E4CF06F0E4CF05F0E4CF04F03A
:103A3000E4CF03F0E4CF02F0E4CF01F0E4CF00F0F4
:103A4000E4CFD9FF1200D9CFE5FFE1CFD9FF00C005
:103A5000E5FF01C0E5FF02C0E5FF03C0E5FF04C0CC
:103A6000E5FF05C0E5FF06C0E5FF020EDBCF00F075
:103A7000030EDBCF01F0040EDBCF02F003016E5129
:103A800019E120EC17F0036EF3CF04F0F4CF05F04A
:103A9000E9CF06F003C0E5FF04C0F4FF05C0F6FF60
:103AA00006C0F7FF00C0E9FF01C0F3FF025003ECBE
:103AB00026F01ED003016E51010A1AE100C0E9FF91
:103AC00001C0F3FF025065EC24F0006EF3CF01F06B
:103AD000F4CF02F0E9CF03F00350E56E0250E56E3B
:103AE0000150E56E0050E56E4BEC1CF0040EE12633
:103AF000E4CF06F0E4CF05F0E4CF04F0E4CF03F028
:103B0000E4CF02F0E4CF01F0E4CF00F0E4CFD9FF3E
:103B10001200D9CFE5FFE1CFD9FF00C0E5FF01C01A
:103B2000E5FF02C0E5FF03C0E5FF04C0E5FF05C0F7
:103B3000E5FF06C0E5FF020EDBCF00F0030EDBCF92
:103B400001F0040EDBCF02F0050EDBCF03F0060E12
:103B5000DBCF04F0070EDBCF05F0080EDBCF06F05D
:103B6000D88003AED89015E306500A0A12E104C0CB
:103B7000E9FF05C0EAFF2D0EEF6E044A052A031E79
:103B8000021E011E006C05E1012A03E1022AD8B4DD
:103B9000032A0650E56E0550E56E0450E56E0350AD
:103BA000E56E0250E56E0150E56E0050E56EE2EC08
:103BB00013F0070EE126E4CF06F0E4CF05F0E4CFE2
:103BC00004F0E4CF03F0E4CF02F0E4CF01F0E4CF5F
:103BD00000F0E4CFD9FF1200D9CFE5FFE1CFD9FF44
:103BE00000C0E5FF01C0E5FF02C0E5FF03C0E5FF3F
:103BF00004C0E5FF05C0E5FF06C0E5FF020EDBCF10
:103C000000F0030EDBCF01F0040EDBCF02F0050E57
:103C1000DBCF03F0046A056A0350800BE844066EAC
:103C2000065011E10250022603360350015C02E106
:103C30000250005C04E2D8900332023204D0052A1C
:103C400005C004F0E9D70350015C02E10250005CBA
:103C500004E30250005E0350015AD890033202324E
:103C600004C005F004060550EEE101C0F3FF00506A
:103C7000E4CF06F0E4CF05F0E4CF04F0E4CF03F0A6
:103C8000E4CF02F0E4CF01F0E4CF00F0E4CFD9FFBD
:103C9000120000C0E5FF01C0E5FF02C0E5FF03C060
:103CA000E5FFADEC17F0A9EC09F001EC23F0006E94
:103CB000F3CF01F0F4CF02F0E9CF03F00401335168
:103CC000005E3451015A3551025A3651035A039E4F
:103CD0003F0E035C08E1FF0E025C05E1FF0E015C94
:103CE00002E1FF0E005C25E201EC23F0F3CF01F0CE
:103CF000F4CF02F0E9CF03F0880F0401336F130E05
:103D00000120346F000E0220356F000E0320366F45
:103D100041EC24F048EC0EF00401372B3751140A23
:103D200008E10401376B03012C51006E002A00509A
:103D30002C6FE4CF03F0E4CF02F0E4CF01F0E4CF46
:103D400000F0120000C0E5FF01C0E5FF02C0E5FF82
:103D500003C0E5FF74C300F0016A7FC302F0036A89
:103D60000250005E0350015AE56A800EE56E015074
:103D7000E56E0050E56EDDEC1BF0006E040EE126F2
:103D800000067FC301F0430ED1EC22F0200ED1ECEF
:103D900022F0005020E0600E0124026E036A000E43
:103DA000032202C0E9FF03C0EAFFEFCF02F0E56A99
:103DB0000250E56E000EE56E4C0EE56EBC0EE56E33
:103DC000FFEC20F0050EE126012A0150800A01E1F6
:103DD000016A0006DED7E4CF03F0E4CF02F0E4CFBF
:103DE00001F0E4CF00F01200D8CFE5FFE0CFE5FF0F
:103DF000E56EF3CFE5FFF4CFE5FFE9CFE5FFEACFCE
:103E0000E5FFFACFE5FFFBCFE5FF00C0E5FF01C00E
:103E1000E5FF0001E3510F01356F0001E4510F018F
:103E2000366FD650336FD750346FF2A417D0E3C03B
:103E300000F0E4C001F00050010F0001E36F000E3C
:103E40000120E46FF294E3510F01356F0001E4515A
:103E50000F01366FD650336FD750346FE4CF01F077
:103E6000E4CF00F0E4CFFBFFE4CFFAFFE4CFEAFFBA
:103E7000E4CFE9FFE4CFF4FFE4CFF3FFE450E4CF75
:103E8000E0FFE4CFD8FF1000D9CFE5FFE1CFD9FFA5
:103E900000C0E5FF01C0E5FF02C0E5FF03C0E5FF8C
:103EA00004C0E5FF020EDBCF00F0030EDBCF01F014
:103EB000040EDBCF02F003016E5111E16CEC22F035
:103EC000036EF3CF04F003C0E5FF04C0F4FF00C0AD
:103ED000E9FF01C0F3FF02506EEC26F016D003019B
:103EE0006E51010A12E100C0E9FF01C0F3FF025068
:103EF0009EEC25F0006EF3CF01F00150E56E00500E
:103F0000E56E7EEC21F0E652E652E4CF04F0E4CF19
:103F100003F0E4CF02F0E4CF01F0E4CF00F0E4CF0F
:103F2000D9FF1200920EF66E4D0EF76E000EF86E6F
:103F30000900F550056E0900F550066E04E10567AD
:103F400002D0DFEF1FF00900F550006E0900F550B8
:103F5000016E0900F550026E09000900F550E96E86
:103F60000900F550EA6E090009000900F550036EDA
:103F70000900F550046E09000900F6CF07F0F7CFED
:103F800008F0F8CF09F000C0F6FF01C0F7FF02C04B
:103F9000F8FF035002E1045007E00900F550EE6E0F
:103FA0000306F8E20406F9D707C0F6FF08C0F7FFDA
:103FB00009C0F8FF050601E206069EEF1FF0120099
:103FC00000C0E5FF01C0E5FF02C0E5FF03C0E5FF5B
:103FD00055EC23F0006E010A20E155EC23F0016E50
:103FE000200E0124026E036A030E032202C0E9FFC1
:103FF00003C0EAFFEFCF02F0E56A0250E56EE56A22
:104000000150E56E000EE56E0D0EE56EE40EE56EF8
:10401000FFEC20F0070EE12614D00050020A11E157
:1040200055EC23F0006E55EC23F0016E026A200E71
:104030000026030E022200C0E9FF02C0EAFF01C011
:10404000EFFFE4CF03F0E4CF02F0E4CF01F0E4CFE0
:1040500000F01200D9CFE5FFE1CFD9FF00C0E5FFA6
:1040600001C0E5FF02C0E5FF03C0E5FF04C0E5FFB6
:10407000020EDBCF00F00038E8441F0B016E026A2D
:104080006C0E0126030E022201C0E9FF02C0EAFF06
:10409000EFCF03F0070E0016010E046E00500DE086
:1040A00006E6E86CD8900436010FFDE306D0D89000
:1040B00004BED8800432010FFBE3041C006E0350E1
:1040C000001601C0E9FF02C0EAFF00C0EFFFE4CF25
:1040D00004F0E4CF03F0E4CF02F0E4CF01F0E4CF4A
:1040E00000F0E4CFD9FF1200D9CFE5FFE1CFD9FF2F
:1040F00000C0E5FF01C0E5FF02C0E5FF03C0E5FF2A
:1041000004C0E5FF05C0E5FF020EDBCF00F0005064
:10411000010A22E1016A0150020DF450036EF3CF4F
:1041200002F0B30E0224046E040E0320056E04C0D8
:10413000E9FF05C0EAFFEE687F0EEF6ED30E0226A0
:10414000040E032202C0E9FF03C0EAFFEE6AEF6A31
:10415000012A100E015CDFE300C0EBF0E4CF05F0B4
:10416000E4CF04F0E4CF03F0E4CF02F0E4CF01F0B9
:10417000E4CF00F0E4CFD9FF120000C0E5FF01C09A
:10418000E5FF02C0E5FF55EC23F0006E55EC23F08F
:10419000016ED00E00260A0E005C05E30050026E90
:1041A000F90E0224006ED00E01260A0E015C05E312
:1041B0000150026EF90E0224016E080E005C03E24B
:1041C000100E015CD8B014D00038F00B0124006E42
:1041D000016A32EC22F0026E025002E0010E016E22
:1041E0000150010A05E00050E56E14EC25F0E6529E
:1041F000E4CF02F0E4CF01F0E4CF00F01200D9CF19
:10420000E5FFE1CFD9FF00C0E5FF01C0E5FF02C037
:10421000E5FF020ED924006E000EDA20016E800E3A
:10422000026E030E0026000E012202220250E56EED
:104230000150E56E0050E56E040EDBCFE5FF030E86
:10424000DBCFE5FF020EDBCFE5FF04017F51E56E1A
:104250007E51E56E7D51E56E0EEC00F0006EF3CF01
:1042600001F0090EE12601C0F3FF0050E4CF02F097
:10427000E4CF01F0E4CF00F0E4CFD9FF1200D9CFB2
:10428000E5FFE1CFD9FF00C0E5FF01C0E5FF02C0B7
:10429000E5FF03C0E5FF020EDBCF00F0030EDBCF2E
:1042A00001F0040EDBCF02F003016E510DE172EC60
:1042B00025F0036E03C0E5FF00C0E9FF01C0F3FF76
:1042C00002509CEC26F00FD003016E51010A0BE165
:1042D00000C0E9FF01C0F3FF025014EC26F0E56EC8
:1042E0001BEC24F0E652E4CF03F0E4CF02F0E4CF7D
:1042F00001F0E4CF00F0E4CFD9FF1200D9CFE5FF01
:10430000E1CFD9FF00C0E5FF01C0E5FF02C0E5FF36
:1043100003C0E5FF020EDBCF00F0030EDBCF01F0A0
:104320006AC302F06BC303F003016A3F01D06B2B39
:104330000150E56E0250E56E2BEC23F0E652E6529A
:104340006AC302F06BC303F003016A3F01D06B2B19
:104350000050E56E0250E56E2BEC23F0E652E6527B
:10436000E4CF03F0E4CF02F0E4CF01F0E4CF00F0BB
:10437000E4CFD9FF1200D9CFE5FFE1CFD9FF00C0CC
:10438000E5FF01C0E5FF02C0E5FF03C0E5FF04C093
:10439000E5FF020EDBCF00F0E5C001F0026A014A42
:1043A000022AE6C003F0046A0150031803E1025038
:1043B000041801E001D00ED0000E0001E525016EC9
:1043C000026A010E022201C0E9FF02C0EAFF00C03A
:1043D000EFFFE52BE4CF04F0E4CF03F0E4CF02F0ED
:1043E000E4CF01F0E4CF00F0E4CFD9FF1200D9CF41
:1043F000E5FFE1CFD9FF00C0E5FF01C0E5FF02C046
:10440000E5FF03C0E5FF020EDBCF00F0016A7FC3CA
:1044100002F0036A0250002603500122E56A800E72
:10442000E56E0150E56E0050E56EDDEC1BF0006EB0
:10443000F3CF01F0040EE126600E0026000E0122EB
:1044400000C0E9FF01C0EAFFEFCF00F00050E4CF69
:1044500003F0E4CF02F0E4CF01F0E4CF00F0E4CFCA
:10446000D9FF120000C0E5FF01C0E5FF02C0E5FF73
:10447000010E006E55EC23F0016E01C002F00150F8
:1044800023E00050E56E44EC26F0016EE652015048
:1044900010E10A0E005C0BE20A0E006EE56E44ECC1
:1044A00026F0016EE652015004E1E8680ED0E8689B
:1044B0000CD00150021802E0E86807D0002A1B0E59
:1044C000005CD8E3E86801D0E86AE4CF02F0E4CF0A
:1044D00001F0E4CF00F0120000C0E5FF01C0E5FFED
:1044E00002C0E5FF03C0E5FF6AC300F06BC301F043
:1044F00003016A3F01D06B2B0050E56E44EC26F0BF
:10450000E652036E026A6AC300F06BC301F0030156
:104510006A3F01D06B2B0050E56E44EC26F0E6526A
:10452000016A02120150031203C0F3FF0250E4CFEC
:1045300003F0E4CF02F0E4CF01F0E4CF00F012008A
:104540000001E56B0001E66B0001E76994808B9048
:104550009480B06A3F0EAF6EB886AC8AAC84AC8CE7
:10456000AC90AB8CAB8E0301766B0301706B0301D7
:10457000736B0301746B0301756B000EE56A44EC09
:1045800026F00001E96FE6529F989F9A010E000104
:10459000E86F04017D6B7E6B2F0E7F6F52EC26F06F
:1045A000120000C0E5FF01C0E5FF02C0E5FF006E9C
:1045B000000E0001EA25016E026A0F0E022201C000
:1045C000E9FF02C0EAFF00C0EFFF220EEA5DD8A0BB
:1045D000EA2B00500A0A0EE10001EA51E56E800E56
:1045E000E56E0F0EE56E000EE56EE5EC1AF0040EBA
:1045F000E126EA6BE4CF02F0E4CF01F0E4CF00F073
:1046000012000001E35104017B6F0001E451040139
:104610007C6FD650796FD7507A6F7B510001E319C8
:1046200005E104017C510001E4190CE00001E351B3
:1046300004017B6F0001E45104017C6FD650796F57
:10464000D7507A6F7CC4E9FF7BC4F4FF7AC4F3FFD0
:10465000040179511200D9CFE5FFE1CFD9FF00C0A5
:10466000E5FF01C0E5FF020EDBCF00F0030EDBCF5C
:1046700001F0F29EF29C01C0A8FF00C0A9FFA69E17
:10468000A69CA684550EA76EAA0EA76EA682F28ED1
:10469000F28CA694A6A202D00000FCD7E4CF01F0D1
:1046A000E4CF00F0E4CFD9FF120000C0E5FF01C065
:1046B000E5FF0301745103017D1905E00301745105
:1046C0000301731902E1E86A15D074C300F0030115
:1046D000742B016A600E0026000E012200C0E9FF63
:1046E00001C0EAFFEFCF00F07451800A02E103013C
:1046F000746B0050E4CF01F0E4CF00F01200D8CF8B
:10470000E5FFE0CFE5FFE56EF3CFE5FFF4CFE5FF92
:10471000E9CFE5FFEACFE5FFFACFE5FFFBCFE5FF05
:10472000B7EC11F0DCEC26F0E4CFFBFFE4CFFAFFAE
:10473000E4CFEAFFE4CFE9FFE4CFF4FFE4CFF3FFF7
:10474000E450E4CFE0FFE4CFD8FF100000C0E5FF65
:10475000D9EC26F00401896B806B8983006A89B3E8
:10476000002A0050010BE844F46E8051FD0BF41058
:10477000806FD58ED59CD59AD588D596D594D5827F
:10478000D580F28AF184D08EF28EF28CBA80FF0E40
:10479000BB68BA84E4CF00F01200D9CFE5FFE1CFC7
:1047A000D9FF00C0E5FF01C0E5FF020EDBCF00F03E
:1047B0000050020DF450016EF3CF00F0000E002601
:1047C000030E012200C0E9FF01C0EAFFEECF00F0B6
:1047D000EFCF01F001C0F3FF0050E4CF01F0E4CFD0
:1047E00000F0E4CFD9FF1200D9CFE5FFE1CFD9FF28
:1047F00000C0E5FF01C0E5FF020EDBCF00F0005076
:10480000020DF450016EF3CF00F0390E0026040EB5
:10481000012200C0E9FF01C0EAFFEECF00F0EFCFB8
:1048200001F001C0F3FF0050E4CF01F0E4CF00F04D
:10483000E4CFD9FF1200D9CFE5FFE1CFD9FF00C007
:10484000E5FF01C0E5FF02C0E5FF020EDBCF00F08F
:104850006AC301F06BC302F003016A3F01D06B2B06
:104860000050E56E0150E56E2BEC23F0E652E65267
:10487000E4CF02F0E4CF01F0E4CF00F0E4CFD9FFC1
:10488000120000C0E5FF006A03012A51FF0A01E19E
:10489000002A0001E151001815E000C0E1F000011C
:1048A000E1510EE0C66A9B9C0001E051E56E50ECC0
:1048B00019F0E652000EE56A88EC25F0E65202D0C7
:1048C0000EEC04F0E4CF00F01200E8AE0AD0F3CF13
:1048D000EAFFEE50EECFF3FFEECFF4FFEECFE9FFAD
:1048E0001200E8BCEFEF26F0E9CFF6FFF3CFF7FFB9
:1048F000F86E0900F5500900F5CFF3FF0900F5CF78
:10490000F4FF0900F5CFE9FF120000C0E5FF01C088
:10491000E5FF0001E5510001E61902E1E86A0FD068
:10492000000E0001E625006E016A010E012200C0A2
:10493000E9FF01C0EAFFEFCF00F0E62B0050E4CF23
:1049400001F0E4CF00F01200F2CFEAFFF29EA69E43
:10495000A69CA684E9CFA9FFF3CFAAFFE4CFA8FFC6
:10496000B1EC26F0F4CFA8FFB1EC26F0F6CFA8FF0B
:10497000B1EC26F0F7CFA8FFB1EC26F0A694EABE82
:10498000F28E1200F2CFF6FFF29EA69EA69CE9CF11
:10499000A9FFF3CFAAFFA680A850A94AAA2AA680F9
:1049A000A8CFF3FFA94AAA2AA680A8CFF4FFA94A54
:1049B000AA2AA680A8CFEAFFF6BEF28E1200E8AEC1
:1049C00008D0F3CFEAFFEE50EECFF3FFEECFF4FFC7
:1049D0001200E8BCF7EF26F0E9CFF6FFF3CFF7FFC0
:1049E000F86E0900F5500900F5CFF3FF0900F5CF87
:1049F000F4FF1200F2CFEAFFF29EA69EA69CA684C8
:104A0000E9CFA9FFF3CFAAFFE4CFA8FFB1EC26F0CE
:104A1000F4CFA8FFB1EC26F0F6CFA8FFB1EC26F05A
:104A2000A694EABEF28E1200D9CFE5FFE1CFD9FFFE
:104A300000C0E5FF020EDBCF00F000C0E9F000503F
:104A4000E56E000EE56A2BEC23F0E652E652E4CF69
:104A500000F0E4CFD9FF1200F2CFF6FFF29EA69E3F
:104A6000A69CE9CFA9FFF3CFAAFFA680A850A94A28
:104A7000AA2AA680A8CFF3FFA94AAA2AA680A8CF6F
:104A8000F4FFF6BEF28E120000C0E5FF01C0E5FFA4
:104A9000600E03017425006E016A000E012200C041
:104AA000E9FF01C0EAFFEFCF00F00050E4CF01F0D2
:104AB000E4CF00F01200D9CFE5FFE1CFD9FF00C06D
:104AC000E5FF020EDBCF00F0610E005C05E37B0E1C
:104AD000005C02E2010E01D0E86AE4CF00F0E4CF0E
:104AE000D9FF120000C0E5FF01C0E5FF6AC300F076
:104AF0006BC301F003016A3F01D06B2B0050E56EE0
:104B000044EC26F0E652E4CF01F0E4CF00F01200CE
:104B1000D9CFE5FFE1CFD9FF00C0E5FF020EDBCF23
:104B200000F000C0E8F0005004E152EC26F09D9A3D
:104B30009D98E4CF00F0E4CFD9FF1200E8AE06D094
:104B4000F3CFEAFFEE50EECFF3FF1200E8BCEDEF3B
:104B500026F0E9CFF6FFF3CFF7FFF86E0900F55026
:104B60000900F5CFF3FF1200F2CFEAFFF29EA69EF6
:104B7000A69CA684E9CFA9FFF3CFAAFFE4CFA8FFA4
:104B8000B1EC26F0F4CFA8FFB1EC26F0A694EABE73
:104B9000F28E120012EEFFF022EEFFF0F86AA68EFF
:104BA000A69CE9680E0EEA6E0068000EED6A0050E1
:104BB000FDE192EC1FF006EC00F0FFD7F2CFF6FF1C
:104BC000F29EA69EA69CE9CFA9FFF3CFAAFFA680DE
:104BD000A850A94AAA2AA680A8CFF3FFF6BEF28E53
:104BE0001200F2CFEAFFF29EA69EA69CA684E9CF11
:104BF000A9FFF3CFAAFFE4CFA8FFB1EC26F0A6945B
:104C0000EABEF28E1200E8AE0BD0F3CFEAFFE4CF9B
:104C1000EEFFF4CFEEFFF6CFEEFFF7CFEEFF120080
:104C2000E8BCF1EF26F01200E8AE04D0F3CFEAFFC3
:104C3000EE501200E8BCEBEF26F0E9CFF6FFF3CF21
:104C4000F7FFF86E0900F550120010000000000098
:104C500000FF00000000070002000000420000000A
:104C600000000000000000000000E8AE09D0F3CF13
:104C7000EAFFE4CFEEFFF4CFEEFFF6CFEEFF120037
:104C8000E8BCF9EF26F01200D9CFE5FFE1CFD9FF5C
:104C9000020EDBCFA9FFA69CA69EA680A850E4CF5B
:104CA000D9FF1200ACA2FED79480AE500000AE50E7
:104CB000AB98AB88AB869D8A9D9812002564200036
:104CC000F2CFF6FFF29EA69EA69CE9CFA9FFF3CFF6
:104CD000AAFFA680A850F6BEF28E1200E8AE07D05A
:104CE000F3CFEAFFE4CFEEFFF4CFEEFF1200E8BC13
:104CF000F5EF26F01200700ED36E9B8CFF0E9268BB
:104D0000936894689668626AF19E120000C0E5FF9D
:104D100032EC22F0006E005001E1FF00E4CF00F021
:104D200012000F01456B900E0F01446F030E0F012F
:104D3000436F0F01458F1200E8AE05D0F3CFEAFFB5
:104D4000E4CFEEFF1200E8BCF3EF26F01200D9CF5B
:104D5000E5FFE1CFD9FF020EDBCFEEF0E4CFD9FFC4
:104D60001200550EA76EAA0EA76EA682A6B2FED797
:104D7000A94AAA2A010E03016E6F1C0E03016A6F75
:104D80006B6B120003016E6B1C0E03016A6F6B6B81
:104D9000120001004A4C0000E0000000200000006A
:104DA000A6EC23F0A0EC22F01200ACA2FED7AD6E70
:104DB00012007BEC26F01200BEEC14F0120003018E
:104DC0007451120003017E5112000001E8511200DB
:104DD000E8CF7FFF120060EF26F0DEEF25F0C2EF94
:104DE00024F0A4EF24F0F1EF25F0B4EF25F02CEF40
:064DF00025F0FAEF24F0AB
:020000040030CA
:010006008574
:00000001FF
