:020000040000FA
:10000000D7EF1EF0C96E1200E5EF17F0B6EC08F05E
:10001000DEEC0EF0FDD712004DEF1DF0D9CFE5FF5D
:10002000E1CFD9FF00C0E5FF01C0E5FF02C0E5FF59
:1000300003C0E5FF04C0E5FF05C0E5FF06C0E5FF1E
:1000400007C0E5FF08C0E5FF09C0E5FF0AC0E5FFFE
:100050000BC0E5FF0CC0E5FF0DC0E5FF0EC0E5FFDE
:100060000FC0E5FF10C0E5FF11C0E5FF12C0E5FFBE
:1000700013C0E5FF14C0E5FF15C0E5FF16C0E5FF9E
:1000800017C0E5FF18C0E5FF19C0E5FF1AC0E5FF7E
:100090001BC0E5FF1CC0E5FF1DC0E5FF1EC0E5FF5E
:1000A000020EDBCF00F0030EDBCF01F0040EDBCF3E
:1000B00002F0050EDBCF03F0060EDBCF04F0070ED7
:1000C000DBCF05F0080EDBCF06F0090EDBCF07F023
:1000D0000A0EDBCF08F0096A0A6A02C00DF00D5063
:1000E000800A0DE102500301466F0150456F005038
:1000F000446F030E016E440E006E800E026E03C04C
:10010000E9FF04C0F3FF055021EC1FF00B6E0B500C
:10011000D8B4C4EF03F00B50250A02E0ABEF03F0B4
:100120000C6A0D6A0E6A0F6A106A0A0E116E126A64
:10013000136A146A200E156E1668176A2B0E186E55
:10014000032A02E3044A052A03C0E9FF04C0F3FFBF
:10015000055021EC1FF0196E250A13E11950E56EC8
:100160000250E56E0150E56E0050E56EB0EC11F006
:10017000040EE126094A0A2A032A02E3044A052A50
:10018000BED71950300A06E1300E156E032A02E37D
:10019000044A052A03C0E9FF04C0F3FF055021EC1F
:1001A0001FF02D0A06E1010E146E032A02E3044A31
:1001B000052A03C0E9FF04C0F3FF055021EC1FF03E
:1001C000200A08E1010E176E200E186E032A02E3C2
:1001D000044A052A03C0E9FF04C0F3FF055021ECDF
:1001E0001FF02B0A06E1010E176E032A02E3044AF0
:1001F000052A03C0E9FF04C0F3FF055021EC1FF0FE
:10020000196E310E195C2BE33A0E195C28E203C01B
:1002100019F004C01AF005C01BF019C0E9FF1AC09C
:10022000F3FF1B5021EC1FF01C6E300E1C5C11E321
:100230003A0E1C5C0EE213500A0DF3CF1DF01C5059
:100240001D26D00E1D24136E192A02E31A4A1B2AFA
:10025000E4D719C003F01AC004F01BC005F003C0B6
:10026000E9FF04C0F3FF055021EC1FF02E0A2DE139
:10027000032A02E3044A052A166A03C019F004C0DF
:100280001AF005C01BF019C0E9FF1AC0F3FF1B509C
:1002900021EC1FF01C6E300E1C5C11E33A0E1C5C4E
:1002A0000EE216500A0DF3CF1DF01C501D26D00E85
:1002B0001D24166E192A02E31A4A1B2AE4D719C014
:1002C00003F01AC004F01BC005F003C0E9FF04C02E
:1002D000F3FF055021EC1FF0196E6C0A07E1010EC7
:1002E0000C6E032A02E3044A052A09D01950680A51
:1002F00006E1010E0E6E032A02E3044A052A03C03A
:10030000E9FF04C0F3FF055021EC1FF0750A06E178
:10031000010E106E032A02E3044A052A03C0E9FF16
:1003200004C0F3FF055021EC1FF0196E730A05E1BC
:10033000010E0D6E200E156E3FD01950780A03E1A4
:10034000100E116E39D01950580A05E1100E116EB9
:10035000010E126E31D01950630A02E1116A2CD0DD
:1003600019506F0A03E1080E116E26D01950660A63
:1003700003E1010E0F6E20D01950640A1DE01950E0
:10038000690A1AE0105005E0FF0E03260422052238
:1003900013D01950E56E0250E56E0150E56E005025
:1003A000E56EB0EC11F0040EE126094A0A2A032A90
:1003B00002E3044A052AA3D60D5021E00650030F9C
:1003C0000D6E000E0720196E000E08201A6E0DC06B
:1003D00006F019C007F01AC008F0FD0E0D26FF0E3A
:1003E00019221A220DC0E9FF19C0F3FF1A50ECECD4
:1003F0001DF00D6EF3CF19F0F4CF1AF0FDD00F50B1
:100400000DE0000E1A6E080E196E100E0D6E040E21
:100410000626000E072208221668EED016680C5039
:1004200023E00650040F0C6E000E07200F6E000E26
:1004300008201B6E0CC006F00FC007F01BC008F0B0
:10044000FC0E0C26FF0E0F221B220CC0E9FF0FC072
:10045000F3FF1B5072EC1DF00C6EF3CF0FF0F4CFD6
:100460001BF0E9CF1CF067D00E502FE00650020FB2
:100470000E6E000E07201D6E000E08201E6E0EC0B0
:1004800006F01DC007F01EC008F0FE0E0E26FF0E7F
:100490001D221E220EC0E9FF1DC0F3FF1E50ABEC53
:1004A0001EF00E6E0EC00CF00F6A1B6A1C6A115013
:1004B0000A0A03E11050D8B43ED00C500E6E0EC0A4
:1004C0000CF00F6A1B6A1C6A36D00650020F0E6EC3
:1004D000000E07201D6E000E08201E6E0EC006F0D6
:1004E0001DC007F01EC008F0FE0E0E26FF0E1D22D6
:1004F0001E220EC0E9FF1DC0F3FF1E50ABEC1EF024
:100500000E6EF3CF1DF00EC00CF01DC00FF0E86AA8
:100510001DBEFF0E1B6E1C6E11500A0A02E1105028
:100520000AE00C500E6E0F501D6E0EC00CF01DC078
:100530000FF01B6A1C6A040E196EF40E0D6E800E0D
:100540001A6E1150D8B440D0105013E01150E56E1F
:10055000040EE56EF40EE56E1C50E56E1B50E56E64
:100560000F50E56E0C50E56E65EC0DF0070EE126C0
:1005700012D01150E56E040EE56EF40EE56E1C50BF
:10058000E56E1B50E56E0F50E56E0C50E56E75EC98
:1005900016F0070EE12617502FE00DC0E9FF19C035
:1005A000F3FF1A5021EC1FF02D0A26E0FF0E0D2656
:1005B00019221A2218C0E5FF0DC0E9FF19C0F3FF88
:1005C0001A50A8EC1FF018D00CC0E5FF0DC0E9FFD1
:1005D00019C0F3FF1A50A8EC1FF00D50010F0C6E5C
:1005E000000E19200E6E000E1A20E56A0CC0E9FFFD
:1005F0000EC0F3FFA8EC1FF00DC00CF019C00EF0F8
:100600001AC00FF013C010F0105010E00CC0E9FF3A
:100610000EC0F3FF0F5021EC1FF0176E175006E0CD
:100620000C2A02E30E4A0F2A1006EED710C013F070
:1006300014501EE109C00CF00AC00EF010C00FF0FB
:100640000F5010E01550E56E0250E56E0150E56E5A
:100650000050E56EB0EC11F0040EE1260C4A0E2AB3
:100660000F06EED70CC009F00EC00AF00FC013F051
:1006700016C00CF00DC00DF019C00EF01AC00FF02E
:1006800009C010F00AC015F00DC0E9FF0EC0F3FF5D
:100690000F5021EC1FF0166E1650D8B43ED00CC08F
:1006A00016F0176A161E171E1650171005E00CC01C
:1006B00016F00C06165031E00DC0E9FF0EC0F3FF36
:1006C0000F5021EC1FF0116E125010E01150E56E2A
:1006D00068EC1EF0166EE652165004E0DF0E1114A0
:1006E000166E02D011C016F016C011F01150E56E52
:1006F0000250E56E0150E56E0050E56EB0EC11F071
:10070000040EE1260D2A02E30E4A0F2A104A152A8A
:100710001350D8B4B9D71306B7D710C009F015C015
:100720000AF014502BE010C00CF015C00DF013C0EF
:100730000EF00E501FE0200EE56E0250E56E0150E7
:10074000E56E0050E56EB0EC11F0040EE1260C4AA7
:100750000D2A0E06EED70B50E56E0250E56E0150E5
:10076000E56E0050E56EB0EC11F0040EE126094A8A
:100770000A2A04D00CC009F00DC00AF0032A02E3D3
:10078000044A052A7FEF00F00AC0F3FF0950E4CFC6
:100790001EF0E4CF1DF0E4CF1CF0E4CF1BF0E4CF5B
:1007A0001AF0E4CF19F0E4CF18F0E4CF17F0E4CF5B
:1007B00016F0E4CF15F0E4CF14F0E4CF13F0E4CF5B
:1007C00012F0E4CF11F0E4CF10F0E4CF0FF0E4CF5B
:1007D0000EF0E4CF0DF0E4CF0CF0E4CF0BF0E4CF5B
:1007E0000AF0E4CF09F0E4CF08F0E4CF07F0E4CF5B
:1007F00006F0E4CF05F0E4CF04F0E4CF03F0E4CF5B
:1008000002F0E4CF01F0E4CF00F0E4CFD9FF120012
:100810003C4E4F20464C4F41543E000000C0E5FF87
:1008200001C0E5FF02C0E5FF03C0E5FF04C0E5FF2E
:1008300005C0E5FF06C0E5FF07C0E5FF08C0E5FF0E
:10084000C2A204D003012C5159EF06F003012D512F
:10085000D8B438D103012C51020DF450016EF3CFFE
:1008600000F0E00E0026000E012200C0E9FF01C0EA
:10087000EAFFEECF00F0EFCF01F0230E2C25026E41
:10088000036A040E032202C0E9FF03C0EAFFEFCFB0
:1008900002F00250FF0A01E16DD009C0E5FFF2CF7E
:1008A00009F0F29E02380F0B046E920E0424056EBE
:1008B000066A0F0E0622076A920E04260F0E072202
:1008C00004C0E9FF07C0EAFFEFCF04F00250076E53
:1008D000070E0716010E086E07500DE006E6E86CDD
:1008E000D8900836010FFDE306D0D89008BED88016
:1008F0000832010FFBE3081C076E0450071605C001
:10090000E9FF06C0EAFF07C0EFFF02380F0B046ED5
:10091000890E0424056E066A0F0E0622076A890EE8
:1009200004260F0E072204C0E9FF07C0EAFFEFCF3D
:1009300004F0070E0216010E076E02500DE006E6E7
:10094000E86CD8900736010FFDE306D0D89007BEBB
:10095000D8800732010FFBE3071C026E0450021619
:1009600005C0E9FF06C0EAFF02C0EFFF09BEF28E34
:10097000E4CF09F003012C51020DF450036EF3CFC4
:1009800002F0E00E0226000E032200380F0B046E68
:100990000138056EF00B051A042605320432F80EF4
:1009A00005B405260450005C046E05500158056E20
:1009B000C3CF00F0016A0050042601500522C4CFC5
:1009C00000F0016A0050076E066A065004260750C0
:1009D000052202C0E9FF03C0EAFF04C0EEFF05C024
:1009E000EFFF03012851010A01E06AD003012C51F5
:1009F000020DF450016EF3CF00F0E00E0024026E01
:100A0000000E0120036E02C0E9FF03C0EAFFEECF33
:100A100002F0EFCF03F0930E0026040E012200C077
:100A2000E9FF01C0EAFFEECF04F0EFCF05F09C0E26
:100A30000426D8A005060350800FF36E0550800FE2
:100A4000F35C02E10450025C0EE20250640F046E9B
:100A5000000E0320056E00C0E9FF01C0EAFF04C0DC
:100A6000EEFF05C0EFFF03012C51020DF450016EA3
:100A7000F3CF00F0B30E0026040E012200C0E9FF00
:100A800001C0EAFFEECF04F0EFCF05F0640E0426BC
:100A9000D8B0052A0550800FF36E0350800FF35C29
:100AA00002E10250045C0CE29C0E0226D8A0030670
:100AB00000C0E9FF01C0EAFF02C0EEFF03C0EFFF84
:100AC00003012D6B03012C2B100E2C5DD8B02C6B69
:100AD0002C39E8441F0B006E016A4B0E0026030EF2
:100AE000012200C0E9FF01C0EAFFEFCF00F02CC3F4
:100AF00001F0070E0116010E026E000E036E01508A
:100B000006E0E86CD89002360336010FFCE3046A75
:100B1000005002160450031602500310D880E866F5
:100B2000D890026A02360250D8A4C1D0230E030125
:100B30002C25006E016A0F0E012200C0E9FF01C0E2
:100B4000EAFFEFCF00F00044E844FC0B016E0128FF
:100B5000C26E2C51E56E35EC18F0E652230E2C25B2
:100B6000006E016A040E012200C0E9FF01C0EAFF25
:100B7000EFCF00F00050FF0A01E195D009C0E5FF7A
:100B8000F2CF09F0F29E00380F0B026E920E022493
:100B9000036E046A0F0E0422056A920E02260F0EDF
:100BA000052202C0E9FF05C0EAFFEFCF02F00050C6
:100BB000056E070E0516010E066E05500DE006E6E1
:100BC000E86CD8900636010FFDE306D0D89006BE3B
:100BD000D8800632010FFBE30250061203C0E9FF82
:100BE00004C0EAFF06C0EFFF09BEF28EE4CF09F0B1
:100BF000380E016E0F0E026E00380F0B036E046A82
:100C00000350012604500222380E056E0F0E066EA8
:100C1000055003260650042203C0E9FF04C0EAFF82
:100C2000EFCF03F0070E0016010E046E00500DE02A
:100C300006E6E86CD8900436010FFDE306D0D890A4
:100C400004BED8800432010FFBE30350041201C03C
:100C5000E9FF02C0EAFF04C0EFFF0F014583000077
:100C6000000045930F01449309C0E5FFF2CF09F05E
:100C7000F29E44810000000000000000000000001F
:100C80000000000000000000000000000000000064
:100C9000000000000000000000000000449109BEB8
:100CA000F28EE4CF09F0C282010E03012D6F030121
:100CB0002C51E4CF08F0E4CF07F0E4CF06F0E4CF06
:100CC00005F0E4CF04F0E4CF03F0E4CF02F0E4CF8A
:100CD00001F0E4CF00F0120000C0E5FF01C0E5FF25
:100CE00002C0E5FF03C0E5FF04C0E5FF05C0E5FF66
:100CF00006C0E5FF07C0E5FF08C0E5FF09C0E5FF46
:100D00000AC0E5FF0BC0E5FF0CC0E5FF006A016A01
:100D1000026A040E025CD8B0EBD1100E015CD8B0B0
:100D2000E7D1012A03012E2B100E2E5DD8B02E6BB9
:100D30002E39E8441F0B036E046A4B0E0326030E84
:100D4000042203C0E9FF04C0EAFFEFCF03F02EC383
:100D500004F0070E0416010E056E000E066E045018
:100D600006E0E86CD89005360636010FFCE3076A0A
:100D7000035005160750061605500610D880E86681
:100D8000D890056A05360550D8A4C3D703012E5163
:100D9000020DF450046EF3CF03F0E00E0324056E51
:100DA000000E0420066E05C0E9FF06C0EAFFEECF84
:100DB00005F0EFCF06F02BC307F007A09DD0930EF0
:100DC0000324076E040E0420086E07C0E9FF08C064
:100DD000EAFFEECF07F0EFCF08F00650800FF36E7A
:100DE0000850800FF35C02E10750055C03E2056ADE
:100DF000066A60D0B30E0326040E042203C0E9FF86
:100E000004C0EAFFEECF03F0EFCF04F00450800FF0
:100E1000F36E0650800FF35C02E10550035C04E2C0
:100E200005683F0E066E46D00750055C096E0850F7
:100E300006580A6EE86A0ABEFF0E0B6EE56E0B508E
:100E4000E56E0A50E56E0950E56EE56AE56A400E0A
:100E5000E56E000EE56A5BEC0CF0096EF3CF0AF06C
:100E6000F4CF0BF0E9CF0CF0080EE1260750035C3D
:100E7000076E08500458086EE86A08BEFF0E036E3D
:100E8000E56E0350E56E0850E56E0750E56E0C50B8
:100E9000E56E0B50E56E0A50E56E0950E56E06EC06
:100EA00010F0036EF3CF04F0080EE1260350056E38
:100EB0000450066E03012A51800FF36E0650800F16
:100EC000F35C02E10550295D03E3056A066A14D06C
:100ED00003012951FF08036E3F0E2A55046E065088
:100EE000800FF36E0450800FF35C02E10350055C49
:100EF00003E305683F0E066E03012E51020DF45008
:100F0000046EF3CF03F0590E0326040E042203C02F
:100F1000E9FF04C0EAFFEECF03F0EFCF04F0035087
:100F2000055C036E04500658046ED88004AED89059
:100F300004E3041E036CD8B4042A022A03012A51D4
:100F4000800FF36E0450800FF35C02E10350295DC3
:100F5000D8B0DFD603012E51020DF450046EF3CF4A
:100F600003F0590E0326040E042203C0E9FF04C057
:100F7000EAFF05C0EEFF06C0EFFF2BC303F003A49A
:100F800059D02E51020DF450046EF3CF03F0D30E5E
:100F90000324076E040E0420086E07C0E9FF08C092
:100FA000EAFFEECF09F0EFCF0AF009500A10D8B4EB
:100FB00041D0390E0326040E042203C0E9FF04C009
:100FC000EAFFEECF03F0EFCF04F00350055C036EB1
:100FD00004500658046E03101CE00450800F800F6C
:100FE00002E1010E035C0B6A0B360A50800F800F82
:100FF00002E1010E095C096A09360B50091809E182
:1010000007C0E9FF08C0EAFF03C0EEFF04C0EFFF1E
:1010100080D603012E51020DF450046EF3CF03F07D
:10102000D30E0326040E042203C0E9FF04C0EAFF26
:10103000EE6AEF6A2BC303F003A246D000500EE124
:1010400000C003F0002A046A2F0E0326030E0422B8
:1010500003C0E9FF04C0EAFF420EEF6E00C003F0D8
:101060000028046E076A2F0E0326030E07220301D1
:101070002E51086E640E082603C0E9FF07C0EAFF80
:1010800008C0EFFF04C003F0042A076A2F0E0326EE
:10109000030E07220650086E03C0E9FF07C0EAFFEF
:1010A00008C0EFFF04C003F00428006E046A2F0E8E
:1010B0000326030E04220550076E03C0E9FF04C097
:1010C000EAFF07C0EFFF25D62EC303F00650E56EFA
:1010D0000550E56EE56A0350E56E000EE56E270EDD
:1010E000E56E960EE56EF5EC19F0070EE12611D6C9
:1010F00002C001F000501EE02BC302F002A21AD081
:1011000000C002F0002A036A2F0E0226030E0322FB
:1011100002C0E9FF03C0EAFF0A0EEF6E0050E56E61
:10112000800EE56E030EE56E2F0EE56ED1EC13F02A
:10113000040EE1260150E4CF0CF0E4CF0BF0E4CF35
:101140000AF0E4CF09F0E4CF08F0E4CF07F0E4CFF1
:1011500006F0E4CF05F0E4CF04F0E4CF03F0E4CFF1
:1011600002F0E4CF01F0E4CF00F0120000C0E5FF90
:1011700001C0E5FF02C0E5FF03C0E5FF04C0E5FFD5
:10118000E3EC1FF094928B9234EC1CF0F3CF01F05F
:10119000F4CF02F0E9CF03F0880F0401336F130E90
:1011A0000120346F000E0220356F000E0320366FD1
:1011B0004EEC13F09DEC1FF09280800E006E0F0E2F
:1011C000016E0F0E036E380E002603500122800EB2
:1011D000026E0F0E036E800E005E0350015A0F0E5A
:1011E000046E380E0226045003220F0E046E800E89
:1011F000025E0450035A02C0E9FF03C0EAFFEFCFCA
:1012000002F0028000C0E9FF01C0EAFF02C0EFFF68
:10121000000EE56AE56AA3EC15F0E652E65292820A
:10122000800E006E0F0E016E0F0E036E380E00263C
:1012300003500122800E026E0F0E036E800E005EC0
:101240000350015A0F0E046E380E0226045003227A
:101250000F0E046E800E025E0450035A02C0E9FFB6
:1012600003C0EAFFEFCF02F0028200C0E9FF01C035
:10127000EAFF02C0EFFF010EE56EE56EA3EC15F08C
:10128000E652E6529284800E006E0F0E016E0F0E33
:10129000036E380E002603500122800E026E0F0EE0
:1012A000036E800E005E0350015A0F0E046E380E5E
:1012B0000226045003220F0E046E800E025E0450BC
:1012C000035A02C0E9FF03C0EAFFEFCF02F0028435
:1012D00000C0E9FF01C0EAFF02C0EFFF020EE56EA9
:1012E000E56EA3EC15F0E652E652030EE56E800EB5
:1012F000E56E0F0EE56E820EE56E0F0EE56E030EC7
:10130000E56E73EC0FF0060EE1269384810E006EFD
:101310000F0E016E0F0E036E380E002603500122D1
:101320000F0E036E800E005E0350015A810E026E96
:101330000F0E036E0F0E046E380E022604500322A9
:101340000F0E046E800E025E0450035A02C0E9FFC5
:1013500003C0EAFFEFCF02F0029400C0E9FF01C032
:10136000EAFF02C0EFFF9386810E006E0F0E016E42
:101370000F0E036E380E0026035001220F0E036E6F
:10138000800E005E0350015A810E026E0F0E036E36
:101390000F0E046E380E0226045003220F0E046E48
:1013A000800E025E0450035A02C0E9FF03C0EAFF48
:1013B000EFCF02F0029600C0E9FF01C0EAFF02C0D1
:1013C000EFFF94948B84E4CF04F0E4CF03F0E4CFF8
:1013D00002F0E4CF01F0E4CF00F0120043692025D1
:1013E000640A000043532025640A0000430025637B
:1013F0000000800EE56E040EE56EB30EE56E84EC23
:1014000018F0030EE126800EE56E040EE56E930ED5
:10141000E56E84EC18F0030EE126800EE56E040EF6
:10142000E56EB50EE56E84EC18F0030EE126800E35
:10143000E56E040EE56E950EE56E84EC18F0030E75
:10144000E126800EE56E040EE56EB70EE56E84ECC7
:1014500018F0030EE126800EE56E040EE56E970E81
:10146000E56E84EC18F0030EE126800EE56E040EA6
:10147000E56EB90EE56E84EC18F0030EE126800EE1
:10148000E56E040EE56E990EE56E84EC18F0030E21
:10149000E126800EE56E040EE56EBB0EE56E84EC73
:1014A00018F0030EE126800EE56E040EE56E9B0E2D
:1014B000E56E84EC18F0030EE126800EE56E040E56
:1014C000E56EBD0EE56E84EC18F0030EE126800E8D
:1014D000E56E040EE56E9D0EE56E84EC18F0030ECD
:1014E000E126800EE56E040EE56EBF0EE56E84EC1F
:1014F00018F0030EE126800EE56E040EE56E9F0ED9
:10150000E56E84EC18F0030EE126800EE56E040E05
:10151000E56EC10EE56E84EC18F0030EE126800E38
:10152000E56E040EE56EA10EE56E84EC18F0030E78
:10153000E126800EE56E040EE56EC30EE56E84ECCA
:1015400018F0030EE126800EE56E040EE56EA30E84
:10155000E56E84EC18F0030EE126800EE56E040EB5
:10156000E56EC50EE56E84EC18F0030EE126800EE4
:10157000E56E040EE56EA50EE56E84EC18F0030E24
:10158000E126800EE56E040EE56EC70EE56E84EC76
:1015900018F0030EE126800EE56E040EE56EA70E30
:1015A000E56E84EC18F0030EE126800EE56E040E65
:1015B000E56EC90EE56E84EC18F0030EE126800E90
:1015C000E56E040EE56EA90EE56E84EC18F0030ED0
:1015D000E126800EE56E040EE56ECB0EE56E84EC22
:1015E00018F0030EE126800EE56E040EE56EAB0EDC
:1015F000E56E84EC18F0030EE126800EE56E040E15
:10160000E56ECD0EE56E84EC18F0030EE126800E3B
:10161000E56E040EE56EAD0EE56E84EC18F0030E7B
:10162000E126800EE56E040EE56ECF0EE56E84ECCD
:1016300018F0030EE126800EE56E040EE56EAF0E87
:10164000E56E84EC18F0030EE126800EE56E040EC4
:10165000E56ED10EE56E84EC18F0030EE126800EE7
:10166000E56E040EE56EB10EE56E84EC18F0030E27
:10167000E126120000C0E5FF01C0E5FF02C0E5FF62
:1016800003C0E5FF03012551D8B40CD19DA81DD09E
:101690009EA81BD0030158510301561905E15EECC9
:1016A0001FF00301566BFED0000E03015825006E9B
:1016B000016A040E012200C0E9FF01C0EAFFEFCF7A
:1016C00052F3582B52C3ADFFEDD09DAAEBD09EAA8A
:1016D000E9D0ABA205D0030157815EEC1FF0E2D048
:1016E000ABA405D0030157835EEC1FF0DBD0ABA0A9
:1016F00048D0AECF52F326C300F0016A008E52C329
:1017000002F0036A0250001803E10350011801E0DF
:1017100004D003015789AB96C5D00301525104E0B0
:1017200052510301261929E103015799AB96030190
:10173000525103E00301579702D00301578752C368
:101740005BF354C35CF303015451006E00040301C6
:101750005D6F600E03015C25006E016A000E0122C0
:1017600000C0E9FF01C0EAFF52C3EFFF5C2B5C51F0
:10177000800A02E103015C6B95D003015799AB86A7
:1017800091D0AECF52F3030157A921D026C300F068
:10179000016A008E52C302F0036A0250001803E18E
:1017A0000350011801E011D09D9AAB989490030169
:1017B000565104E1AD6A5EEC1FF007D000C4ADFFE6
:1017C000010E0301586F9D886DD0AB866BD003016D
:1017D000525103015B2703015C5103015D191BE1B9
:1017E00003015B510CE15CC354F3030157B712D002
:1017F0009D9AAB989490AD6A5EEC1FF00BD00301FC
:10180000578557B707D09D9AAB989490010EAD6E4F
:101810005EEC1FF047D003015C510301551908E14C
:10182000030155510301541903E05EEC1FF03AD057
:1018300054C300F0016A004A012AE56A800EE56E91
:101840000150E56E0050E56EC9EC14F0006E040E18
:10185000E12600500301536F03015C190FE152C3ED
:1018600000F01F0E001403015D6F006E020E0024D5
:101870005D6F0301545103015D275D9F5CC300F060
:1018800003015C2B016A600E0026000E012200C0DD
:10189000E9FF01C0EAFF52C3EFFF5C51800A02E199
:1018A00003015C6BE4CF03F0E4CF02F0E4CF01F07E
:1018B000E4CF00F01200D9CFE5FFE1CFD9FF00C09F
:1018C000E5FF01C0E5FF02C0E5FF03C0E5FF04C07E
:1018D000E5FF05C0E5FF06C0E5FF07C0E5FF020E16
:1018E000DBCF00F0030EDBCF01F0040EDBCF02F004
:1018F000050EDBCF03F0060EDBCF04F0070EDBCFC7
:1019000005F0080EDBCF06F0090EDBCF07F0005024
:101910000401816F0150826F0250836F0350846F06
:1019200004500401856F0550866F0650876F07507D
:10193000886F0401815104018703F4CF01F0F3CFD4
:1019400000F0005004018C6F01508D6F0401815133
:1019500004018503F4CF01F0F3CF00F0005004013F
:101960008A6F01508B6F0401845104018503F3CF0A
:1019700000F004018D51002600508D6F0401835149
:1019800004018603F3CF01F001500026005004014A
:101990008D6F0401835104018503F4CF01F0F3CF6F
:1019A00000F004018C5100268D51012200508C6FF3
:1019B00001508D6F0401825104018603F4CF03F0BE
:1019C000F3CF02F002500026035001220050040120
:1019D0008C6F01508D6F0401825104018703F3CF96
:1019E00000F000500401916F04018251040185034D
:1019F000F4CF01F0F3CF00F0005004018F6F0150DD
:101A0000906F0401815104018803F3CF00F000506E
:101A10000301406F0401815104018603F4CF01F0FA
:101A2000F3CF00F0005003013E6F01503F6F0401FF
:101A30008E6B03013D6B04018E5104018A25006EFB
:101A400004018F5104018B21016E040190510401A6
:101A50008C21026E0401915104018D21036E00500E
:101A60008A6F01508B6F02508C6F03508D6F030192
:101A70003D5104018A25006E03013E5104018B2172
:101A8000016E03013F5104018C21026E030140519C
:101A900004018D21036E03C0E9FF02C0F4FF01C001
:101AA000F3FF0050E4CF07F0E4CF06F0E4CF05F0F9
:101AB000E4CF04F0E4CF03F0E4CF02F0E4CF01F090
:101AC000E4CF00F0E4CFD9FF1200D9CFE5FFE1CF9A
:101AD000D9FF00C0E5FF01C0E5FF02C0E5FF03C07C
:101AE000E5FF04C0E5FF05C0E5FF06C0E5FF07C050
:101AF000E5FF08C0E5FF09C0E5FF0AC0E5FF0BC030
:101B0000E5FF0CC0E5FF0DC0E5FF0EC0E5FF0FC00F
:101B1000E5FF020EDBCF00F0030EDBCF01F0040E79
:101B2000DBCF02F0050EDBCF03F0060EDBCF04F0B7
:101B3000070EDBCF05F0080EDBCF06F0200E076E98
:101B4000086A06C009F00A6A0B6A0C6AE56AE56A67
:101B5000E56A0950E56E0350E56E0250E56E0150EE
:101B6000E56E0050E56E41EC0EF00D6E080EE126BC
:101B7000300E0D263A0E0D5C05E30D500E6E270E4D
:101B80000E240D6EFF0E07260822000E07240E6E8F
:101B9000030E08200F6E0EC0E9FF0FC0EAFF0DC054
:101BA000EFFF0C50E56E0B50E56E0A50E56E0950E4
:101BB000E56E0350E56E0250E56E0150E56E005093
:101BC000E56E06EC10F0006EF3CF01F0F4CF02F0FA
:101BD000E9CF03F0080EE1260050011002100310B7
:101BE000D8A4AFD707C000F008C001F004C002F0CD
:101BF00005C003F000C004F001C005F0004A012A4E
:101C0000000E0426030E052204C0E9FF05C0EAFF0A
:101C1000EFCF04F002C0E9FF03C0EAFF04C0EFFF0A
:101C2000024A032A000E015C02E1200E005CE2E39E
:101C300002C0E9FF03C0EAFF000EEF6AE4CF0FF035
:101C4000E4CF0EF0E4CF0DF0E4CF0CF0E4CF0BF0D6
:101C5000E4CF0AF0E4CF09F0E4CF08F0E4CF07F0D6
:101C6000E4CF06F0E4CF05F0E4CF04F0E4CF03F0D6
:101C7000E4CF02F0E4CF01F0E4CF00F0E4CFD9FFED
:101C80001200D9CFE5FFE1CFD9FF00C0E5FF01C0C9
:101C9000E5FF02C0E5FF03C0E5FF04C0E5FF05C0A6
:101CA000E5FF06C0E5FF07C0E5FF08C0E5FF09C086
:101CB000E5FF0AC0E5FF020EDBCF00F0030EDBCF2D
:101CC00001F0040EDBCF02F0050EDBCF03F0060EB1
:101CD000DBCF04F0070EDBCF05F0080EDBCF06F0FC
:101CE000090EDBCF07F0086A045005100610071034
:101CF00005E1E968F468F368E86847D0096A0750C5
:101D0000800BE8440A6E0A501BE104500426053695
:101D1000063607360750035C08E10650025C05E111
:101D20000550015C02E10450005C06E2D8900732E5
:101D300006320532043204D0092A09C008F0DFD780
:101D40000750035C08E10650025C05E10550015CA8
:101D500002E10450005C08E30450005E0550015AA3
:101D60000650025A0750035AD890073206320532FD
:101D7000043208C009F008060950E2E103C0E9FF97
:101D800002C0F4FF01C0F3FF0050E4CF0AF0E4CF3B
:101D900009F0E4CF08F0E4CF07F0E4CF06F0E4CF99
:101DA00005F0E4CF04F0E4CF03F0E4CF02F0E4CF99
:101DB00001F0E4CF00F0E4CFD9FF120000C0E5FF4E
:101DC00001C0E5FF02C0E5FF03C0E5FF04C0E5FF79
:101DD00023EC11F00EEC04F0D8EC16F0CEEC1FF072
:101DE00034EC1CF0006EF3CF01F0F4CF02F0E9CF39
:101DF00003F004013351005E3451015A3551025A47
:101E00003651035A039E3F0E035C08E1FF0E025C4D
:101E100005E1FF0E015C02E1FF0E005CD8B058D076
:101E200034EC1CF0F3CF01F0F4CF02F0E9CF03F073
:101E3000200F0401336F4E0E0120346F000E02207C
:101E4000356F000E0320366F6CEC06F0030148512D
:101E5000E56E4751E56E000EE56E130EE56EE40E7D
:101E6000E56EF5EC19F0050EE126476B0301486BB2
:101E700094948B849484820E006E0F0E016E0F0E6C
:101E8000036E380E0026035001220F0E036E800EE3
:101E9000005E0350015A820E026E0F0E036E0F0E8B
:101EA000046E380E0226045003220F0E046E800EBC
:101EB000025E0450035A02C0E9FF03C0EAFFEFCFFD
:101EC00002F0029400C0E9FF01C0EAFF02C0EFFF88
:101ED000E4CF04F0E4CF03F0E4CF02F0E4CF01F06C
:101EE000E4CF00F01200D9CFE5FFE1CFD9FF00C069
:101EF000E5FF01C0E5FF02C0E5FF03C0E5FF04C048
:101F0000E5FF05C0E5FF06C0E5FF07C0E5FF08C027
:101F1000E5FF09C0E5FF0AC0E5FF020EDBCF00F0D8
:101F2000030EDBCF01F0040EDBCF02F0050EDBCF9A
:101F300003F0060EDBCF04F0070EDBCF05F0003810
:101F4000E8441F0B066E076A4B0E0626030E072297
:101F500006C0E9FF07C0EAFFEFCF08F00050096EA6
:101F6000070E0916010E0A6E09500DE006E6E86C30
:101F7000D8900A36010FFDE306D0D8900ABED8806B
:101F80000A32010FFBE308500A1206C0E9FF07C03E
:101F9000EAFF0AC0EFFF230E0024066E076A0F0E49
:101FA000072206C0E9FF07C0EAFF01C0EFFF016A90
:101FB000230E0026040E0122800E025E070E02167A
:101FC0000238F00B036E070E05160550032600C0FD
:101FD000E9FF01C0EAFF03C0EFFFE4CF0AF0E4CF5E
:101FE00009F0E4CF08F0E4CF07F0E4CF06F0E4CF47
:101FF00005F0E4CF04F0E4CF03F0E4CF02F0E4CF47
:1020000001F0E4CF00F0E4CFD9FF1200D9CFE5FF13
:10201000E1CFD9FF00C0E5FF01C0E5FF02C0E5FF49
:1020200003C0E5FF04C0E5FF05C0E5FF06C0E5FF0E
:1020300007C0E5FF08C0E5FF09C0E5FF0AC0E5FFEE
:102040000BC0E5FF0CC0E5FF0DC0E5FF020EDBCFC6
:1020500000F0030EDBCF01F0040EDBCF02F0050E23
:10206000DBCF03F0060EDBCF04F0070EDBCF05F06D
:10207000080EDBCF06F0090EDBCF07F0086A096A0D
:102080000A6A0B6A200E0C6E0350800BE8440D6E3A
:10209000005000260136023603360850082609365D
:1020A0000A360B360D50D8A4088007500B5C08E1A7
:1020B00006500A5C05E10550095C02E10450085C29
:1020C00009E30450085E0550095A06500A5A0750A1
:1020D0000B5A00800C040D6E0DC00CF00D50D4E1B5
:1020E00003C0E9FF02C0F4FF01C0F3FF0050E4CFDA
:1020F0000DF0E4CF0CF0E4CF0BF0E4CF0AF0E4CF26
:1021000009F0E4CF08F0E4CF07F0E4CF06F0E4CF25
:1021100005F0E4CF04F0E4CF03F0E4CF02F0E4CF25
:1021200001F0E4CF00F0E4CFD9FF120000C0E5FFDA
:1021300001C0E5FF03C0E5FF04C0E5FF05C0E5FF02
:1021400006C0E5FF07C0E5FF08C0E5FF09C0E5FFE1
:102150000AC0E5FF0BC0E5FF49C300F04AC301F028
:102160000301493F01D04A2B0050E56E50EC1FF0AF
:10217000E652076E046A056A066A49C300F04AC35C
:1021800001F00301493F01D04A2B0050E56E50ECAD
:102190001FF0E6520B6A0A6E086A08500412051214
:1021A0000A5006120B50071249C300F04AC301F04F
:1021B0000301493F01D04A2B0050E56E50EC1FF05F
:1021C000E652036E006A03C001F0E86A03BEFF0E28
:1021D000086E096E005004120150051208500612D4
:1021E0000950071249C300F04AC301F00301493FF7
:1021F00001D04A2B0050E56E50EC1FF0E652016A08
:102200000412015005120612071207C0E9FF06C0AA
:10221000F4FF05C0F3FF0450E4CF0BF0E4CF0AF065
:10222000E4CF09F0E4CF08F0E4CF07F0E4CF06F004
:10223000E4CF05F0E4CF04F0E4CF03F0E4CF01F005
:10224000E4CF00F0120000C0E5FF01C0E5FF02C0CE
:10225000E5FF03C0E5FF030155510301541901E1F6
:1022600063D055C300F0002A009E016A600E00266C
:10227000000E012200C0E9FF01C0EAFFEFCF5FF3CB
:102280001F0E03015F1755C35EF35F5103015E2705
:102290005E51006E020E00245E6F5E9F88EC1CF0A3
:1022A000006E005003E1006A002A01D0006A88EC49
:1022B0001CF003015F6F5FC301F0800E01165FC366
:1022C00002F01F0E021602C003F002C05FF30350BB
:1022D00003E154C355F33BD000501EE0015022E00F
:1022E00088EC1CF0006E03015F51026E02045F6F08
:1022F0000050420A17E000504E0A03E1B3EC19F017
:1023000011D00050460A03E192EC1FF00BD00050B0
:10231000490A08E1FF0006D055C360F30150D8A474
:1023200074EC1AF05EC355F3030122510301231923
:1023300006E00301565103E13CEC12F008D094B0E2
:1023400006D00301565103E1ACB25EEC1FF0E4CFBE
:1023500003F0E4CF02F0E4CF01F0E4CF00F012008C
:10236000D9CFE5FFE1CFD9FF00C0E5FF01C0E5FF10
:1023700002C0E5FF03C0E5FF04C0E5FF05C0E5FFBF
:1023800006C0E5FF07C0E5FF020EDBCF00F0030E3D
:10239000DBCF01F0040EDBCF02F0050EDBCF03F044
:1023A00002C006F00650046E800A33E100C0E9FF67
:1023B00001C0F3FF0250ECEC1DF0056EF3CF06F008
:1023C000F4CF07F003C0E5FF05C0E9FF06C0F3FF47
:1023D0000750A8EC1FF000C0E9FF01C0F3FF025056
:1023E000ECEC1DF0056EF3CF06F0F4CF07F0052AF4
:1023F00002E3064A072A05C0E5FF06C0F4FF07C04E
:10240000F6FF00C0E9FF01C0F3FF025041EC1FF0EE
:1024100020D004C000F000AA1CD0007A0050046E46
:1024200004E10350E8EC1FF014D00450010A04E169
:10243000035002EC00F00DD004500F0A04E10350E9
:1024400004EC1CF006D004500E0A03E10350F8EC33
:102450001FF0E4CF07F0E4CF06F0E4CF05F0E4CFBF
:1024600004F0E4CF03F0E4CF02F0E4CF01F0E4CFD6
:1024700000F0E4CFD9FF120000C0E5FF01C0E5FF86
:1024800002C0E5FF03C0E5FFACA277D092EC1DF0DF
:10249000006E005005E10301236B0301226B6DD038
:1024A00023C301F00050012692EC1DF0026E0006DD
:1024B0000250230A1FE1010E005CD8A05CD092EC10
:1024C0001DF0036E690A03E1D3EC1BF054D00350F6
:1024D000720A03E15EEC1FF04ED00350730A01E074
:1024E0004AD09480AB869D8A9D98AE50AE50AB98F2
:1024F000AB8841D00250430A05E00250420A01E095
:102500003AD001D0008E0301586B00C059F300503F
:102510000401006F0301582B03012351011814E03B
:1025200092EC1DF0006E03015927000E030158259F
:10253000026E036A040E032202C0E9FF03C0EAFF31
:1025400000C0EFFF582BE8D7000E03015825006E9E
:10255000026A040E02220301591D036E032A00C001
:10256000E9FF02C0EAFF03C0EFFF0301582B58C385
:1025700056F30301506B01C023F3E4CF03F0E4CF23
:1025800002F0E4CF01F0E4CF00F01200D9CFE5FF74
:10259000E1CFD9FF00C0E5FF01C0E5FF02C0E5FFC4
:1025A00003C0E5FF04C0E5FF05C0E5FF06C0E5FF89
:1025B000020EDBCF00F0030EDBCF01F0040EDBCF09
:1025C00002F0050EDBCF03F003C004F0056A0350F0
:1025D000D8B453D000C0E9FF01C0F3FF025021EC92
:1025E0001FF0066E430A03E1010E056E038E04061A
:1025F000002A02E3014A022A9D9AAB9894909D9882
:102600009EA8FED7AC80AD6A00009EA8FED7AC9015
:1026100003C0ADFF00009EA8FED7055005E0420EA6
:10262000AD6E0324056E05D0620EAD6E620E0324FE
:10263000056E04C003F0035015E000009EA8FED70D
:1026400000C0E9FF01C0F3FF025021EC1FF0046E4F
:1026500004C0ADFF045005260306002A02E3014A28
:10266000022AE9D700009EA8FED7051CAD6EAD2A50
:1026700000009EA8FED75EEC1FF0E4CF06F0E4CF8A
:1026800005F0E4CF04F0E4CF03F0E4CF02F0E4CFB0
:1026900001F0E4CF00F0E4CFD9FF120000C0E5FF65
:1026A00001C0E5FF02C0E5FF03C0E5FF04C0E5FF90
:1026B000006A4B0E0024016E026A030E022201C062
:1026C000E9FF02C0EAFFEF6A002A020E005CF1E3B4
:1026D000006A0050020DF450026EF3CF01F0E00EDC
:1026E0000124036E000E0220046E03C0E9FF04C043
:1026F000EAFFEE6AEF6A390E0124036E040E02202F
:10270000046E03C0E9FF04C0EAFFEE6AEF6A590EE7
:102710000124036E040E0220046E03C0E9FF04C00E
:10272000EAFFEE6AEF6A930E0124036E040E0220A4
:10273000046E03C0E9FF04C0EAFFEE6AEF6AB30E5D
:102740000126040E022201C0E9FF02C0EAFFEE6882
:102750007F0EEF6E230E0024016E026A040E022229
:1027600001C0E9FF02C0EAFFEF68002A100E005C1A
:10277000D8A0AFD7AF0EC06EC16A010EC26EC282C2
:10278000E4CF04F0E4CF03F0E4CF02F0E4CF01F0B3
:10279000E4CF00F012004320412025642025640A84
:1027A0000000D9CFE5FFE1CFD9FF00C0E5FF01C0B0
:1027B000E5FF02C0E5FF03C0E5FF04C0E5FF05C07B
:1027C000E5FF06C0E5FF07C0E5FF020EDBCF00F026
:1027D000030EDBCF01F0040EDBCF02F0050EDBCFE2
:1027E00003F023C324F3030122510301245F245186
:1027F000046E0404246F03C004F0056A030E04266B
:10280000D8B0052A24C306F0076A0750800FF36E7C
:102810000550800FF35C02E10450065C02E2E868B8
:102820002ED0020E035C02E2E86A29D003060350B0
:10283000E56EEEEC1AF0E652046A0350045C14E212
:1028400004500024056EE86A0120066EE86A022042
:1028500005C0E9FF06C0F3FF21EC1FF0042AE56E76
:10286000EEEC1AF0E652E9D723C324F30301225118
:102870000301245F2451006E0004246FE86AE4CF52
:1028800007F0E4CF06F0E4CF05F0E4CF04F0E4CFA6
:1028900003F0E4CF02F0E4CF01F0E4CF00F0E4CFA6
:1028A000D9FF1200D9CFE5FFE1CFD9FF00C0E5FF86
:1028B00001C0E5FF02C0E5FF03C0E5FF04C0E5FF7E
:1028C00005C0E5FF020EDBCF00F0030EDBCF01F009
:1028D000040EDBCF02F00050020DF450036EF3CF74
:1028E00000F0390E0024046E040E0320056E04C0AF
:1028F000E9FF05C0EAFF01C0EEFF02C0EFFF590E7D
:102900000024046E040E0320056E04C0E9FF05C018
:10291000EAFFEECF04F0EFCF05F00150045C016E4A
:1029200002500558026ED30E0026040E032200C08A
:10293000E9FF03C0EAFF01C0EEFF02C0EFFFD8804D
:1029400002AED89004E3021E016CD8B4022A0250F1
:10295000800F800F02E1030E015C02E2016A026A4D
:102960000150021007E100C0E9FF03C0EAFF000EBA
:10297000EE6AEF6AE4CF05F0E4CF04F0E4CF03F0B1
:10298000E4CF02F0E4CF01F0E4CF00F0E4CFD9FFD0
:102990001200D9CFE5FFE1CFD9FF00C0E5FF01C0AC
:1029A000E5FF02C0E5FF03C0E5FF04C0E5FF05C089
:1029B000E5FF06C0E5FF020EDBCF00F0030EDBCF24
:1029C00001F0040EDBCF02F0050EDBCF03F0D88060
:1029D00001AED890046A0436045007E0011C066E6C
:1029E000001C056E054A062A04D000C005F001C08F
:1029F00006F0D88003AED89007E3031C016E021CDA
:102A0000006E004A012A04D002C000F003C001F0A9
:102A10000150E56E0050E56E0650E56E0550E56E1E
:102A200036EC17F0006EF3CF01F0040EE1260450EF
:102A30000AE0011C036E001C026E024A032A03C056
:102A4000F3FF025003D001C0F3FF0050E4CF06F0C3
:102A5000E4CF05F0E4CF04F0E4CF03F0E4CF02F0DC
:102A6000E4CF01F0E4CF00F0E4CFD9FF1200D9CFDA
:102A7000E5FFE1CFD9FF00C0E5FF01C0E5FF02C0DF
:102A8000E5FF03C0E5FF04C0E5FF05C0E5FF020E5A
:102A9000DBCF00F0030EDBCF01F0040EDBCF02F042
:102AA000050EDBCF03F049C304F04AC305F0030170
:102AB000493F01D04A2B0350E56E0450E56E5EECB1
:102AC0001CF0E652E65249C304F04AC305F0030184
:102AD000493F01D04A2B0250056EE56E0450E56E69
:102AE0005EEC1CF0E652E65249C304F04AC305F01E
:102AF0000301493F01D04A2B0150E56E0450E56EB9
:102B00005EEC1CF0E652E65249C304F04AC305F0FD
:102B10000301493F01D04A2B0050E56E0450E56E99
:102B20005EEC1CF0E652E652E4CF05F0E4CF04F090
:102B3000E4CF03F0E4CF02F0E4CF01F0E4CF00F003
:102B4000E4CFD9FF1200D9CFE5FFE1CFD9FF00C014
:102B5000E5FF01C0E5FF02C0E5FF03C0E5FF04C0DB
:102B6000E5FF05C0E5FF06C0E5FF020EDBCF00F084
:102B7000030EDBCF01F00038E8441F0B026E036A3E
:102B80004B0E0226030E032202C0E9FF03C0EAFF38
:102B9000EFCF04F00050056E070E0516010E066E0D
:102BA00005500DE006E6E86CD8900636010FFDE30F
:102BB00006D0D89006BED8800632010FFBE3045041
:102BC000061202C0E9FF03C0EAFF06C0EFFF230EB2
:102BD0000024026E036A0F0E032202C0E9FF03C045
:102BE000EAFF01C0EFFF016A230E0026040E012256
:102BF00000C0E9FF01C0EAFFFF0EEF68E4CF06F076
:102C0000E4CF05F0E4CF04F0E4CF03F0E4CF02F02A
:102C1000E4CF01F0E4CF00F0E4CFD9FF1200D9CF28
:102C2000E5FFE1CFD9FF00C0E5FF01C0E5FF02C02D
:102C3000E5FF03C0E5FF04C0E5FF05C0E5FF06C0F2
:102C4000E5FF020EDBCF00F0030EDBCF01F0040E38
:102C5000DBCF02F003014F5119E196EC10F0036E47
:102C6000F3CF04F0F4CF05F0E9CF06F003C0E5FFA1
:102C700004C0F4FF05C0F6FF06C0F7FF00C0E9FF7F
:102C800001C0F3FF025010EC1FF01ED003014F51A2
:102C9000010A1AE100C0E9FF01C0F3FF025072EC23
:102CA0001DF0006EF3CF01F0F4CF02F0E9CF03F096
:102CB0000350E56E0250E56E0150E56E0050E56E82
:102CC00037EC15F0040EE126E4CF06F0E4CF05F072
:102CD000E4CF04F0E4CF03F0E4CF02F0E4CF01F05E
:102CE000E4CF00F0E4CFD9FF1200D9CFE5FFE1CF68
:102CF000D9FF00C0E5FF01C0E5FF02C0E5FF03C04A
:102D0000E5FF04C0E5FF05C0E5FF06C0E5FF020ED4
:102D1000DBCF00F0030EDBCF01F0040EDBCF02F0BF
:102D2000050EDBCF03F0060EDBCF04F0070EDBCF82
:102D300005F0080EDBCF06F0D88003AED89015E37F
:102D400006500A0A12E104C0E9FF05C0EAFF2D0E91
:102D5000EF6E044A052A031E021E011E006C05E1E7
:102D6000012A03E1022AD8B4032A0650E56E055071
:102D7000E56E0450E56E0350E56E0250E56E0150BD
:102D8000E56E0050E56E65EC0DF0070EE126E4CF30
:102D900006F0E4CF05F0E4CF04F0E4CF03F0E4CF95
:102DA00002F0E4CF01F0E4CF00F0E4CFD9FF12004D
:102DB00000C0E5FF01C0E5FF37C400F0016A81B43F
:102DC000012A03014D51011819E0016A81B4012A59
:102DD00001C04DF303014D5109E003014E5103E0E1
:102DE0000401372B0BD00401370708D003014E51E3
:102DF00003E00401370702D00401372B016A81B6D2
:102E0000012A03014E51011819E0016A81B6012A15
:102E100001C04EF303014E5109E003014D5103E19E
:102E20000401372B0BD00401370708D003014D51A3
:102E300003E10401370702D00401372B04013751A5
:102E400000180FE037C400F0E56A0050E56E000E90
:102E5000E56E130EE56EDC0EE56EF5EC19F0050E71
:102E6000E126E4CF01F0E4CF00F01200D9CFE5FF76
:102E7000E1CFD9FF00C0E5FF01C0E5FF02C0E5FFDB
:102E800003C0E5FF04C0E5FF05C0E5FF06C0E5FFA0
:102E9000020EDBCF00F0030EDBCF01F0040EDBCF20
:102EA00002F0050EDBCF03F0046A056A0350800BC5
:102EB000E844066E065011E1025002260336035024
:102EC000015C02E10250005C04E2D890033202325D
:102ED00004D0052A05C004F0E9D70350015C02E1E3
:102EE0000250005C04E30250005E0350015AD89087
:102EF0000332023204C005F004060550EEE101C0C1
:102F0000F3FF0050E4CF06F0E4CF05F0E4CF04F087
:102F1000E4CF03F0E4CF02F0E4CF01F0E4CF00F01F
:102F2000E4CFD9FF120000C0E5FF01C0E5FF02C0F9
:102F3000E5FF03C0E5FF55C300F0016A60C302F07E
:102F4000036A0250005E0350015AE56A800EE56E86
:102F50000150E56E0050E56EC9EC14F0006E040EF1
:102F6000E126000660C301F0430E04EC1CF0200EC5
:102F700004EC1CF0005020E0600E0124026E036A95
:102F8000000E032202C0E9FF03C0EAFFEFCF02F008
:102F9000E56A0250E56E000EE56E3E0EE56ED40E5B
:102FA000E56EF5EC19F0050EE126012A0150800AC4
:102FB00001E1016A0006DED7E4CF03F0E4CF02F0BE
:102FC000E4CF01F0E4CF00F01200D8CFE5FFE0CF6E
:102FD000E5FFE56EF3CFE5FFF4CFE5FFE9CFE5FFD1
:102FE000EACFE5FFFACFE5FFFBCFE5FF00C0E5FF45
:102FF00001C0E5FF030120510F01356F030121518D
:103000000F01366FD650336FD750346FF2A417D0FC
:1030100020C300F021C301F00050010F0301206F15
:10302000000E0120216FF29420510F01356F030132
:1030300021510F01366FD650336FD750346FE4CF24
:1030400001F0E4CF00F0E4CFFBFFE4CFFAFFE4CFE0
:10305000EAFFE4CFE9FFE4CFF4FFE4CFF3FFE4506D
:10306000E4CFE0FFE4CFD8FF1000D9CFE5FFE1CFF8
:10307000D9FF00C0E5FF01C0E5FF02C0E5FF03C0C6
:10308000E5FF04C0E5FF020EDBCF00F00050020AAE
:103090002EE1898492949284800E006E0F0E016E50
:1030A0000F0E036E380E002603500122800E026EB2
:1030B0000F0E036E800E005E0350015A0F0E046E59
:1030C000380E0226045003220F0E046E800E025E9C
:1030D0000450035A02C0E9FF03C0EAFFEFCF02F039
:1030E000028400C0E9FF01C0EAFF02C0EFFFE4CFA5
:1030F00004F0E4CF03F0E4CF02F0E4CF01F0E4CF3A
:1031000000F0E4CFD9FF1200D9CFE5FFE1CFD9FF1E
:1031100000C0E5FF01C0E5FF02C0E5FF03C0E5FF19
:1031200004C0E5FF020EDBCF00F0030EDBCF01F0A1
:10313000040EDBCF02F003014F5111E19FEC1BF0B5
:10314000036EF3CF04F003C0E5FF04C0F4FF00C03A
:10315000E9FF01C0F3FF02507AEC1FF016D0030123
:103160004F51010A12E100C0E9FF01C0F3FF025014
:10317000ABEC1EF0006EF3CF01F00150E56E005095
:10318000E56EB1EC1AF0E652E652E4CF04F0E4CF7B
:1031900003F0E4CF02F0E4CF01F0E4CF00F0E4CF9D
:1031A000D9FF1200B80EF66E3F0EF76E000EF86EE5
:1031B0000900F550056E0900F550066E04E105673B
:1031C00002D01FEF19F00900F550006E0900F5500C
:1031D000016E0900F550026E09000900F550E96E14
:1031E0000900F550EA6E090009000900F550036E68
:1031F0000900F550046E09000900F6CF07F0F7CF7B
:1032000008F0F8CF09F000C0F6FF01C0F7FF02C0D8
:10321000F8FF035002E1045007E00900F550EE6E9C
:103220000306F8E20406F9D707C0F6FF08C0F7FF67
:1032300009C0F8FF050601E20606DEEF18F01200ED
:10324000D9CFE5FFE1CFD9FF00C0E5FF01C0E5FF21
:1032500002C0E5FF03C0E5FF04C0E5FF020EDBCFBF
:1032600000F00038E8441F0B016E026A4B0E012685
:10327000030E022201C0E9FF02C0EAFFEFCF03F014
:10328000070E0016010E046E00500DE006E6E86C15
:10329000D8900436010FFDE306D0D89004BED88044
:1032A0000432010FFBE3041C006E0350001601C042
:1032B000E9FF02C0EAFF00C0EFFFE4CF04F0E4CF73
:1032C00003F0E4CF02F0E4CF01F0E4CF00F0E4CF6C
:1032D000D9FF1200D9CFE5FFE1CFD9FF00C0E5FF4C
:1032E00001C0E5FF02C0E5FF03C0E5FF04C0E5FF44
:1032F00005C0E5FF020EDBCF00F00050010A22E11D
:10330000016A0150020DF450036EF3CF02F0930EE8
:103310000224046E040E0320056E04C0E9FF05C0FC
:10332000EAFFEE687F0EEF6EB30E0226040E032254
:1033300002C0E9FF03C0EAFFEE6AEF6A012A100E3D
:10334000015CDFE300C028F3E4CF05F0E4CF04F034
:10335000E4CF03F0E4CF02F0E4CF01F0E4CF00F0DB
:10336000E4CFD9FF120000C0E5FF01C0E5FF02C0B5
:10337000E5FF88EC1CF0006E88EC1CF0016ED00EAE
:1033800000260A0E005C05E30050026EF90E0224CE
:10339000006ED00E01260A0E015C05E30150026E9C
:1033A000F90E0224016E080E005C03E2100E015CAF
:1033B000D8B014D00038F00B0124006E016A65EC1F
:1033C0001BF0026E025002E0010E016E0150010A74
:1033D00005E00050E56E21EC1EF0E652E4CF02F06D
:1033E000E4CF01F0E4CF00F01200D9CFE5FFE1CF48
:1033F000D9FF00C0E5FF01C0E5FF02C0E5FF020EF6
:10340000D924006E000EDA20016E800E026E030ECB
:103410000026000E012202220250E56E0150E56EE8
:103420000050E56E040EDBCFE5FF030EDBCFE5FFBA
:10343000020EDBCFE5FF04017F51E56E7E51E56EA4
:103440007D51E56E0EEC00F0006EF3CF01F0090E39
:10345000E12601C0F3FF0050E4CF02F0E4CF01F019
:10346000E4CF00F0E4CFD9FF1200D9CFE5FFE1CFE0
:10347000D9FF00C0E5FF01C0E5FF02C0E5FF03C0C2
:10348000E5FF020EDBCF00F0030EDBCF01F0040EF0
:10349000DBCF02F003014F510DE17FEC1EF0036E14
:1034A00003C0E5FF00C0E9FF01C0F3FF0250A8EC34
:1034B0001FF00FD003014F51010A0BE100C0E9FFDB
:1034C00001C0F3FF025021EC1FF0E56E27EC1DF068
:1034D000E652E4CF03F0E4CF02F0E4CF01F0E4CF12
:1034E00000F0E4CFD9FF120000C0E5FF01C0E5FF06
:1034F00088EC1CF0006E4C0A08E188EC1CF0300AE5
:1035000002E08B8229D08B9227D00050450A24E11B
:10351000000EE56E130EE56EEC0EE56EF5EC19F09F
:10352000030EE126F2EC1FF0006E00C001F0000671
:1035300001500FE088EC1CF0E56AE56E000EE56EC8
:10354000130EE56EEE0EE56EF5EC19F0050EE126B4
:10355000ECD70A0E04EC1CF0E4CF01F0E4CF00F04D
:103560001200D9CFE5FFE1CFD9FF00C0E5FF01C0D0
:10357000E5FF02C0E5FF03C0E5FF020EDBCF00F070
:10358000030EDBCF01F049C302F04AC303F003018D
:10359000493F01D04A2B0150E56E0250E56E5EECCA
:1035A0001CF0E652E65249C302F04AC303F003019D
:1035B000493F01D04A2B0050E56E0250E56E5EECAB
:1035C0001CF0E652E652E4CF03F0E4CF02F0E4CF81
:1035D00001F0E4CF00F0E4CFD9FF1200D9CFE5FF2E
:1035E000E1CFD9FF00C0E5FF01C0E5FF02C0E5FF64
:1035F00003C0E5FF04C0E5FF020EDBCF00F022C3ED
:1036000001F0026A014A022A23C303F0046A01504E
:10361000031803E10250041801E001D00ED0000E9F
:1036200003012225016E026A010E022201C0E9FF98
:1036300002C0EAFF00C0EFFF222BE4CF04F0E4CF8A
:1036400003F0E4CF02F0E4CF01F0E4CF00F0E4CFE8
:10365000D9FF1200D9CFE5FFE1CFD9FF00C0E5FFC8
:1036600001C0E5FF02C0E5FF03C0E5FF020EDBCFAE
:1036700000F0016A60C302F0036A025000260350A2
:103680000122E56A800EE56E0150E56E0050E56EA0
:10369000C9EC14F0006EF3CF01F0040EE126600EC9
:1036A0000026000E012200C0E9FF01C0EAFFEFCFB3
:1036B00000F00050E4CF03F0E4CF02F0E4CF01F0DB
:1036C000E4CF00F0E4CFD9FF120000C0E5FF01C055
:1036D000E5FF02C0E5FF010E006E88EC1CF0016EF4
:1036E00001C002F0015023E00050E56E50EC1FF0E5
:1036F000016EE652015010E10A0E005C0BE20A0E68
:10370000006EE56E50EC1FF0016EE652015004E1D0
:10371000E8680ED0E8680CD00150021802E0E868B2
:1037200007D0002A1B0E005CD8E3E86801D0E86AE5
:10373000E4CF02F0E4CF01F0E4CF00F0120000C0CB
:10374000E5FF01C0E5FF02C0E5FF03C0E5FF49C397
:1037500000F04AC301F00301493F01D04A2B005059
:10376000E56E50EC1FF0E652036E026A49C300F0AA
:103770004AC301F00301493F01D04A2B0050E56ED6
:1037800050EC1FF0E652016A02120150031203C00E
:10379000F3FF0250E4CF03F0E4CF02F0E4CF01F0F6
:1037A000E4CF00F012000301226B0301236B03013D
:1037B000246994808B909480B06A3F0EAF6EB88677
:1037C000AC8AAC84AC8CAC90AB8CAB8E0301576BE9
:1037D0000301516B0301546B0301556B0301566BDD
:1037E000000EE56A50EC1FF00301266FE6529F9829
:1037F0009F9A010E0301256F04017D6B7E6B2F0ED6
:103800007F6F5EEC1FF0120000C0E5FF01C0E5FF16
:1038100002C0E5FF006E000E03012725016E026A5B
:103820000F0E022201C0E9FF02C0EAFF00C0EFFF55
:10383000220E275DD8A0272B00500A0A0EE10301B3
:103840002751E56E800EE56E0F0EE56E000EE56EFB
:10385000D1EC13F0040EE126276BE4CF02F0E4CFA5
:1038600001F0E4CF00F012000301205104017B6F4E
:103870000301215104017C6FD650796FD7507A6FC4
:103880007B510301201905E104017C510301211939
:103890000CE00301205104017B6F0301215104015D
:1038A0007C6FD650796FD7507A6F7CC4E9FF7BC4A8
:1038B000F4FF7AC4F3FF040179511200D9CFE5FF78
:1038C000E1CFD9FF00C0E5FF01C0E5FF020EDBCF6D
:1038D00000F0030EDBCF01F0F29EF29C01C0A8FFC6
:1038E00000C0A9FFA69EA69CA684550EA76EAA0E90
:1038F000A76EA682F28EF28CA694A6A202D0000039
:10390000FCD7E4CF01F0E4CF00F0E4CFD9FF120000
:1039100000C0E5FF01C0E5FF0301555103015E1939
:1039200005E0030155510301541902E1E86A15D07D
:1039300055C300F00301552B016A600E0026000EEE
:10394000012200C0E9FF01C0EAFFEFCF00F05551AE
:10395000800A02E10301556B0050E4CF01F0E4CF8F
:1039600000F0120000C0E5FFECEC1FF00401896BD1
:10397000806B8983006A89B3002A0050010BE844F8
:10398000F46E8051FD0BF410806FD58ED59CD59AC6
:10399000D588D596D594D582D580F28AF184D08EFB
:1039A000F28EF28CBA80FF0EBB68BA84E4CF00F0CE
:1039B0001200D9CFE5FFE1CFD9FF00C0E5FF01C07C
:1039C000E5FF020EDBCF00F00050020DF450016E57
:1039D000F3CF00F0D30E0026040E012200C0E9FF51
:1039E00001C0EAFFEECF00F0EFCF01F001C0F3FF1E
:1039F0000050E4CF01F0E4CF00F0E4CFD9FF120093
:103A0000D9CFE5FFE1CFD9FF00C0E5FF01C0E5FF59
:103A1000020EDBCF00F00050020DF450016EF3CF28
:103A200000F0E00E0026000E012200C0E9FF01C0F8
:103A3000EAFFEECF00F0EFCF01F001C0F3FF00503E
:103A4000E4CF01F0E4CF00F0E4CFD9FF1200D9CFEA
:103A5000E5FFE1CFD9FF00C0E5FF01C0E5FF02C0EF
:103A6000E5FF020EDBCF00F049C301F04AC302F0CC
:103A70000301493F01D04A2B0050E56E0150E56E2D
:103A80005EEC1CF0E652E652E4CF02F0E4CF01F027
:103A9000E4CF00F0E4CFD9FF1200D8CFE5FFE0CFAC
:103AA000E5FFE56EF3CFE5FFF4CFE5FFE9CFE5FFF6
:103AB000EACFE5FFFACFE5FFFBCFE5FF3AEC0BF0ED
:103AC000E4CFFBFFE4CFFAFFE4CFEAFFE4CFE9FF66
:103AD000E4CFF4FFE4CFF3FFE450E4CFE0FFE4CF22
:103AE000D8FF1000E8AE0AD0F3CFEAFFEE50EECFD9
:103AF000F3FFEECFF4FFEECFE9FF1200E8BCFFEFDB
:103B00001FF0E9CFF6FFF3CFF7FFF86E0900F5508D
:103B10000900F5CFF3FF0900F5CFF4FF0900F5CF59
:103B2000E9FF120000C0E5FF01C0E5FF03012251DB
:103B30000301231902E1E86A0FD0000E03012325D7
:103B4000006E016A010E012200C0E9FF01C0EAFF18
:103B5000EFCF00F0232B0050E4CF01F0E4CF00F0D2
:103B60001200F2CFEAFFF29EA69EA69CA684E9CFA1
:103B7000A9FFF3CFAAFFE4CFA8FFBDEC1FF0F4CF5D
:103B8000A8FFBDEC1FF0F6CFA8FFBDEC1FF0F7CFEC
:103B9000A8FFBDEC1FF0A694EABEF28E1200F2CF91
:103BA000F6FFF29EA69EA69CE9CFA9FFF3CFAAFF3F
:103BB000A680A850A94AAA2AA680A8CFF3FFA94A9E
:103BC000AA2AA680A8CFF4FFA94AAA2AA680A8CF2D
:103BD000EAFFF6BEF28E1200E8AE08D0F3CFEAFF9D
:103BE000EE50EECFF3FFEECFF4FF1200E8BC07EF8C
:103BF00020F0E9CFF6FFF3CFF7FFF86E0900F5509C
:103C00000900F5CFF3FF0900F5CFF4FF1200F2CF62
:103C1000EAFFF29EA69EA69CA684E9CFA9FFF3CF59
:103C2000AAFFE4CFA8FFBDEC1FF0F4CFA8FFBDECC6
:103C30001FF0F6CFA8FFBDEC1FF0A694EABEF28EEF
:103C40001200D9CFE5FFE1CFD9FF00C0E5FF020E9A
:103C5000DBCF00F000C026F30050E56E000EE56AF1
:103C60005EEC1CF0E652E652E4CF00F0E4CFD9FF60
:103C70001200F2CFF6FFF29EA69EA69CE9CFA9FF06
:103C8000F3CFAAFFA680A850A94AAA2AA680A8CF47
:103C9000F3FFA94AAA2AA680A8CFF4FFF6BEF28EA7
:103CA000120000C0E5FF01C0E5FF600E03015525CD
:103CB000006E016A000E012200C0E9FF01C0EAFFA8
:103CC000EFCF00F00050E4CF01F0E4CF00F012009D
:103CD000D9CFE5FFE1CFD9FF00C0E5FF020EDBCF72
:103CE00000F0610E005C05E37B0E005C02E2010E59
:103CF00001D0E86AE4CF00F0E4CFD9FF120000C0A1
:103D0000E5FF01C0E5FF49C300F04AC301F003012C
:103D1000493F01D04A2B0050E56E50EC1FF0E652AF
:103D2000E4CF01F0E4CF00F01200D9CFE5FFE1CFFE
:103D3000D9FF00C0E5FF020EDBCF00F000C025F385
:103D4000005004E15EEC1FF09D9A9D98E4CF00F0D6
:103D5000E4CFD9FF1200E8AE06D0F3CFEAFFEE5071
:103D6000EECFF3FF1200E8BCFDEF1FF0E9CFF6FF46
:103D7000F3CFF7FFF86E0900F5500900F5CFF3FF18
:103D80001200F2CFEAFFF29EA69EA69CA684E9CF7F
:103D9000A9FFF3CFAAFFE4CFA8FFBDEC1FF0F4CF3B
:103DA000A8FFBDEC1FF0A694EABEF28E120012EE40
:103DB000FFF022EEFFF0F86AA68EA69CE9680E0ED0
:103DC000EA6E0068000EED6A0050FDE1D2EC18F0DA
:103DD00006EC00F0FFD7F2CFF6FFF29EA69EA69C5F
:103DE000E9CFA9FFF3CFAAFFA680A850A94AAA2A23
:103DF000A680A8CFF3FFF6BEF28E1200F2CFEAFF44
:103E0000F29EA69EA69CA684E9CFA9FFF3CFAAFFA7
:103E1000E4CFA8FFBDEC1FF0A694EABEF28E12001C
:103E2000E8AE0BD0F3CFEAFFE4CFEEFFF4CFEEFF26
:103E3000F6CFEEFFF7CFEEFF1200E8BC01EF20F067
:103E40001200E8AE04D0F3CFEAFFEE501200E8BC57
:103E5000FBEF1FF0E9CFF6FFF3CFF7FFF86E090095
:103E6000F550120000000000FF00000000020002F8
:103E70000000004200000000000000000000000000
:103E80000000E8AE09D0F3CFEAFFE4CFEEFFF4CFB5
:103E9000EEFFF6CFEEFF1200E8BC09EF20F01200B3
:103EA000D9CFE5FFE1CFD9FF020EDBCFA9FFA69C5A
:103EB000A69EA680A850E4CFD9FF1200ACA2FED7E0
:103EC0009480AE500000AE50AB98AB88AB869D8A14
:103ED0009D98120025642000F2CFF6FFF29EA69E68
:103EE000A69CE9CFA9FFF3CFAAFFA680A850F6BEF3
:103EF000F28E1200E8AE07D0F3CFEAFFE4CFEEFF78
:103F0000F4CFEEFF1200E8BC05EF20F01200700EB7
:103F1000D36E9B8CFF0E9268936894689668626A71
:103F2000F19E120000C0E5FF65EC1BF0006E005032
:103F300001E1FF00E4CF00F012000F01456B900E8D
:103F40000F01446F030E0F01436F0F01458F1200E5
:103F5000E8AE05D0F3CFEAFFE4CFEEFF1200E8BCF5
:103F600003EF20F01200D9CFE5FFE1CFD9FF020E19
:103F7000DBCF2BF3E4CFD9FF1200550EA76EAA0EAC
:103F8000A76EA682A6B2FED7A94AAA2A010E0301ED
:103F90004F6F1C0E0301496F4A6B120082A404D0BC
:103FA0000301473F01D0482B120003014F6B1C0E49
:103FB0000301496F4A6B12000100643E00002003B8
:103FC00000001D000000B2EC1CF0D3EC1BF012004E
:103FD000ACA2FED7AD6E120087EC1FF012000301F9
:103FE0005551120003015F511200030125511200C7
:103FF000E8CF7FFF12006CEF1FF0EBEF1EF0CFEF6A
:104000001DF0B1EF1DF0FEEF1EF0C1EF1EF039EF15
:064010001EF007EF1EF098
:020000040030CA
:010006008574
:00000001FF
