:020000040000FA
:100000006FEF27F0C96E120099EF20F00EEC04F0AC
:10001000F4EC10F0FDD7120024EF25F0D9CFE5FF66
:10002000E1CFD9FF00C0E5FF01C0E5FF02C0E5FF59
:1000300003C0E5FF04C0E5FF05C0E5FF06C0E5FF1E
:1000400007C0E5FF08C0E5FF09C0E5FF0AC0E5FFFE
:100050000BC0E5FF0CC0E5FF0DC0E5FF0EC0E5FFDE
:100060000FC0E5FF10C0E5FF11C0E5FF12C0E5FFBE
:1000700013C0E5FF14C0E5FF15C0E5FF16C0E5FF9E
:1000800017C0E5FF18C0E5FF19C0E5FF1AC0E5FF7E
:100090001BC0E5FF1CC0E5FF1DC0E5FF1EC0E5FF5E
:1000A000020EDBCF00F0030EDBCF01F0040EDBCF3E
:1000B00002F0050EDBCF03F0060EDBCF04F0070ED7
:1000C000DBCF05F0080EDBCF06F0090EDBCF07F023
:1000D0000A0EDBCF08F0096A0A6A02C00DF00D5063
:1000E000800A0DE1025003016F6F01506E6F0050E6
:1000F0006D6F030E016E6D0E006E800E026E03C0FA
:10010000E9FF04C0F3FF0550B9EC27F00B6E0B506C
:10011000D8B4C4EF03F00B50250A02E0ABEF03F0B4
:100120000C6A0D6A0E6A0F6A106A0A0E116E126A64
:10013000136A146A200E156E1668176A2B0E186E55
:10014000032A02E3044A052A03C0E9FF04C0F3FFBF
:100150000550B9EC27F0196E250A13E11950E56E28
:100160000250E56E0150E56E0050E56E38EC1AF075
:10017000040EE126094A0A2A032A02E3044A052A50
:10018000BED71950300A06E1300E156E032A02E37D
:10019000044A052A03C0E9FF04C0F3FF0550B9EC87
:1001A00027F02D0A06E1010E146E032A02E3044A29
:1001B000052A03C0E9FF04C0F3FF0550B9EC27F09E
:1001C000200A08E1010E176E200E186E032A02E3C2
:1001D000044A052A03C0E9FF04C0F3FF0550B9EC47
:1001E00027F02B0A06E1010E176E032A02E3044AE8
:1001F000052A03C0E9FF04C0F3FF0550B9EC27F05E
:10020000196E310E195C2BE33A0E195C28E203C01B
:1002100019F004C01AF005C01BF019C0E9FF1AC09C
:10022000F3FF1B50B9EC27F01C6E300E1C5C11E381
:100230003A0E1C5C0EE213500A0DF3CF1DF01C5059
:100240001D26D00E1D24136E192A02E31A4A1B2AFA
:10025000E4D719C003F01AC004F01BC005F003C0B6
:10026000E9FF04C0F3FF0550B9EC27F02E0A2DE199
:10027000032A02E3044A052A166A03C019F004C0DF
:100280001AF005C01BF019C0E9FF1AC0F3FF1B509C
:10029000B9EC27F01C6E300E1C5C11E33A0E1C5CAE
:1002A0000EE216500A0DF3CF1DF01C501D26D00E85
:1002B0001D24166E192A02E31A4A1B2AE4D719C014
:1002C00003F01AC004F01BC005F003C0E9FF04C02E
:1002D000F3FF0550B9EC27F0196E6C0A07E1010E27
:1002E0000C6E032A02E3044A052A09D01950680A51
:1002F00006E1010E0E6E032A02E3044A052A03C03A
:10030000E9FF04C0F3FF0550B9EC27F0750A06E1D8
:10031000010E106E032A02E3044A052A03C0E9FF16
:1003200004C0F3FF0550B9EC27F0196E730A05E11C
:10033000010E0D6E200E156E3FD01950780A03E1A4
:10034000100E116E39D01950580A05E1100E116EB9
:10035000010E126E31D01950630A02E1116A2CD0DD
:1003600019506F0A03E1080E116E26D01950660A63
:1003700003E1010E0F6E20D01950640A1DE01950E0
:10038000690A1AE0105005E0FF0E03260422052238
:1003900013D01950E56E0250E56E0150E56E005025
:1003A000E56E38EC1AF0040EE126094A0A2A032AFF
:1003B00002E3044A052AA3D60D5021E00650030F9C
:1003C0000D6E000E0720196E000E08201A6E0DC06B
:1003D00006F019C007F01AC008F0FD0E0D26FF0E3A
:1003E00019221A220DC0E9FF19C0F3FF1A5084EC3C
:1003F00026F00D6EF3CF19F0F4CF1AF0FDD00F50A8
:100400000DE0000E1A6E080E196E100E0D6E040E21
:100410000626000E072208221668EED016680C5039
:1004200023E00650040F0C6E000E07200F6E000E26
:1004300008201B6E0CC006F00FC007F01BC008F0B0
:10044000FC0E0C26FF0E0F221B220CC0E9FF0FC072
:10045000F3FF1B500AEC26F00C6EF3CF0FF0F4CF35
:100460001BF0E9CF1CF067D00E502FE00650020FB2
:100470000E6E000E07201D6E000E08201E6E0EC0B0
:1004800006F01DC007F01EC008F0FE0E0E26FF0E7F
:100490001D221E220EC0E9FF1DC0F3FF1E5043ECBB
:1004A00027F00E6E0EC00CF00F6A1B6A1C6A11500A
:1004B0000A0A03E11050D8B43ED00C500E6E0EC0A4
:1004C0000CF00F6A1B6A1C6A36D00650020F0E6EC3
:1004D000000E07201D6E000E08201E6E0EC006F0D6
:1004E0001DC007F01EC008F0FE0E0E26FF0E1D22D6
:1004F0001E220EC0E9FF1DC0F3FF1E5043EC27F083
:100500000E6EF3CF1DF00EC00CF01DC00FF0E86AA8
:100510001DBEFF0E1B6E1C6E11500A0A02E1105028
:100520000AE00C500E6E0F501D6E0EC00CF01DC078
:100530000FF01B6A1C6A040E196EF40E0D6E800E0D
:100540001A6E1150D8B440D0105013E01150E56E1F
:10055000040EE56EF40EE56E1C50E56E1B50E56E64
:100560000F50E56E0C50E56EE0EC15F0070EE1263D
:1005700012D01150E56E040EE56EF40EE56E1C50BF
:10058000E56E1B50E56E0F50E56E0C50E56E87EC86
:100590001FF0070EE12617502FE00DC0E9FF19C02C
:1005A000F3FF1A50B9EC27F02D0A26E0FF0E0D26B6
:1005B00019221A2218C0E5FF0DC0E9FF19C0F3FF88
:1005C0001A5041EC28F018D00CC0E5FF0DC0E9FF2F
:1005D00019C0F3FF1A5041EC28F00D50010F0C6EBA
:1005E000000E19200E6E000E1A20E56A0CC0E9FFFD
:1005F0000EC0F3FF41EC28F00DC00CF019C00EF056
:100600001AC00FF013C010F0105010E00CC0E9FF3A
:100610000EC0F3FF0F50B9EC27F0176E175006E02D
:100620000C2A02E30E4A0F2A1006EED710C013F070
:1006300014501EE109C00CF00AC00EF010C00FF0FB
:100640000F5010E01550E56E0250E56E0150E56E5A
:100650000050E56E38EC1AF0040EE1260C4A0E2A22
:100660000F06EED70CC009F00EC00AF00FC013F051
:1006700016C00CF00DC00DF019C00EF01AC00FF02E
:1006800009C010F00AC015F00DC0E9FF0EC0F3FF5D
:100690000F50B9EC27F0166E1650D8B43ED00CC0EF
:1006A00016F0176A161E171E1650171005E00CC01C
:1006B00016F00C06165031E00DC0E9FF0EC0F3FF36
:1006C0000F50B9EC27F0116E125010E01150E56E8A
:1006D00000EC27F0166EE652165004E0DF0E1114FF
:1006E000166E02D011C016F016C011F01150E56E52
:1006F0000250E56E0150E56E0050E56E38EC1AF0E0
:10070000040EE1260D2A02E30E4A0F2A104A152A8A
:100710001350D8B4B9D71306B7D710C009F015C015
:100720000AF014502BE010C00CF015C00DF013C0EF
:100730000EF00E501FE0200EE56E0250E56E0150E7
:10074000E56E0050E56E38EC1AF0040EE1260C4A16
:100750000D2A0E06EED70B50E56E0250E56E0150E5
:10076000E56E0050E56E38EC1AF0040EE126094AF9
:100770000A2A04D00CC009F00DC00AF0032A02E3D3
:10078000044A052A7FEF00F00AC0F3FF0950E4CFC6
:100790001EF0E4CF1DF0E4CF1CF0E4CF1BF0E4CF5B
:1007A0001AF0E4CF19F0E4CF18F0E4CF17F0E4CF5B
:1007B00016F0E4CF15F0E4CF14F0E4CF13F0E4CF5B
:1007C00012F0E4CF11F0E4CF10F0E4CF0FF0E4CF5B
:1007D0000EF0E4CF0DF0E4CF0CF0E4CF0BF0E4CF5B
:1007E0000AF0E4CF09F0E4CF08F0E4CF07F0E4CF5B
:1007F00006F0E4CF05F0E4CF04F0E4CF03F0E4CF5B
:1008000002F0E4CF01F0E4CF00F0E4CFD9FF120012
:100810003C4E4F20464C4F41543E000000C0E5FF87
:1008200001C0E5FF02C0E5FF03C0E5FF05C0E5FF2D
:1008300075EC28F00001E051E56E4EEC1BF0E6523D
:10084000A6EC24F0F3CF01F0F4CF02F0E9CF03F0EF
:10085000880F0401336F130E0120346F000E022045
:10086000356F000E0320366F60EC1CF09280800E16
:10087000006E0F0E016E0F0E036E380E0026035031
:100880000122800E026E0F0E036E800E005E03507A
:10089000015A0F0E056E380E0226055003220F0E68
:1008A000056E800E025E0550035A02C0E9FF03C0C8
:1008B000EAFFEFCF02F0028000C0E9FF01C0EAFFCB
:1008C00002C0EFFF000EE56AE56AB5EC1EF0E652E5
:1008D000E6529282800E006E0F0E016E0F0E036EB6
:1008E000380E002603500122800E026E0F0E036E9A
:1008F000800E005E0350015A0F0E056E380E022660
:10090000055003220F0E056E800E025E0550035A3D
:1009100002C0E9FF03C0EAFFEFCF02F0028200C08D
:10092000E9FF01C0EAFF02C0EFFF010EE56EE56ED0
:10093000B5EC1EF0E652E6529284800E006E0F0E69
:10094000016E0F0E036E380E002603500122800E3A
:10095000026E0F0E036E800E005E0350015A0F0EE2
:10096000056E380E0226055003220F0E056E800E0E
:10097000025E0550035A02C0E9FF03C0EAFFEFCF51
:1009800002F0028400C0E9FF01C0EAFF02C0EFFFED
:10099000020EE56EE56EB5EC1EF0E652E65292866A
:1009A000800E006E0F0E016E0F0E036E380E0026C5
:1009B00003500122800E026E0F0E036E800E005E49
:1009C0000350015A0F0E056E380E02260550032201
:1009D0000F0E056E800E025E0550035A02C0E9FF3D
:1009E00003C0EAFFEFCF02F0028600C0E9FF01C0BA
:1009F000EAFF02C0EFFF030EE56EE56EB5EC1EF0F8
:100A0000E652E6529484820E006E0F0E016E0F0EB7
:100A1000036E380E0026035001220F0E036E800E67
:100A2000005E0350015A820E026E0F0E036E0F0E0F
:100A3000056E380E0226055003220F0E056E800E3D
:100A4000025E0550035A02C0E9FF03C0EAFFEFCF80
:100A500002F0028400C0E9FF01C0EAFF02C0EFFF1C
:100A60000E0EE56E040EE56EB5EC1EF0E652E65293
:100A7000948A820E006E0F0E016E0F0E036E380EFA
:100A80000026035001220F0E036E800E005E0350FD
:100A9000015A820E026E0F0E036E0F0E056E380E97
:100AA0000226055003220F0E056E800E025E0550D1
:100AB000035A02C0E9FF03C0EAFFEFCF02F0028A47
:100AC00000C0E9FF01C0EAFF02C0EFFF110EE56EB2
:100AD000050EE56EB5EC1EF0E652E6529380810EEF
:100AE000006E0F0E016E0F0E036E380E00260350BF
:100AF00001220F0E036E800E005E0350015A810E1C
:100B0000026E0F0E036E0F0E056E380E0226055094
:100B100003220F0E056E800E025E0550035A02C0BE
:100B2000E9FF03C0EAFFEFCF02F0028000C0E9FF57
:100B300001C0EAFF02C0EFFF0C0EE56E060EE56E87
:100B4000B5EC1EF0E652E6529382810E006E0F0E57
:100B5000016E0F0E036E380E0026035001220F0E99
:100B6000036E800E005E0350015A810E026E0F0E5E
:100B7000036E0F0E056E380E0226055003220F0E6F
:100B8000056E800E025E0550035A02C0E9FF03C0E5
:100B9000EAFFEFCF02F0028200C0E9FF01C0EAFFE6
:100BA00002C0EFFF0A0EE56E070EE56EB5EC1EF013
:100BB000E652E6529384810E006E0F0E016E0F0E08
:100BC000036E380E0026035001220F0E036E800EB6
:100BD000005E0350015A810E026E0F0E036E0F0E5F
:100BE000056E380E0226055003220F0E056E800E8C
:100BF000025E0550035A02C0E9FF03C0EAFFEFCFCF
:100C000002F0028400C0E9FF01C0EAFF02C0EFFF6A
:100C1000080EE56EE56EB5EC1EF0E652E6529386E0
:100C2000810E006E0F0E016E0F0E036E380E002641
:100C3000035001220F0E036E800E005E0350015A16
:100C4000810E026E0F0E036E0F0E056E380E022619
:100C5000055003220F0E056E800E025E0550035AEA
:100C600002C0E9FF03C0EAFFEFCF02F0028600C036
:100C7000E9FF01C0EAFF02C0EFFF090EE56EE56E75
:100C8000B5EC1EF0E652E6529388810E006E0F0E10
:100C9000016E0F0E036E380E0026035001220F0E58
:100CA000036E800E005E0350015A810E026E0F0E1D
:100CB000036E0F0E056E380E0226055003220F0E2E
:100CC000056E800E025E0550035A02C0E9FF03C0A4
:100CD000EAFFEFCF02F0028800C0E9FF01C0EAFF9F
:100CE00002C0EFFF0B0EE56E0A0EE56EB5EC1EF0CE
:100CF000E652E652938A810E006E0F0E016E0F0EC1
:100D0000036E380E0026035001220F0E036E800E74
:100D1000005E0350015A810E026E0F0E036E0F0E1D
:100D2000056E380E0226055003220F0E056E800E4A
:100D3000025E0550035A02C0E9FF03C0EAFFEFCF8D
:100D400002F0028A00C0E9FF01C0EAFF02C0EFFF23
:100D50000D0EE56E0B0EE56EB5EC1EF0E652E6529A
:100D60007D0E03012B6F938C810E006E0F0E016EB2
:100D70000F0E036E380E0026035001220F0E036E75
:100D8000800E005E0350015A810E026E0F0E036E3C
:100D90000F0E056E380E0226055003220F0E056E4B
:100DA000800E025E0550035A02C0E9FF03C0EAFF4D
:100DB000EFCF02F0029C00C0E9FF01C0EAFF02C0D1
:100DC000EFFF938E810E006E0F0E016E0F0E036EFD
:100DD000380E0026035001220F0E036E800E005EB7
:100DE0000350015A810E026E0F0E036E0F0E056E38
:100DF000380E0226055003220F0E056E800E025E8D
:100E00000550035A02C0E9FF03C0EAFFEFCF02F02A
:100E1000029E00C0E9FF01C0EAFF02C0EFFF928A14
:100E2000800E006E0F0E016E0F0E036E380E002640
:100E300003500122800E026E0F0E036E800E005EC4
:100E40000350015A0F0E056E380E0226055003227C
:100E50000F0E056E800E025E0550035A02C0E9FFB8
:100E600003C0EAFFEFCF02F0029A00C0E9FF01C021
:100E7000EAFF02C0EFFF928C800E006E0F0E016E33
:100E80000F0E036E380E002603500122800E026EF4
:100E90000F0E036E800E005E0350015A0F0E056E9A
:100EA000380E0226055003220F0E056E800E025EDC
:100EB0000550035A02C0E9FF03C0EAFFEFCF02F07A
:100EC000029C00C0E9FF01C0EAFF02C0EFFF928868
:100ED000800E006E0F0E016E0F0E036E380E002690
:100EE00003500122800E026E0F0E036E800E005E14
:100EF0000350015A0F0E056E380E022605500322CC
:100F00000F0E056E800E025E0550035A02C0E9FF07
:100F100003C0EAFFEFCF02F0029800C0E9FF01C072
:100F2000EAFF02C0EFFF928E800E006E0F0E016E80
:100F30000F0E036E380E002603500122800E026E43
:100F40000F0E036E800E005E0350015A0F0E056EE9
:100F5000380E0226055003220F0E056E800E025E2B
:100F60000550035A02C0E9FF03C0EAFFEFCF02F0C9
:100F7000029E00C0E9FF01C0EAFF02C0EFFFE4CF1C
:100F800005F0E4CF03F0E4CF02F0E4CF01F0E4CFCA
:100F900000F0120043522025642025640A00D9CFB6
:100FA000E5FFE1CFD9FF00C0E5FF01C0E5FF02C0CA
:100FB000E5FF03C0E5FF04C0E5FF05C0E5FF06C08F
:100FC000E5FF020EDBCF00F000502EE18980929009
:100FD0009280800E016E0F0E026E0F0E046E380EA0
:100FE000012604500222800E036E0F0E046E800E46
:100FF000015E0450025A0F0E066E380E032606508C
:1010000004220F0E066E800E035E0650045A03C0C3
:10101000E9FF04C0EAFFEFCF03F0038001C0E9FF5E
:1010200002C0EAFF03C0EFFF0050010A2EE18982EF
:1010300092929282800E016E0F0E026E0F0E046E5F
:10104000380E012604500222800E036E0F0E046E2D
:10105000800E015E0450025A0F0E066E380E0326F3
:10106000065004220F0E066E800E035E0650045AD0
:1010700003C0E9FF04C0EAFFEFCF03F0038201C021
:10108000E9FF02C0EAFF03C0EFFF0050020A2EE1B1
:10109000898492949284800E016E0F0E026E0F0E60
:1010A000046E380E012604500222800E036E0F0ECD
:1010B000046E800E015E0450025A0F0E066E380E4A
:1010C0000326065004220F0E066E800E035E0650A5
:1010D000045A03C0E9FF04C0EAFFEFCF03F0038422
:1010E00001C0E9FF02C0EAFF03C0EFFF0050030A9E
:1010F0002EE1898692969286800E016E0F0E026E08
:101100000F0E046E380E012604500222800E036E6C
:101110000F0E046E800E015E0450025A0F0E066E12
:10112000380E0326065004220F0E066E800E035E54
:101130000650045A03C0E9FF04C0EAFFEFCF03F0F2
:10114000038601C0E9FF02C0EAFF03C0EFFF0050C1
:10115000040A30E18B8494949484820E016E0F0E05
:10116000026E0F0E046E380E0126045002220F0E7E
:10117000046E800E015E0450025A820E036E0F0E42
:10118000046E0F0E066E380E0326065004220F0E54
:10119000066E800E035E0650045A03C0E9FF04C0C9
:1011A000EAFFEFCF03F0038401C0E9FF02C0EAFFCA
:1011B00003C0EFFF0050050A30E18B8A949A948AAD
:1011C000820E016E0F0E026E0F0E046E380E012697
:1011D000045002220F0E046E800E015E0450025A6B
:1011E000820E036E0F0E046E0F0E066E380E03266F
:1011F000065004220F0E066E800E035E0650045A3F
:1012000003C0E9FF04C0EAFFEFCF03F0038A01C087
:10121000E9FF02C0EAFF03C0EFFF0050060A30E119
:101220008A8093909380810E016E0F0E026E0F0ED6
:10123000046E380E0126045002220F0E046E800E3A
:10124000015E0450025A810E036E0F0E046E0F0EE3
:10125000066E380E0326065004220F0E066E800E10
:10126000035E0650045A03C0E9FF04C0EAFFEFCF53
:1012700003F0038001C0E9FF02C0EAFF03C0EFFFF3
:101280000050070A30E18A8293929382810E016EA8
:101290000F0E026E0F0E046E380E0126045002224D
:1012A0000F0E046E800E015E0450025A810E036E12
:1012B0000F0E046E0F0E066E380E03260650042223
:1012C0000F0E066E800E035E0650045A03C0E9FF3F
:1012D00004C0EAFFEFCF03F0038201C0E9FF02C0C0
:1012E000EAFF03C0EFFF0050080A30E18A849394BC
:1012F0009384810E016E0F0E026E0F0E046E380E77
:101300000126045002220F0E046E800E015E04506E
:10131000025A810E036E0F0E046E0F0E066E380E0B
:101320000326065004220F0E066E800E035E065042
:10133000045A03C0E9FF04C0EAFFEFCF03F00384BF
:1013400001C0E9FF02C0EAFF03C0EFFF0050090A35
:1013500030E18A8693969386810E016E0F0E026E9F
:101360000F0E046E380E0126045002220F0E046E7A
:10137000800E015E0450025A810E036E0F0E046E41
:101380000F0E066E380E0326065004220F0E066E50
:10139000800E035E0650045A03C0E9FF04C0EAFF52
:1013A000EFCF03F0038601C0E9FF02C0EAFF03C0EC
:1013B000EFFF00500A0A30E18A8893989388810EE3
:1013C000016E0F0E026E0F0E046E380E01260450D1
:1013D00002220F0E046E800E015E0450025A810E2E
:1013E000036E0F0E046E0F0E066E380E03260650A7
:1013F00004220F0E066E800E035E0650045A03C0D0
:10140000E9FF04C0EAFFEFCF03F0038801C0E9FF62
:1014100002C0EAFF03C0EFFF00500B0A30E18A8AE6
:10142000939A938A810E006E0F0E016E0F0E036E5B
:10143000380E0026035001220F0E036E800E005E50
:101440000350015A810E026E0F0E036E0F0E056ED1
:10145000380E0226055003220F0E056E800E025E26
:101460000550035A02C0E9FF03C0EAFFEFCF02F0C4
:10147000028A00C0E9FF01C0EAFF02C0EFFFE4CF2B
:1014800006F0E4CF05F0E4CF04F0E4CF03F0E4CFBE
:1014900002F0E4CF01F0E4CF00F0E4CFD9FF120076
:1014A00000C0E5FF01C0E5FF02C0E5FF03C0E5FFA6
:1014B00004C0E5FF05C0E5FF06C0E5FF07C0E5FF86
:1014C00008C0E5FFC2A204D00001EF5192EF0CF07A
:1014D0000001F051D8B42FD10001EF51020DF450AA
:1014E000016EF3CF00F0390E0026040E012200C079
:1014F000E9FF01C0EAFFEECF00F0EFCF01F0230ECD
:10150000EF25026E036A040E032202C0E9FF03C046
:10151000EAFFEFCF02F00250FF0A01E16DD009C0EF
:10152000E5FFF2CF09F0F29E02380F0B046E920E27
:101530000424056E066A0F0E0622076A920E042620
:101540000F0E072204C0E9FF07C0EAFFEFCF04F047
:101550000250076E070E0716010E086E07500DE0C9
:1015600006E6E86CD8900836010FFDE306D0D89067
:1015700008BED8800832010FFBE3081C076E045038
:10158000071605C0E9FF06C0EAFF07C0EFFF0238F3
:101590000F0B046E890E0424056E066A0F0E0622D8
:1015A000076A890E04260F0E072204C0E9FF07C050
:1015B000EAFFEFCF04F0070E0216010E076E02508D
:1015C0000DE006E6E86CD8900736010FFDE306D083
:1015D000D89007BED8800732010FFBE3071C026ECC
:1015E0000450021605C0E9FF06C0EAFF02C0EFFF83
:1015F00009BEF28EE4CF09F00001EF51020DF45064
:10160000036EF3CF02F0390E0226040E03220134DA
:101610000130056E0030046E005C046E0550015808
:10162000056EC3CF00F0016A005004260150052268
:10163000C4CF00F0016A0050076E066A0650042607
:101640000750052202C0E9FF03C0EAFF04C0EEFF15
:1016500005C0EFFF0001EB51010A01E06AD0000173
:10166000EF51020DF450016EF3CF00F0390E00245B
:10167000026E040E0120036E02C0E9FF03C0EAFF00
:10168000EECF02F0EFCF03F0B30E0026040E0122DE
:1016900000C0E9FF01C0EAFFEECF04F0EFCF05F094
:1016A0009C0E0426D8A005060350800FF36E05504B
:1016B000800FF35C02E10450025C0EE20250640F02
:1016C000046E000E0320056E00C0E9FF01C0EAFFB2
:1016D00004C0EEFF05C0EFFF0001EF51020DF45012
:1016E000016EF3CF00F0D30E0026040E012200C0DD
:1016F000E9FF01C0EAFFEECF04F0EFCF05F0640E82
:101700000426D8B0052A0550800FF36E0350800FD1
:10171000F35C02E10250045C0CE29C0E0226D8A0AD
:10172000030600C0E9FF01C0EAFF02C0EEFF03C0EC
:10173000EFFF0001F06B0001EF2B100EEF5DD8B052
:10174000EF6BEF39E8441F0B006E016A720E002642
:10175000030E012200C0E9FF01C0EAFFEFCF00F055
:10176000EFC001F0070E0116010E026E000E036EAF
:10177000015006E0E86CD89002360336010FFCE316
:10178000046A005002160450031602500310D88059
:10179000E866D890026A02360250D8A4C1D0230E5F
:1017A0000001EF25006E016A0F0E012200C0E9FF63
:1017B00001C0EAFFEFCF00F00044E844FC0B016EEB
:1017C0000128C26EEF51E56ECFEC07F0E652230E12
:1017D000EF25006E016A040E012200C0E9FF01C07E
:1017E000EAFFEFCF00F00050FF0A01E195D009C0F9
:1017F000E5FFF2CF09F0F29E00380F0B026E920E59
:101800000224036E046A0F0E0422056A920E022659
:101810000F0E052202C0E9FF05C0EAFFEFCF02F07C
:101820000050056E070E0516010E066E05500DE000
:1018300006E6E86CD8900636010FFDE306D0D89096
:1018400006BED8800632010FFBE30250061203C029
:10185000E9FF04C0EAFF06C0EFFF09BEF28EE4CF45
:1018600009F0380E016E0F0E026E00380F0B036E7A
:10187000046A0350012604500222380E056E0F0E32
:10188000066E055003260650042203C0E9FF04C07B
:10189000EAFFEFCF03F0070E0016010E046E0050B2
:1018A0000DE006E6E86CD8900436010FFDE306D0A3
:1018B000D89004BED8800432010FFBE30350041219
:1018C00001C0E9FF02C0EAFF04C0EFFF0F0145833A
:1018D0000000000045930F01449309C0E5FFF2CFDB
:1018E00009F0F29E448100000000000000000000AA
:1018F00000000000000000000000000000000000E8
:101900000000000000000000000000000000449102
:1019100009BEF28EE4CF09F0C282010E0001F06F21
:101920000001EF51E4CF08F0E4CF07F0E4CF06F078
:10193000E4CF05F0E4CF04F0E4CF03F0E4CF02F00D
:10194000E4CF01F0E4CF00F0120000C0E5FF01C0D9
:10195000E5FF02C0E5FF03C0E5FF04C0E5FF05C0E9
:10196000E5FF06C0E5FF07C0E5FF08C0E5FF09C0C9
:10197000E5FF0AC0E5FF0BC0E5FF0CC0E5FF006A0C
:10198000016A026A040E025CD8B0EBD1100E015C51
:10199000D8B0E7D1012A0001F12B100EF15DD8B0CB
:1019A000F16BF139E8441F0B036E046A720E0326D3
:1019B000030E042203C0E9FF04C0EAFFEFCF03F0E7
:1019C000F1C004F0070E0416010E056E000E066E3F
:1019D000045006E0E86CD89005360636010FFCE3AB
:1019E000076A035005160750061605500610D880E2
:1019F000E866D890056A05360550D8A4C3D700011B
:101A0000F151020DF450046EF3CF03F0390E0324AC
:101A1000056E040E0420066E05C0E9FF06C0EAFF4D
:101A2000EECF05F0EFCF06F0EEC007F007A09DD097
:101A3000B30E0324076E040E0420086E07C0E9FFEE
:101A400008C0EAFFEECF07F0EFCF08F00650800F96
:101A5000F36E0850800FF35C02E10750055C03E26F
:101A6000056A066A60D0D30E0326040E042203C062
:101A7000E9FF04C0EAFFEECF03F0EFCF04F004501B
:101A8000800FF36E0650800FF35C02E10550035C9B
:101A900004E205683F0E066E46D00750055C096EED
:101AA000085006580A6EE86A0ABEFF0E0B6EE56E15
:101AB0000B50E56E0A50E56E0950E56EE56AE56A81
:101AC000400EE56E000EE56AD6EC14F0096EF3CF19
:101AD0000AF0F4CF0BF0E9CF0CF0080EE126075026
:101AE000035C076E08500458086EE86A08BEFF0ED3
:101AF000036EE56E0350E56E0850E56E0750E56E27
:101B00000C50E56E0B50E56E0A50E56E0950E56E1F
:101B10008EEC18F0036EF3CF04F0080EE1260350AC
:101B2000056E0450066E0001ED51800FF36E0650F5
:101B3000800FF35C02E10550EC5D03E3056A066A81
:101B400014D00001EC51FF08036E3F0EED55046EFA
:101B50000650800FF36E0450800FF35C02E10350D7
:101B6000055C03E305683F0E066E0001F151020DAE
:101B7000F450046EF3CF03F0930E0326040E0422F8
:101B800003C0E9FF04C0EAFFEECF03F0EFCF04F09B
:101B90000350055C036E04500658046ED88004AEF2
:101BA000D89004E3041E036CD8B4042A022A00016E
:101BB000ED51800FF36E0450800FF35C02E103508F
:101BC000EC5DD8B0DFD60001F151020DF450046E87
:101BD000F3CF03F0930E0326040E042203C0E9FFA3
:101BE00004C0EAFF05C0EEFF06C0EFFFEEC003F041
:101BF00003A459D0F151020DF450046EF3CF03F059
:101C0000000E0324076E030E0420086E07C0E9FFD0
:101C100008C0EAFFEECF09F0EFCF0AF009500A1032
:101C2000D8B441D0590E0326040E042203C0E9FFA4
:101C300004C0EAFFEECF03F0EFCF04F00350055CE1
:101C4000036E04500658046E03101CE00450800F0D
:101C5000800F02E1010E035C0B6A0B360A50800F05
:101C6000800F02E1010E095C096A09360B50091860
:101C700009E107C0E9FF08C0EAFF03C0EEFF04C0A6
:101C8000EFFF80D60001F151020DF450046EF3CF46
:101C900003F0000E0326030E042203C0E9FF04C074
:101CA000EAFFEE6AEF6AEEC003F003A246D00050EE
:101CB0000EE100C003F0002A046AF20E0326000EB3
:101CC000042203C0E9FF04C0EAFF420EEF6E00C029
:101CD00003F00028046E076AF20E0326000E0722A6
:101CE0000001F151086E640E082603C0E9FF07C029
:101CF000EAFF08C0EFFF04C003F0042A076AF20EEF
:101D00000326000E07220650086E03C0E9FF07C035
:101D1000EAFF08C0EFFF04C003F00428006E046A65
:101D2000F20E0326000E04220550076E03C0E9FFE1
:101D300004C0EAFF07C0EFFF25D6F1C003F006504C
:101D4000E56E0550E56EE56A0350E56E000EE56E42
:101D5000390EE56EBA0EE56EA4EC22F0070EE12610
:101D600011D602C001F000501EE0EEC002F002A247
:101D70001AD000C002F0002A036AF20E0226000EFA
:101D8000032202C0E9FF03C0EAFF0A0EEF6E005013
:101D9000E56E800EE56E000EE56EF20EE56EE3EC8C
:101DA0001CF0040EE1260150E4CF0CF0E4CF0BF060
:101DB000E4CF0AF0E4CF09F0E4CF08F0E4CF07F075
:101DC000E4CF06F0E4CF05F0E4CF04F0E4CF03F075
:101DD000E4CF02F0E4CF01F0E4CF00F0120000C045
:101DE000E5FF01C0E5FF02C0E5FF03C0E5FF04C059
:101DF000E5FF05C0E5FF000EE56A99EC25F0006EF1
:101E0000F3CF01F0E6522BC302F0036A0250046ED6
:101E100004260334056ED89004360536D89004366F
:101E200005360550800FF36E0150800FF35C02E120
:101E30000050045C05E2FE0E03012015206F04D063
:101E4000010E03012011206F010EE56E99EC25F0C3
:101E5000006EF3CF01F0E6522BC302F0036A02508A
:101E6000046E04260334056ED89004360536D890E7
:101E7000043605360550800FF36E0150800FF35C79
:101E800002E10050045C05E2FD0E03012015206F05
:101E900004D0020E03012011206F020EE56E99ECB2
:101EA00025F0006EF3CF01F0E6522BC302F0036A77
:101EB0000250046E04260334056ED89004360536AD
:101EC000D890043605360550800FF36E0150800F10
:101ED000F35C02E10050045C05E2FB0E03012015F7
:101EE000206F04D0040E03012011206F030EE56E55
:101EF00099EC25F0006EF3CF01F0E6522BC302F00F
:101F0000036A0250046E04260334056ED89004362A
:101F10000536D890043605360550800FF36E015013
:101F2000800FF35C02E10050045C05E2F70E030150
:101F30002015206F04D0080E03012011206F040E1D
:101F4000E56E99EC25F0006EF3CF01F0E6522BC35D
:101F500002F0036A0250046E04260334056ED89022
:101F600004360536D890043605360550800FF36EDA
:101F70000150800FF35C02E10050045C05E2EF0EBB
:101F800003012015206F04D0100E03012011206FD3
:101F9000050EE56E99EC25F0006EF3CF01F0E652E8
:101FA0002BC302F0036A0250046E04260334056E4C
:101FB000D89004360536D890043605360550800F83
:101FC000F36E0150800FF35C02E10050045C05E207
:101FD000DF0E03012015206F04D0200E0301201115
:101FE000206F060EE56E99EC25F0006EF3CF01F040
:101FF000E6522BC302F0036A0250046E0426033437
:10200000056ED89004360536D8900436053605504E
:10201000800FF36E0150800FF35C02E10050045C0E
:1020200005E2BF0E03012015206F04D0400E03010E
:102030002011206F070EE56E99EC25F0006EF3CFAE
:1020400001F0E6522BC302F0036A0250046E04262C
:102050000334056ED89004360536D890043605361C
:102060000550800FF36E0150800FF35C02E10050C9
:10207000045C05E27F0E03012015206F04D0800E62
:1020800003012011206F080EE56E99EC25F0006E1B
:10209000F3CF01F0E6522BC302F0036A0250046E44
:1020A00004260334056ED89004360536D8900436DD
:1020B00005360550800FF36E0150800FF35C02E18E
:1020C0000050045C05E2FE0E03012115216F04D0CF
:1020D000010E03012111216F090EE56E99EC25F027
:1020E000006EF3CF01F0E6522BC302F0036A0250F8
:1020F000046E04260334056ED89004360536D89055
:10210000043605360550800FF36E0150800FF35CE6
:1021100002E10050045C05E2FD0E03012115216F70
:1021200004D0020E03012111216F0A0EE56E99EC15
:1021300025F0006EF3CF01F0E6522BC302F0036AE4
:102140000250046E04260334056ED890043605361A
:10215000D890043605360550800FF36E0150800F7D
:10216000F35C02E10050045C05E2FB0E0301211563
:10217000216F04D0040E03012111216F0B0EE56EB7
:1021800099EC25F0006EF3CF01F0E6522BC302F07C
:10219000036A0250046E04260334056ED890043698
:1021A0000536D890043605360550800FF36E015081
:1021B000800FF35C02E10050045C05E2F70E0301BE
:1021C0002115216F04D0080E03012111216FE4CFE6
:1021D00005F0E4CF04F0E4CF03F0E4CF02F0E4CF65
:1021E00001F0E4CF00F0120000C0E5FF01C0E5FF00
:1021F00002C0E5FF03C0E5FFABEC19F050EC0AF0BC
:10220000A6EC24F0006EF3CF01F0F4CF02F0E9CF9A
:1022100003F004013351005E3451015A3551025A22
:102220003651035A039E3F0E035C08E1FF0E025C29
:1022300005E1FF0E015C02E1FF0E005CD8B04BD15E
:10224000A6EC24F0F3CF01F0F4CF02F0E9CF03F0D5
:10225000880F0401336F130E0120346F000E02202B
:10226000356F000E0320366FE6EC25F0EFEC0EF034
:10227000006A81BC002A04017D5100182AE0006A2E
:1022800081BC002A04EE7DF000C0EFFF005011E099
:102290000301645107E022C300F0002A005003014B
:1022A000226F17D022C300F0000600500301226FF6
:1022B00010D00301645107E022C300F00006005073
:1022C0000301226F06D022C300F0002A0050030150
:1022D000226F006A81BE002A0301645100182AE0BF
:1022E000006A81BE002A03EE64F000C0EFFF0050D8
:1022F00011E004017D5107E122C300F0002A0050E3
:102300000301226F17D022C300F000060050030122
:10231000226F10D004017D5107E122C300F00006B6
:1023200000500301226F06D022C300F0002A0050A3
:102330000301226F006A80BA002A04017E5100184E
:102340002AE0006A80BA002A04EE7EF000C0EFFFA7
:10235000005011E00301655107E023C300F0002A9B
:1023600000500301236F17D023C300F00006005074
:102370000301236F10D00301655107E023C300F070
:10238000000600500301236F06D023C300F0002A8B
:1023900000500301236F006A80BC002A03016551CD
:1023A00000182AE0006A80BC002A03EE65F000C035
:1023B000EFFF005011E004017E5107E123C300F05C
:1023C000002A00500301236F17D023C300F000063A
:1023D00000500301236F10D004017E5107E123C395
:1023E00000F0000600500301236F06D023C300F065
:1023F000002A00500301236F006A80B8002A0401FC
:102400007F5100182AE0006A80B8002A04EE7FF0AD
:1024100000C0EFFF005011E00301665107E024C344
:1024200000F0002A00500301246F17D024C300F0ED
:10243000000600500301246F10D00301665107E02D
:1024400024C300F0000600500301246F06D024C30B
:1024500000F0002A00500301246F006A80BE002AA9
:102460000301665100182AE0006A80BE002A03EECC
:1024700066F000C0EFFF005011E004017F5107E15A
:1024800024C300F0002A00500301246F17D024C396
:1024900000F0000600500301246F10D004017F51AA
:1024A00007E124C300F0000600500301246F06D0AA
:1024B00024C300F0002A00500301246F0401372BCD
:1024C0003751140A08E10401376B03012C51006EE7
:1024D000002A00502C6FE4CF03F0E4CF02F0E4CFE9
:1024E00001F0E4CF00F01200800EE56E040EE56E00
:1024F000D30EE56EE9EC20F0030EE126800EE56ECA
:10250000040EE56EB30EE56EE9EC20F0030EE12655
:10251000800EE56E040EE56ED50EE56EE9EC20F05A
:10252000030EE126800EE56E040EE56EB50EE56E37
:10253000E9EC20F0030EE126800EE56E040EE56E58
:10254000D70EE56EE9EC20F0030EE126800EE56E75
:10255000040EE56EB70EE56EE9EC20F0030EE12601
:10256000800EE56E040EE56ED90EE56EE9EC20F006
:10257000030EE126800EE56E040EE56EB90EE56EE3
:10258000E9EC20F0030EE126800EE56E040EE56E08
:10259000DB0EE56EE9EC20F0030EE126800EE56E21
:1025A000040EE56EBB0EE56EE9EC20F0030EE126AD
:1025B000800EE56E040EE56EDD0EE56EE9EC20F0B2
:1025C000030EE126800EE56E040EE56EBD0EE56E8F
:1025D000E9EC20F0030EE126800EE56E040EE56EB8
:1025E000DF0EE56EE9EC20F0030EE126800EE56ECD
:1025F000040EE56EBF0EE56EE9EC20F0030EE12659
:10260000800EE56E040EE56EE10EE56EE9EC20F05D
:10261000030EE126800EE56E040EE56EC10EE56E3A
:10262000E9EC20F0030EE126800EE56E040EE56E67
:10263000E30EE56EE9EC20F0030EE126800EE56E78
:10264000040EE56EC30EE56EE9EC20F0030EE12604
:10265000800EE56E040EE56EE50EE56EE9EC20F009
:10266000030EE126800EE56E040EE56EC50EE56EE6
:10267000E9EC20F0030EE126800EE56E040EE56E17
:10268000E70EE56EE9EC20F0030EE126800EE56E24
:10269000040EE56EC70EE56EE9EC20F0030EE126B0
:1026A000800EE56E040EE56EE90EE56EE9EC20F0B5
:1026B000030EE126800EE56E040EE56EC90EE56E92
:1026C000E9EC20F0030EE126800EE56E040EE56EC7
:1026D000EB0EE56EE9EC20F0030EE126800EE56ED0
:1026E000040EE56ECB0EE56EE9EC20F0030EE1265C
:1026F000800EE56E040EE56EED0EE56EE9EC20F061
:10270000030EE126800EE56E040EE56ECD0EE56E3D
:10271000E9EC20F0030EE126800EE56E040EE56E76
:10272000EF0EE56EE9EC20F0030EE126800EE56E7B
:10273000040EE56ECF0EE56EE9EC20F0030EE12607
:10274000800EE56E040EE56EF10EE56EE9EC20F00C
:10275000030EE126800EE56E040EE56ED10EE56EE9
:10276000E9EC20F0030EE126120000C0E5FF01C0F5
:10277000E5FF02C0E5FF03C0E5FF0001E851D8B462
:102780000CD19DA81DD09EA81BD003017D51030133
:102790007B1905E1F7EC27F003017B6BFED0000EFF
:1027A00003017D25006E016A040E012200C0E9FFCD
:1027B00001C0EAFFEFCF77F37D2B77C3ADFFEDD0FC
:1027C0009DAAEBD09EAAE9D0ABA205D003017C81E3
:1027D000F7EC27F0E2D0ABA405D003017C83F7EC43
:1027E00027F0DBD0ABA048D0AECF77F3E9C000F044
:1027F000016A008E77C302F0036A0250001803E1F9
:102800000350011801E004D003017C89AB96C5D0C8
:102810000301775104E077510001E91929E103012F
:102820007C99AB960301775103E003017C9702D0BA
:1028300003017C8777C380F379C381F30301795166
:10284000006E00040301826F600E03018125006E9B
:10285000016A000E012200C0E9FF01C0EAFF77C350
:10286000EFFF812B8151800A02E10301816B95D03A
:1028700003017C99AB8691D0AECF77F303017CA99D
:1028800021D0E9C000F0016A008E77C302F0036A2C
:102890000250001803E10350011801E011D09D9A85
:1028A000AB98949003017B5104E1AD6AF7EC27F0FB
:1028B00007D000C4ADFF010E03017D6F9D886DD070
:1028C000AB866BD00301775103018027030181514F
:1028D000030182191BE1030180510CE181C379F3EB
:1028E00003017CB712D09D9AAB989490AD6AF7EC37
:1028F00027F00BD003017C857CB707D09D9AAB985D
:102900009490010EAD6EF7EC27F047D00301815192
:1029100003017A1908E103017A510301791903E0EF
:10292000F7EC27F03AD079C300F0016A004A012A97
:10293000E56A800EE56E0150E56E0050E56EDBEC59
:102940001DF0006E040EE12600500301786F0301B4
:1029500081190FE177C300F01F0E00140301826F8D
:10296000006E020E0024826F030179510301822759
:10297000829F81C300F00301812B016A600E002653
:10298000000E012200C0E9FF01C0EAFF77C3EFFF9C
:102990008151800A02E10301816BE4CF03F0E4CFAF
:1029A00002F0E4CF01F0E4CF00F01200D9CFE5FF50
:1029B000E1CFD9FF00C0E5FF01C0E5FF02C0E5FFA0
:1029C00003C0E5FF04C0E5FF05C0E5FF06C0E5FF65
:1029D00007C0E5FF020EDBCF00F0030EDBCF01F0F6
:1029E000040EDBCF02F0050EDBCF03F0060EDBCFCB
:1029F00004F0070EDBCF05F0080EDBCF06F0090E62
:102A0000DBCF07F000500401816F0150826F02504C
:102A1000836F0350846F04500401856F0550866FE7
:102A20000650876F0750886F0401815104018703A6
:102A3000F4CF01F0F3CF00F0005004018C6F01508F
:102A40008D6F0401815104018503F4CF01F0F3CFB0
:102A500000F0005004018A6F01508B6F0401845113
:102A600004018503F3CF00F004018D5100260050CE
:102A70008D6F0401835104018603F3CF01F00150EF
:102A80000026005004018D6F040183510401850369
:102A9000F4CF01F0F3CF00F004018C5100268D51EA
:102AA000012200508C6F01508D6F0401825104018E
:102AB0008603F4CF03F0F3CF02F002500026035058
:102AC0000122005004018C6F01508D6F040182516E
:102AD00004018703F3CF00F000500401916F04015B
:102AE000825104018503F4CF01F0F3CF00F00050D0
:102AF00004018F6F0150906F04018151040188031C
:102B0000F3CF00F000500301636F04018151040111
:102B10008603F4CF01F0F3CF00F000500301616FA2
:102B20000150626F04018E6B0301606B04018E51D2
:102B300004018A25006E04018F5104018B21016E6E
:102B40000401905104018C21026E04019151040191
:102B50008D21036E00508A6F01508B6F02508C6F75
:102B600003508D6F0301605104018A25006E03013B
:102B7000615104018B21016E0301625104018C211A
:102B8000026E0301635104018D21036E03C0E9FF4E
:102B900002C0F4FF01C0F3FF0050E4CF07F0E4CF20
:102BA00006F0E4CF05F0E4CF04F0E4CF03F0E4CF87
:102BB00002F0E4CF01F0E4CF00F0E4CFD9FF12003F
:102BC000D9CFE5FFE1CFD9FF00C0E5FF01C0E5FFA8
:102BD00002C0E5FF03C0E5FF04C0E5FF05C0E5FF57
:102BE00006C0E5FF07C0E5FF08C0E5FF09C0E5FF37
:102BF0000AC0E5FF0BC0E5FF0CC0E5FF0DC0E5FF17
:102C00000EC0E5FF0FC0E5FF020EDBCF00F0030EA4
:102C1000DBCF01F0040EDBCF02F0050EDBCF03F0BB
:102C2000060EDBCF04F0070EDBCF05F0080EDBCF7E
:102C300006F0200E076E086A06C009F00A6A0B6AE1
:102C40000C6AE56AE56AE56A0950E56E0350E56ECF
:102C50000250E56E0150E56E0050E56E5EEC17F037
:102C60000D6E080EE126300E0D263A0E0D5C05E3C2
:102C70000D500E6E270E0E240D6EFF0E0726082235
:102C8000400E07240E6E030E08200F6E0EC0E9FFE3
:102C90000FC0EAFF0DC0EFFF0C50E56E0B50E56E64
:102CA0000A50E56E0950E56E0350E56E0250E56E80
:102CB0000150E56E0050E56E8EEC18F0006EF3CF1B
:102CC00001F0F4CF02F0E9CF03F0080EE126005046
:102CD000011002100310D8A4AFD707C000F008C03D
:102CE00001F004C002F005C003F000C004F001C010
:102CF00005F0004A012A400E0426030E052204C0F6
:102D0000E9FF05C0EAFFEFCF04F002C0E9FF03C00E
:102D1000EAFF04C0EFFF024A032A000E015C02E151
:102D2000200E005CE2E302C0E9FF03C0EAFF000EF0
:102D3000EF6AE4CF0FF0E4CF0EF0E4CF0DF0E4CF74
:102D40000CF0E4CF0BF0E4CF0AF0E4CF09F0E4CFCD
:102D500008F0E4CF07F0E4CF06F0E4CF05F0E4CFCD
:102D600004F0E4CF03F0E4CF02F0E4CF01F0E4CFCD
:102D700000F0E4CFD9FF120000C0E5FF01C0E5FF7D
:102D800002C0E5FF03C0E5FF9EA68FD0C7CF00F0CD
:102D90002D0E00140301886F090A06E1010E0301DC
:102DA000876FC9CF89F380D003018851290A1CE1BC
:102DB000C9CF89F30301875104E0876B89C386F388
:102DC00073D0200E0301865DD8B06ED0200E86250C
:102DD000006E016A030E012200C0E9FF01C0EAFF94
:102DE00089C3EFFF862B60D088C300F02C0E00143F
:102DF000036A0C0A02E1035001E023D0C9CF89F332
:102E0000200E0301865D0EE2200E8625026E036A07
:102E1000030E032202C0E9FF03C0EAFFEFCF89F3EC
:102E2000862B02D003018969026AC7B0022A0250C8
:102E3000010AFAE0C69E89C3C9FFC6BEFCD7C68890
:102E400033D0030188512C0A23E1C6B821D0200ECB
:102E50000301865D0EE2200E8625026E036A030ED4
:102E6000032202C0E9FF03C0EAFFEFCF89F3862BFC
:102E700002D003018969026AC7B0022A0250010A1E
:102E8000FAE0C69E89C3C9FFC6BEFCD7C6880CD06F
:102E9000280E0016016A0050280A02E1015004E0E1
:102EA000C69EC69CC69AC68A9E96E4CF03F0E4CF1F
:102EB00002F0E4CF01F0E4CF00F01200D9CFE5FF3B
:102EC000E1CFD9FF00C0E5FF01C0E5FF02C0E5FF8B
:102ED00003C0E5FF04C0E5FF05C0E5FF06C0E5FF50
:102EE00007C0E5FF08C0E5FF09C0E5FF0AC0E5FF30
:102EF000020EDBCF00F0030EDBCF01F0040EDBCFC0
:102F000002F0050EDBCF03F0060EDBCF04F0070E58
:102F1000DBCF05F0080EDBCF06F0090EDBCF07F0A4
:102F2000086A045005100610071005E1E968F46806
:102F3000F368E86847D0096A0750800BE8440A6ED6
:102F40000A501BE1045004260536063607360750A2
:102F5000035C08E10650025C05E10550015C02E1FA
:102F60000450005C06E2D890073206320532043283
:102F700004D0092A09C008F0DFD70750035C08E134
:102F80000650025C05E10550015C02E10450005C62
:102F900008E30450005E0550015A0650025A0750DB
:102FA000035AD890073206320532043208C009F0BD
:102FB00008060950E2E103C0E9FF02C0F4FF01C0C6
:102FC000F3FF0050E4CF0AF0E4CF09F0E4CF08F0BB
:102FD000E4CF07F0E4CF06F0E4CF05F0E4CF04F04F
:102FE000E4CF03F0E4CF02F0E4CF01F0E4CF00F04F
:102FF000E4CFD9FF1200D9CFE5FFE1CFD9FF00C060
:10300000E5FF01C0E5FF02C0E5FF03C0E5FF04C026
:10301000E5FF05C0E5FF06C0E5FF07C0E5FF08C006
:10302000E5FF09C0E5FF0AC0E5FF020EDBCF00F0B7
:10303000030EDBCF01F0040EDBCF02F0050EDBCF79
:1030400003F0060EDBCF04F0070EDBCF05F00038EF
:10305000E8441F0B066E076A720E0626030E07224F
:1030600006C0E9FF07C0EAFFEFCF08F00050096E85
:10307000070E0916010E0A6E09500DE006E6E86C0F
:10308000D8900A36010FFDE306D0D8900ABED8804A
:103090000A32010FFBE308500A1206C0E9FF07C01D
:1030A000EAFF0AC0EFFF230E0024066E076A0F0E28
:1030B000072206C0E9FF07C0EAFF01C0EFFF016A6F
:1030C000230E0026040E0122800E025E070E021659
:1030D0000238F00B036E070E05160550032600C0DC
:1030E000E9FF01C0EAFF03C0EFFFE4CF0AF0E4CF3D
:1030F00009F0E4CF08F0E4CF07F0E4CF06F0E4CF26
:1031000005F0E4CF04F0E4CF03F0E4CF02F0E4CF25
:1031100001F0E4CF00F0E4CFD9FF1200D9CFE5FFF2
:10312000E1CFD9FF00C0E5FF01C0E5FF02C0E5FF28
:1031300003C0E5FF04C0E5FF05C0E5FF06C0E5FFED
:1031400007C0E5FF08C0E5FF09C0E5FF0AC0E5FFCD
:103150000BC0E5FF0CC0E5FF0DC0E5FF020EDBCFA5
:1031600000F0030EDBCF01F0040EDBCF02F0050E02
:10317000DBCF03F0060EDBCF04F0070EDBCF05F04C
:10318000080EDBCF06F0090EDBCF07F0086A096AEC
:103190000A6A0B6A200E0C6E0350800BE8440D6E19
:1031A000005000260136023603360850082609363C
:1031B0000A360B360D50D8A4088007500B5C08E186
:1031C00006500A5C05E10550095C02E10450085C08
:1031D00009E30450085E0550095A06500A5A075080
:1031E0000B5A00800C040D6E0DC00CF00D50D4E194
:1031F00003C0E9FF02C0F4FF01C0F3FF0050E4CFB9
:103200000DF0E4CF0CF0E4CF0BF0E4CF0AF0E4CF04
:1032100009F0E4CF08F0E4CF07F0E4CF06F0E4CF04
:1032200005F0E4CF04F0E4CF03F0E4CF02F0E4CF04
:1032300001F0E4CF00F0E4CFD9FF120000C0E5FFB9
:1032400001C0E5FF03C0E5FF04C0E5FF05C0E5FFE1
:1032500006C0E5FF07C0E5FF08C0E5FF09C0E5FFC0
:103260000AC0E5FF0BC0E5FF70C300F071C301F0B9
:103270000301703F01D0712B0050E56EE9EC27F09F
:10328000E652076E046A056A066A70C300F071C3ED
:1032900001F00301703F01D0712B0050E56EE9ECA5
:1032A00027F0E6520B6A0A6E086A085004120512EB
:1032B0000A5006120B50071270C300F071C301F0E0
:1032C0000301703F01D0712B0050E56EE9EC27F04F
:1032D000E652036E006A03C001F0E86A03BEFF0E07
:1032E000086E096E005004120150051208500612B3
:1032F0000950071270C300F071C301F00301703F61
:1033000001D0712B0050E56EE9EC27F0E652016A1E
:103310000412015005120612071207C0E9FF06C089
:10332000F4FF05C0F3FF0450E4CF0BF0E4CF0AF044
:10333000E4CF09F0E4CF08F0E4CF07F0E4CF06F0E3
:10334000E4CF05F0E4CF04F0E4CF03F0E4CF01F0E4
:10335000E4CF00F0120000C0E5FF01C0E5FF02C0AD
:10336000E5FF03C0E5FF03017A510301791901E18B
:1033700063D07AC300F0002A009E016A600E002626
:10338000000E012200C0E9FF01C0EAFFEFCF84F385
:103390001F0E030184177AC383F38451030183272B
:1033A0008351006E020E0024836F839FFAEC24F099
:1033B000006E005003E1006A002A01D0006AFAECB6
:1033C00024F00301846F84C301F0800E011684C3CE
:1033D00002F01F0E021602C003F002C084F3035075
:1033E00003E179C37AF33BD000501EE0015022E0A4
:1033F000FAEC24F0006E03018451026E0204846F23
:103400000050420A17E000504E0A03E162EC22F03D
:1034100011D00050460A03E12BEC28F00BD00050ED
:10342000490A08E1FF0006D07AC385F30150D8B4F9
:1034300085EC21F083C37AF30001E5510001E61920
:1034400006E003017B5103E1C4EC1AF008D094B00C
:1034500006D003017B5103E1ACB2F7EC27F0E4CFD7
:1034600003F0E4CF02F0E4CF01F0E4CF00F012006B
:10347000D9CFE5FFE1CFD9FF00C0E5FF01C0E5FFEF
:1034800002C0E5FF03C0E5FF04C0E5FF05C0E5FF9E
:1034900006C0E5FF07C0E5FF020EDBCF00F0030E1C
:1034A000DBCF01F0040EDBCF02F0050EDBCF03F023
:1034B00002C006F00650046E800A33E100C0E9FF46
:1034C00001C0F3FF025084EC26F0056EF3CF06F046
:1034D000F4CF07F003C0E5FF05C0E9FF06C0F3FF26
:1034E000075041EC28F000C0E9FF01C0F3FF025093
:1034F00084EC26F0056EF3CF06F0F4CF07F0052A32
:1035000002E3064A072A05C0E5FF06C0F4FF07C02C
:10351000F6FF00C0E9FF01C0F3FF0250DAEC27F02C
:1035200020D004C000F000AA1CD0007A0050046E25
:1035300004E103507AEC28F014D00450010A04E1AD
:10354000035002EC00F00DD004500F0A04E10350C8
:1035500076EC24F006D004500E0A03E103508DEC03
:1035600028F0E4CF07F0E4CF06F0E4CF05F0E4CF95
:1035700004F0E4CF03F0E4CF02F0E4CF01F0E4CFB5
:1035800000F0E4CFD9FF120000C0E5FF01C0E5FF65
:1035900002C0E5FF03C0E5FFACA277D02AEC26F01D
:1035A000006E005005E10001E66B0001E56B6DD097
:1035B000E6C001F0005001262AEC26F0026E00065B
:1035C0000250230A1FE1010E005CD8A05CD02AEC57
:1035D00026F0036E690A03E145EC24F054D0035051
:1035E000720A03E1F7EC27F04ED00350730A01E0B2
:1035F0004AD09480AB869D8A9D98AE50AE50AB98D1
:10360000AB8841D00250430A05E00250420A01E073
:103610003AD001D0008E03017D6B00C07EF30050D4
:103620000401006F03017D2B0001E651011814E035
:103630002AEC26F0006E03017E27000E03017D2593
:10364000026E036A040E032202C0E9FF03C0EAFF10
:1036500000C0EFFF7D2BE8D7000E03017D25006E33
:10366000026A040E022203017E1D036E032A00C0BB
:10367000E9FF02C0EAFF03C0EFFF03017D2B7DC31A
:103680007BF30301756B01C0E6F0E4CF03F0E4CFF8
:1036900002F0E4CF01F0E4CF00F01200D9CFE5FF53
:1036A000E1CFD9FF00C0E5FF01C0E5FF02C0E5FFA3
:1036B00003C0E5FF04C0E5FF05C0E5FF020EDBCF58
:1036C00000F09488820E016E0F0E026E0F0E046ED3
:1036D000380E0126045002220F0E046E800E015E89
:1036E0000450025A820E036E0F0E046E0F0E056E0A
:1036F000380E0326055004220F0E056E800E035E61
:103700000550045A03C0E9FF04C0EAFFEFCF03F0FD
:10371000039801C0E9FF02C0EAFF03C0EFFF9486EF
:10372000820E016E0F0E026E0F0E046E380E012611
:10373000045002220F0E046E800E015E0450025AE5
:10374000820E036E0F0E046E0F0E056E380E0326EA
:10375000055004220F0E056E800E035E0550045ABC
:1037600003C0E9FF04C0EAFFEFCF03F0039601C0F6
:10377000E9FF02C0EAFF03C0EFFF360EC66E004449
:10378000FE0BC86E9F969E969D860301866B030175
:10379000876BE4CF05F0E4CF04F0E4CF03F0E4CF8F
:1037A00002F0E4CF01F0E4CF00F0E4CFD9FF120043
:1037B000D9CFE5FFE1CFD9FF00C0E5FF01C0E5FFAC
:1037C00002C0E5FF03C0E5FF04C0E5FF05C0E5FF5B
:1037D00006C0E5FF020EDBCF00F0030EDBCF01F0E9
:1037E000040EDBCF02F0050EDBCF03F003C004F0C4
:1037F000056A0350D8B453D000C0E9FF01C0F3FFFD
:103800000250B9EC27F0066E430A03E1010E056E83
:10381000038E0406002A02E3014A022A9D9AAB980D
:1038200094909D989EA8FED7AC80AD6A00009EA89B
:10383000FED7AC9003C0ADFF00009EA8FED7055098
:1038400005E0420EAD6E0324056E05D0620EAD6E2E
:10385000620E0324056E04C003F0035015E000005F
:103860009EA8FED700C0E9FF01C0F3FF0250B9ECEB
:1038700027F0046E04C0ADFF045005260306002A9D
:1038800002E3014A022AE9D700009EA8FED7051CE0
:10389000AD6EAD2A00009EA8FED7F7EC27F0E4CF6E
:1038A00006F0E4CF05F0E4CF04F0E4CF03F0E4CF7A
:1038B00002F0E4CF01F0E4CF00F0E4CFD9FF120032
:1038C00000C0E5FF01C0E5FF02C0E5FF03C0E5FF62
:1038D00004C0E5FF006A720E0024016E026A030E46
:1038E000022201C0E9FF02C0EAFFEF6A002A020ECD
:1038F000005CF1E3006A0050020DF450026EF3CF59
:1039000001F0390E0124036E040E0220046E03C080
:10391000E9FF04C0EAFFEE6AEF6A590E0124036E64
:10392000040E0220046E03C0E9FF04C0EAFFEE6A41
:10393000EF6A930E0124036E040E0220046E03C08E
:10394000E9FF04C0EAFFEE6AEF6AB30E0124036EDA
:10395000040E0220046E03C0E9FF04C0EAFFEE6A11
:10396000EF6AD30E0126040E022201C0E9FF02C055
:10397000EAFFEE687F0EEF6E230E0024016E026AEE
:10398000040E022201C0E9FF02C0EAFFEF68002A2C
:10399000100E005CD8A0AFD7AF0EC06EC16A010E8A
:1039A000C26EC282E4CF04F0E4CF03F0E4CF02F0B1
:1039B000E4CF01F0E4CF00F0120043204120256461
:1039C0002025640A0000D9CFE5FFE1CFD9FF00C070
:1039D000E5FF01C0E5FF02C0E5FF03C0E5FF04C04D
:1039E000E5FF05C0E5FF06C0E5FF07C0E5FF020EE5
:1039F000DBCF00F0030EDBCF01F0040EDBCF02F0D3
:103A0000050EDBCF03F0E6C0E7F00001E551000151
:103A1000E75FE751046E0404E76F03C004F0056A32
:103A2000030E0426D8B0052AE7C006F0076A07503F
:103A3000800FF36E0550800FF35C02E10450065CCA
:103A400002E2E8682ED0020E035C02E2E86A29D0A6
:103A500003060350E56E60EC23F0E652046A03505F
:103A6000045C14E204500024056EE86A0120066E2E
:103A7000E86A022005C0E9FF06C0F3FFB9EC27F0B1
:103A8000042AE56E60EC23F0E652E9D7E6C0E7F0E1
:103A90000001E5510001E75FE751006E0004E76FA8
:103AA000E86AE4CF07F0E4CF06F0E4CF05F0E4CF16
:103AB00004F0E4CF03F0E4CF02F0E4CF01F0E4CF70
:103AC00000F0E4CFD9FF1200D9CFE5FFE1CFD9FF55
:103AD00000C0E5FF01C0E5FF02C0E5FF03C0E5FF50
:103AE00004C0E5FF05C0E5FF020EDBCF00F0030ECA
:103AF000DBCF01F0040EDBCF02F00050020DF450DA
:103B0000036EF3CF00F0590E0024046E040E032060
:103B1000056E04C0E9FF05C0EAFF01C0EEFF02C068
:103B2000EFFF930E0024046E040E0320056E04C004
:103B3000E9FF05C0EAFFEECF04F0EFCF05F001503A
:103B4000045C016E02500558026E000E0026030E42
:103B5000032200C0E9FF03C0EAFF01C0EEFF02C07C
:103B6000EFFFD88002AED89004E3021E016CD8B4F7
:103B7000022A0250800F800F02E1030E015C02E274
:103B8000016A026A0150021007E100C0E9FF03C0A8
:103B9000EAFF000EEE6AEF6AE4CF05F0E4CF04F02E
:103BA000E4CF03F0E4CF02F0E4CF01F0E4CF00F083
:103BB000E4CFD9FF1200D9CFE5FFE1CFD9FF00C094
:103BC000E5FF01C0E5FF02C0E5FF03C0E5FF04C05B
:103BD000E5FF05C0E5FF06C0E5FF020EDBCF00F004
:103BE000030EDBCF01F0040EDBCF02F0050EDBCFBE
:103BF00003F0D88001AED890046A0436045007E080
:103C0000011C066E001C056E054A062A04D000C081
:103C100005F001C006F0D88003AED89007E3031C7E
:103C2000016E021C006E004A012A04D002C000F09E
:103C300003C001F00150E56E0050E56E0650E56EE0
:103C40000550E56EEAEC1FF0006EF3CF01F0040EB4
:103C5000E12604500AE0011C036E001C026E024AB9
:103C6000032A03C0F3FF025003D001C0F3FF00504A
:103C7000E4CF06F0E4CF05F0E4CF04F0E4CF03F0A6
:103C8000E4CF02F0E4CF01F0E4CF00F0E4CFD9FFBD
:103C90001200D9CFE5FFE1CFD9FF00C0E5FF01C099
:103CA000E5FF02C0E5FF03C0E5FF04C0E5FF05C076
:103CB000E5FF020EDBCF00F0030EDBCF01F0040EB8
:103CC000DBCF02F0050EDBCF03F070C304F071C34D
:103CD00005F00301703F01D0712B0350E56E0450D5
:103CE000E56ED0EC24F0E652E65270C304F071C3E6
:103CF00005F00301703F01D0712B0250056EE56E97
:103D00000450E56ED0EC24F0E652E65270C304F0A5
:103D100071C305F00301703F01D0712B0150E56EB6
:103D20000450E56ED0EC24F0E652E65270C304F085
:103D300071C305F00301703F01D0712B0050E56E97
:103D40000450E56ED0EC24F0E652E652E4CF05F0E4
:103D5000E4CF04F0E4CF03F0E4CF02F0E4CF01F0CD
:103D6000E4CF00F0E4CFD9FF1200D9CFE5FFE1CFD7
:103D7000D9FF00C0E5FF01C0E5FF02C0E5FF03C0B9
:103D8000E5FF04C0E5FF05C0E5FF06C0E5FF020E44
:103D9000DBCF00F0030EDBCF01F00038E8441F0B4F
:103DA000026E036A720E0226030E032202C0E9FFAE
:103DB00003C0EAFFEFCF04F00050056E070E0516B2
:103DC000010E066E05500DE006E6E86CD89006364A
:103DD000010FFDE306D0D89006BED8800632010F51
:103DE000FBE30450061202C0E9FF03C0EAFF06C06D
:103DF000EFFF230E0024026E036A0F0E032202C09F
:103E0000E9FF03C0EAFF01C0EFFF016A230E0026AD
:103E1000040E012200C0E9FF01C0EAFFFF0EEF68B7
:103E2000E4CF06F0E4CF05F0E4CF04F0E4CF03F0F4
:103E3000E4CF02F0E4CF01F0E4CF00F0E4CFD9FF0B
:103E40001200D9CFE5FFE1CFD9FF00C0E5FF01C0E7
:103E5000E5FF02C0E5FF03C0E5FF04C0E5FF05C0C4
:103E6000E5FF06C0E5FF020EDBCF00F0030EDBCF5F
:103E700001F0040EDBCF02F00301745119E11EECD6
:103E800019F0036EF3CF04F0F4CF05F0E9CF06F09C
:103E900003C0E5FF04C0F4FF05C0F6FF06C0F7FF4E
:103EA00000C0E9FF01C0F3FF0250A8EC27F01ED0CC
:103EB00003017451010A1AE100C0E9FF01C0F3FFD8
:103EC00002500AEC26F0006EF3CF01F0F4CF02F0BE
:103ED000E9CF03F00350E56E0250E56E0150E56E48
:103EE0000050E56E49EC1EF0040EE126E4CF06F02A
:103EF000E4CF05F0E4CF04F0E4CF03F0E4CF02F028
:103F0000E4CF01F0E4CF00F0E4CFD9FF1200D9CF25
:103F1000E5FFE1CFD9FF00C0E5FF01C0E5FF02C02A
:103F2000E5FF03C0E5FF04C0E5FF05C0E5FF06C0EF
:103F3000E5FF020EDBCF00F0030EDBCF01F0040E35
:103F4000DBCF02F0050EDBCF03F0060EDBCF04F073
:103F5000070EDBCF05F0080EDBCF06F0D88003AEEE
:103F6000D89015E306500A0A12E104C0E9FF05C023
:103F7000EAFF2D0EEF6E044A052A031E021E011EE3
:103F8000006C05E1012A03E1022AD8B4032A065095
:103F9000E56E0550E56E0450E56E0350E56E025087
:103FA000E56E0150E56E0050E56EE0EC15F0070E91
:103FB000E126E4CF06F0E4CF05F0E4CF04F0E4CF4F
:103FC00003F0E4CF02F0E4CF01F0E4CF00F0E4CF5F
:103FD000D9FF1200D9CFE5FFE1CFD9FF00C0E5FF3F
:103FE00001C0E5FF02C0E5FF03C0E5FF04C0E5FF37
:103FF00005C0E5FF06C0E5FF020EDBCF00F0030EB3
:10400000DBCF01F0040EDBCF02F0050EDBCF03F0B7
:10401000046A056A0350800BE844066E065011E1FD
:104020000250022603360350015C02E10250005C9C
:1040300004E2D8900332023204D0052A05C004F00D
:10404000E9D70350015C02E10250005C04E3025036
:10405000005E0350015AD8900332023204C005F0CA
:1040600004060550EEE101C0F3FF0050E4CF06F076
:10407000E4CF05F0E4CF04F0E4CF03F0E4CF02F0A6
:10408000E4CF01F0E4CF00F0E4CFD9FF120000C08C
:10409000E5FF01C0E5FF02C0E5FF03C0E5FF7AC30D
:1040A00000F0016A85C302F0036A0250005E03500B
:1040B000015AE56A800EE56E0150E56E0050E56E2E
:1040C000DBEC1DF0006E040EE126000685C301F056
:1040D000430E76EC24F0200E76EC24F0005020E025
:1040E000600E0124026E036A000E032202C0E9FF83
:1040F00003C0EAFFEFCF02F0E56A0250E56E000E62
:10410000E56E500EE56E060EE56EA4EC22F0050E8F
:10411000E126012A0150800A01E1016A0006DED78A
:10412000E4CF03F0E4CF02F0E4CF01F0E4CF00F0FD
:104130001200D8CFE5FFE0CFE5FFE56EF3CFE5FF56
:10414000F4CFE5FFE9CFE5FFEACFE5FFFACFE5FFE2
:10415000FBCFE5FF00C0E5FF01C0E5FF0001E35133
:104160000F01356F0001E4510F01366FD650336FE8
:10417000D750346FF2A417D0E3C000F0E4C001F0D0
:104180000050010F0001E36F000E0120E46FF29474
:10419000E3510F01356F0001E4510F01366FD65026
:1041A000336FD750346FE4CF01F0E4CF00F0E4CFA9
:1041B000FBFFE4CFFAFFE4CFEAFFE4CFE9FFE4CF6F
:1041C000F4FFE4CFF3FFE450E4CFE0FFE4CFD8FF07
:1041D0001000D9CFE5FFE1CFD9FF00C0E5FF01C056
:1041E000E5FF02C0E5FF03C0E5FF04C0E5FF020EE6
:1041F000DBCF00F0030EDBCF01F0040EDBCF02F0CB
:104200000301745111E111EC24F0036EF3CF04F0BB
:1042100003C0E5FF04C0F4FF00C0E9FF01C0F3FFE5
:10422000025013EC28F016D003017451010A12E178
:1042300000C0E9FF01C0F3FF025043EC27F0006E1D
:10424000F3CF01F00150E56E0050E56E23EC23F052
:10425000E652E652E4CF04F0E4CF03F0E4CF02F0FC
:10426000E4CF01F0E4CF00F0E4CFD9FF1200DC0E80
:10427000F66E500EF76E000EF86E0900F550056EE2
:104280000900F550066E04E1056702D084EF21F0C5
:104290000900F550006E0900F550016E0900F55057
:1042A000026E09000900F550E96E0900F550EA6E4A
:1042B000090009000900F550036E0900F550046E6D
:1042C00009000900F6CF07F0F7CF08F0F8CF09F0A2
:1042D00000C0F6FF01C0F7FF02C0F8FF035002E183
:1042E000045007E00900F550EE6E0306F8E20406FC
:1042F000F9D707C0F6FF08C0F7FF09C0F8FF0506A9
:1043000001E2060643EF21F0120000C0E5FF01C004
:10431000E5FF02C0E5FF03C0E5FFFAEC24F0006E04
:10432000010A20E1FAEC24F0016E200E0124026E55
:10433000036A030E032202C0E9FF03C0EAFFEFCFC6
:1043400002F0E56A0250E56EE56A0150E56E000E86
:10435000E56E0F0EE56E940EE56EA4EC22F0070EEE
:10436000E12614D00050020A11E1FAEC24F0006EAC
:10437000FAEC24F0016E026A200E0026030E0222DF
:1043800000C0E9FF02C0EAFF01C0EFFFE4CF03F085
:10439000E4CF02F0E4CF01F0E4CF00F01200D9CF77
:1043A000E5FFE1CFD9FF00C0E5FF01C0E5FF02C096
:1043B000E5FF03C0E5FF04C0E5FF020EDBCF00F020
:1043C0000038E8441F0B016E026A720E0126030ECC
:1043D000022201C0E9FF02C0EAFFEFCF03F0070E9F
:1043E0000016010E046E00500DE006E6E86CD89051
:1043F0000436010FFDE306D0D89004BED880043205
:10440000010FFBE3041C006E0350001601C0E9FF1E
:1044100002C0EAFF00C0EFFFE4CF04F0E4CF03F0F6
:10442000E4CF02F0E4CF01F0E4CF00F0E4CFD9FF15
:104430001200D9CFE5FFE1CFD9FF00C0E5FF01C0F1
:10444000E5FF02C0E5FF03C0E5FF04C0E5FF05C0CE
:10445000E5FF020EDBCF00F00050010A22E1016A05
:104460000150020DF450036EF3CF02F0B30E02249C
:10447000046E040E0320056E04C0E9FF05C0EAFFC8
:10448000EE687F0EEF6ED30E0226040E032202C0EA
:10449000E9FF03C0EAFFEE6AEF6A012A100E015C31
:1044A000DFE300C0EBF0E4CF05F0E4CF04F0E4CFAD
:1044B00003F0E4CF02F0E4CF01F0E4CF00F0E4CF6A
:1044C000D9FF120000C0E5FF01C0E5FF02C0E5FF13
:1044D000FAEC24F0006EFAEC24F0016ED00E002607
:1044E0000A0E005C05E30050026EF90E0224006E15
:1044F000D00E01260A0E015C05E30150026EF90E92
:104500000224016E080E005C03E2100E015CD8B0BC
:1045100014D00038F00B0124006E016AD7EC23F0B0
:10452000026E025002E0010E016E0150010A05E028
:104530000050E56EB9EC26F0E652E4CF02F0E4CF8D
:1045400001F0E4CF00F01200D9CFE5FFE1CFD9FFB1
:1045500000C0E5FF01C0E5FF02C0E5FF020ED9245F
:10456000006E000EDA20016E800E026E030E002631
:10457000000E012202220250E56E0150E56E00504D
:10458000E56E040EDBCFE5FF030EDBCFE5FF020E89
:10459000DBCFE5FF03016951E56E6851E56E6751B8
:1045A000E56E0EEC00F0006EF3CF01F0090EE1268F
:1045B00001C0F3FF0050E4CF02F0E4CF01F0E4CFFC
:1045C00000F0E4CFD9FF1200D9CFE5FFE1CFD9FF4A
:1045D00000C0E5FF01C0E5FF02C0E5FF03C0E5FF45
:1045E000020EDBCF00F0030EDBCF01F0040EDBCFB9
:1045F00002F0030174510DE117EC27F0036E03C0C4
:10460000E5FF00C0E9FF01C0F3FF025041EC28F0D4
:104610000FD003017451010A0BE100C0E9FF01C092
:10462000F3FF0250B9EC27F0E56EC0EC25F0E6523E
:10463000E4CF03F0E4CF02F0E4CF01F0E4CF00F0E8
:10464000E4CFD9FF1200D9CFE5FFE1CFD9FF00C0F9
:10465000E5FF01C0E5FF02C0E5FF03C0E5FF020E74
:10466000DBCF00F0030EDBCF01F070C302F071C3AB
:1046700003F00301703F01D0712B0150E56E025031
:10468000E56ED0EC24F0E652E65270C302F071C33E
:1046900003F00301703F01D0712B0050E56E025012
:1046A000E56ED0EC24F0E652E652E4CF03F0E4CF1E
:1046B00002F0E4CF01F0E4CF00F0E4CFD9FF120024
:1046C000D9CFE5FFE1CFD9FF00C0E5FF01C0E5FF8D
:1046D00002C0E5FF03C0E5FF04C0E5FF020EDBCF2B
:1046E00000F0E5C001F0026A014A022AE6C003F0C8
:1046F000046A0150031803E10250041801E001D0DC
:104700000ED0000E0001E525016E026A010E0222A4
:1047100001C0E9FF02C0EAFF00C0EFFFE52BE4CFD4
:1047200004F0E4CF03F0E4CF02F0E4CF01F0E4CFF3
:1047300000F0E4CFD9FF1200D9CFE5FFE1CFD9FFD8
:1047400000C0E5FF01C0E5FF02C0E5FF03C0E5FFD3
:10475000020EDBCF00F0016A85C302F0036A02504B
:10476000002603500122E56A800EE56E0150E56ED9
:104770000050E56EDBEC1DF0006EF3CF01F0040E8F
:10478000E126600E0026000E012200C0E9FF01C0F4
:10479000EAFFEFCF00F00050E4CF03F0E4CF02F0E7
:1047A000E4CF01F0E4CF00F0E4CFD9FF120000C065
:1047B000E5FF01C0E5FF02C0E5FF010E006EFAEC67
:1047C00024F0016E01C002F0015023E00050E56EBC
:1047D000E9EC27F0016EE652015010E10A0E005C90
:1047E0000BE20A0E006EE56EE9EC27F0016EE65270
:1047F000015004E1E8680ED0E8680CD001500218BE
:1048000002E0E86807D0002A1B0E005CD8E3E868E5
:1048100001D0E86AE4CF02F0E4CF01F0E4CF00F089
:10482000120000C0E5FF01C0E5FF02C0E5FF03C0C4
:10483000E5FF70C300F071C301F00301703F01D0C8
:10484000712B0050E56EE9EC27F0E652036E026A28
:1048500070C300F071C301F00301703F01D0712BF0
:104860000050E56EE9EC27F0E652016A02120150B1
:10487000031203C0F3FF0250E4CF03F0E4CF02F0D1
:10488000E4CF01F0E4CF00F012000001E56B00017D
:10489000E66B0001E76994808B909480B06A3F0ECC
:1048A000AF6EB886AC8AAC84AC8CAC90AB8CAB8E63
:1048B00003017C6B0301766B0301796B03017A6B57
:1048C00003017B6B000EE56AE9EC27F00001E96F5C
:1048D000E6529F989F9A010E0001E86F0301676BF3
:1048E000686B2F0E696FF7EC27F0120000C0E5FF30
:1048F00001C0E5FF02C0E5FF006E000E0001EA25E1
:10490000016E026A0F0E022201C0E9FF02C0EAFF37
:1049100000C0EFFF220EEA5DD8A0EA2B00500A0A81
:104920000EE10001EA51E56E800EE56E0F0EE56EB8
:10493000000EE56EE3EC1CF0040EE126EA6BE4CF1A
:1049400002F0E4CF01F0E4CF00F012000001E351E7
:1049500004017B6F0001E45104017C6FD650796F34
:10496000D7507A6F7B510001E31905E104017C51B6
:104970000001E4190CE00001E35104017B6F000128
:10498000E45104017C6FD650796FD7507A6F7CC4A4
:10499000E9FF7BC4F4FF7AC4F3FF040179511200EC
:1049A000D9CFE5FFE1CFD9FF00C0E5FF01C0E5FFAA
:1049B000020EDBCF00F0030EDBCF01F0F29EF29C83
:1049C00001C0A8FF00C0A9FFA69EA69CA684550E04
:1049D000A76EAA0EA76EA682F28EF28CA694A6A24D
:1049E00002D00000FCD7E4CF01F0E4CF00F0E4CF28
:1049F000D9FF120000C0E5FF01C0E5FF03017A51B5
:104A00000301831905E003017A510301791902E1D9
:104A1000E86A15D07AC300F003017A2B016A600EB0
:104A20000026000E012200C0E9FF01C0EAFFEFCF1F
:104A300000F07A51800A02E103017A6B0050E4CF62
:104A400001F0E4CF00F01200D8CFE5FFE0CFE5FFA2
:104A5000E56EF3CFE5FFF4CFE5FFE9CFE5FFEACF61
:104A6000E5FFFACFE5FFFBCFE5FFB5EC13F081ECF6
:104A700028F0E4CFFBFFE4CFFAFFE4CFEAFFE4CF76
:104A8000E9FFE4CFF4FFE4CFF3FFE450E4CFE0FF2D
:104A9000E4CFD8FF100000C0E5FF7EEC28F0040151
:104AA000896B806B8983006A89B3002A0050010BEF
:104AB000E844F46E8051FD0BF410806FD58ED59CC8
:104AC000D59AD588D596D594D582D580F28AF184A9
:104AD000D08EF28EF28CBA80FF0EBB68BA84E4CF1F
:104AE00000F01200D9CFE5FFE1CFD9FF00C0E5FF0C
:104AF00001C0E5FF020EDBCF00F00050020DF450C4
:104B0000016EF3CF00F0000E0026030E012200C05C
:104B1000E9FF01C0EAFFEECF00F0EFCF01F001C0E6
:104B2000F3FF0050E4CF01F0E4CF00F0E4CFD9FF71
:104B30001200D9CFE5FFE1CFD9FF00C0E5FF01C0EA
:104B4000E5FF020EDBCF00F00050020DF450016EC5
:104B5000F3CF00F0390E0026040E012200C0E9FF59
:104B600001C0EAFFEECF00F0EFCF01F001C0F3FF8C
:104B70000050E4CF01F0E4CF00F0E4CFD9FF120001
:104B8000D9CFE5FFE1CFD9FF00C0E5FF01C0E5FFC8
:104B900002C0E5FF020EDBCF00F070C301F071C36D
:104BA00002F00301703F01D0712B0050E56E0150FF
:104BB000E56ED0EC24F0E652E652E4CF02F0E4CF0A
:104BC00001F0E4CF00F0E4CFD9FF120000C0E5FF10
:104BD000006A03012A51FF0A01E1002A0001E151A4
:104BE000001815E000C0E1F00001E1510EE0C66AD6
:104BF0009B9C0001E051E56E4EEC1BF0E652000E6E
:104C0000E56A2DEC27F0E65202D00EEC04F0E4CF7A
:104C100000F01200E8AE0AD0F3CFEAFFEE50EECF7C
:104C2000F3FFEECFF4FFEECFE9FF1200E8BC94EF04
:104C300028F0E9CFF6FFF3CFF7FFF86E0900F55043
:104C40000900F5CFF3FF0900F5CFF4FF0900F5CF18
:104C5000E9FF120000C0E5FF01C0E5FF0001E551DA
:104C60000001E61902E1E86A0FD0000E0001E62516
:104C7000006E016A010E012200C0E9FF01C0EAFFD7
:104C8000EFCF00F0E62B0050E4CF01F0E4CF00F0CE
:104C90001200F2CFEAFFF29EA69EA69CA684E9CF60
:104CA000A9FFF3CFAAFFE4CFA8FF56EC28F0F4CF7A
:104CB000A8FF56EC28F0F6CFA8FF56EC28F0F7CF67
:104CC000A8FF56EC28F0A694EABEF28E1200F2CFAE
:104CD000F6FFF29EA69EA69CE9CFA9FFF3CFAAFFFE
:104CE000A680A850A94AAA2AA680A8CFF3FFA94A5D
:104CF000AA2AA680A8CFF4FFA94AAA2AA680A8CFEC
:104D0000EAFFF6BEF28E1200E8AE08D0F3CFEAFF5B
:104D1000EE50EECFF3FFEECFF4FF1200E8BC9CEFB5
:104D200028F0E9CFF6FFF3CFF7FFF86E0900F55052
:104D30000900F5CFF3FF0900F5CFF4FF1200F2CF21
:104D4000EAFFF29EA69EA69CA684E9CFA9FFF3CF18
:104D5000AAFFE4CFA8FF56EC28F0F4CFA8FF56EC4A
:104D600028F0F6CFA8FF56EC28F0A694EABEF28E03
:104D70001200D9CFE5FFE1CFD9FF00C0E5FF020E59
:104D8000DBCF00F000C0E9F00050E56E000EE56AF0
:104D9000D0EC24F0E652E652E4CF00F0E4CFD9FFA5
:104DA0001200F2CFF6FFF29EA69EA69CE9CFA9FFC5
:104DB000F3CFAAFFA680A850A94AAA2AA680A8CF06
:104DC000F3FFA94AAA2AA680A8CFF4FFF6BEF28E66
:104DD000120000C0E5FF01C0E5FF600E03017A2567
:104DE000006E016A000E012200C0E9FF01C0EAFF67
:104DF000EFCF00F00050E4CF01F0E4CF00F012005C
:104E0000D9CFE5FFE1CFD9FF00C0E5FF020EDBCF30
:104E100000F0610E005C05E37B0E005C02E2010E17
:104E200001D0E86AE4CF00F0E4CFD9FF120000C05F
:104E3000E5FF01C0E5FF70C300F071C301F003019D
:104E4000703F01D0712B0050E56EE9EC27F0E6527F
:104E5000E4CF01F0E4CF00F01200D9CFE5FFE1CFBD
:104E6000D9FF00C0E5FF020EDBCF00F000C0E8F084
:104E7000005004E1F7EC27F09D9A9D98E4CF00F0F4
:104E8000E4CFD9FF1200E8AE06D0F3CFEAFFEE5030
:104E9000EECFF3FF1200E8BC92EF28F0E9CFF6FF67
:104EA000F3CFF7FFF86E0900F5500900F5CFF3FFD7
:104EB0001200F2CFEAFFF29EA69EA69CA684E9CF3E
:104EC000A9FFF3CFAAFFE4CFA8FF56EC28F0F4CF58
:104ED000A8FF56EC28F0A694EABEF28E120012EE5D
:104EE000FFF022EEFFF0F86AA68EA69CE9680E0E8F
:104EF000EA6E0068000EED6A0050FDE137EC21F02B
:104F000006EC00F0FFD7F2CFF6FFF29EA69EA69C1D
:104F1000E9CFA9FFF3CFAAFFA680A850A94AAA2AE1
:104F2000A680A8CFF3FFF6BEF28E1200F2CFEAFF02
:104F3000F29EA69EA69CA684E9CFA9FFF3CFAAFF66
:104F4000E4CFA8FF56EC28F0A694EABEF28E120039
:104F5000E8AE0BD0F3CFEAFFE4CFEEFFF4CFEEFFE5
:104F6000F6CFEEFFF7CFEEFF1200E8BC96EF28F089
:104F70001200E8AE04D0F3CFEAFFEE501200E8BC16
:104F800090EF28F0E9CFF6FFF3CFF7FFF86E0900B6
:104F9000F550120010000000000000FF00000000AB
:104FA00007000200000042000000000000000000B6
:104FB00000000000E8AE09D0F3CFEAFFE4CFEEFF37
:104FC000F4CFEEFFF6CFEEFF1200E8BC9EEF28F024
:104FD0001200D9CFE5FFE1CFD9FF020EDBCFA9FF49
:104FE000A69CA69EA680A850E4CFD9FF1200ACA232
:104FF000FED79480AE500000AE50AB98AB88AB8625
:105000009D8A9D98120025642000F2CFF6FFF29E43
:10501000A69EA69CE9CFA9FFF3CFAAFFA680A85021
:10502000F6BEF28E1200E8AE07D0F3CFEAFFE4CF6F
:10503000EEFFF4CFEEFF1200E8BC9AEF28F012006A
:10504000700ED36E9B8CFF0E92689368946896687E
:10505000626AF19E120000C0E5FFD7EC23F0006EFB
:10506000005001E1FF00E4CF00F012000F01456B9A
:10507000900E0F01446F030E0F01436F0F01458F18
:105080001200E8AE05D0F3CFEAFFE4CFEEFF120046
:10509000E8BC98EF28F01200D9CFE5FFE1CFD9FFA7
:1050A000020EDBCFEEF0E4CFD9FF1200550EA76E53
:1050B000AA0EA76EA682A6B2FED7A94AAA2A010EF8
:1050C0000301746F1C0E0301706F716B12000301FA
:1050D000746B1C0E0301706F716B12000100944F12
:1050E0000000E0000000200000004BEC25F045EC43
:1050F00024F01200ACA2FED7AD6E120020EC28F016
:105100001200BCEC16F0120003017A5112000301E8
:10511000845112000001E8511200E8CF7FFF120015
:1051200005EF28F083EF27F067EF26F049EF26F030
:1051300096EF27F059EF27F0D1EF26F09FEF26F0FA
:020000040030CA
:010006008574
:00000001FF
